S00C00004C6162312E73726563D8
S11300000C94B4010C94D1010C94D1010C94D10141
S11300100C94D1010C94D1010C94D1010C94D10114
S11300200C94D1010C94D1010C94D1010C94D10104
S11300300C94D1010C94D1010C94D1010C94D101F4
S11300400C94D1010C94D1010C94D1010C94D101E4
S11300500C94D1010C94D1010C94D1010C94D101D4
S11300600C94D1010C94D1010C94D1010C94D101C4
S1130070000000000000000000065F5F06000000B2
S11300800007070007070000147F7F147F7F140018
S1130090242E6B6B3A120000466630180C66620020
S11300A0307A4F5D377A48000407030000000000EF
S11300B0001C3E63410000000041633E1C00000040
S11300C0082A3E1C1C3E2A0808083E3E0808000078
S11300D000A0E0600000000008080808080800000C
S11300E000006060000000006030180C060301008E
S11300F03E7F594D7F3E000042427F7F40400000DA
S1130100627359496F660000226349497F360000D3
S1130110181C16137F7F1000276745457D390000A2
S11301203C7E4B4979300000036371190F070000CE
S1130130367F49497F360000064F49693F1E00005B
S113014000006C6C0000000000A0EC6C00000000DB
S1130150081C366341000000141414141414000025
S1130160004163361C080000020351590F060000C9
S11301703E7F415D5D1F1E007C7E13137E7C00006C
S1130180417F7F49497F36001C3E63414163220021
S1130190417F7F41637F1C00417F7F495D41630054
S11301A0417F7F491D0103001C3E6341517372006E
S11301B07F7F08087F7F000000417F7F41000000AF
S11301C0307040417F3F0100417F7F081C7763000E
S11301D0417F7F41406070007F7F060C067F7F0077
S11301E07F7F060C187F7F001C3E6341633E1C002A
S11301F0417F7F49090F06001E3F21717F5E000089
S1130200417F7F19396F460026674D597B320000C4
S113021003417F7F410300007F7F40407F7F0000D8
S11302201F3F60603F1F00007F7F3018307F7F00DA
S113023063771C081C776300074F78784F0700002A
S11302406773594D47637100007F7F41410000008F
S11302500103060C183060000041417F7F0000005C
S1130260080C0603060C0800808080808080808053
S11302700000030704000000207454543C7840003C
S1130280413F7F44447C3800387C44446C2800005F
S1130290307848493F7F4000387C54545C18000053
S11302A0487E7F490302000098BCA4A4F87C0400A3
S11302B0417F7F08047C780000447D7D400000007D
S11302C040C484FD7D000000417F7F10386C4400F1
S11302D000417F7F400000007C7C0C180C7C78007F
S11302E07C7C04047C780000387C44447C38000026
S11302F084FCF8A4243C1800183C24A4F8FC8400D2
S1130300447C78441C180000485C54547424000055
S113031000043E7F442400003C7C40403C7C400080
S11303201C3C60603C1C00003C7C6030607C3C00F9
S1130330446C3810386C44009CBCA0A0FC7C0000C9
S11303404C64745C4C64000008083E774141000032
S113035000000077770000004141773E0808000064
S1130360020301030203010011241FBECFEFD4E0F6
S1130370DEBFCDBF11E0A0E0B1E0E4E5FEE002C0E5
S113038005900D92AE3FB107D9F722E0AEEFB1E090
S113039001C01D92AC30B207E1F70E94AA020C948E
S11303A028070C94000085B7806885BF80B78062F9
S11303B080BF30980895CF93DF931F92CDB7DEB7F7
S11303C08093001492E49A95F1F700C0E82FF0E0CE
S11303D0FC5E8081898389810F90DF91CF9108959C
S11303E00E9457034FEF64E680E60E942B0340E02F
S11303F060EE8FE00E942B0341E061E08BE20E94FB
S11304002B0341E064E08BE20E942B038EE00E9408
S113041009038FE00E940903089580E30E94090301
S113042084FD05C085FF06C08EEF9FEF08958FEF12
S11304309FEF089581E090E0089580E30E9409030E
S113044086958695869591E08927817090E0089538
S1130450EF92FF920F931F93CF93DF93CDB7DEB745
S11304602A970FB6F894DEBF0FBECDBF0983E12EE5
S11304701A832B833C834D835E836F8378878987BC
S11304809A8761E3802F8695869586950E94F5026A
S113049062E3802F8295880F807E0E94F50265E3D7
S11304A0812F8F700E94F502112391F08E010D5F50
S11304B01F4F86E3E80E0F2EF6E3FF2EF02D6F2D6F
S11304C0F80181918F010E94F502F394FE10F7CF99
S11304D081E00E941B0389EF90E00197F1F700C0CF
S11304E000000E941D02892B19F40E940D0202C013
S11304F080E090E02A960FB6F894DEBF0FBECDBF21
S1130500DF91CF911F910F91FF90EF900895CF93BA
S1130510DF93D82F862F0E94DB01C82F8D2F0E94D6
S1130520DB01282F6C2F70E0822F90E0DF91CF91B8
S11305300895CF93DF93D62F0E94DB01C82F8D2F10
S11305400E94DB01282F6C2F70E0822F90E0DF9156
S1130550CF910895CF93DF93CDB7DEB72A970FB627
S1130560F894DEBF0FBECDBF17BA0E9454058FE1C9
S113057090E00E945B050E9497040E94D1040E94AF
S1130580D3010E94F0010E94960486E091E00E944B
S1130590D80683E0898384E08A830E94D1040E9480
S11305A0DD0365E084E00E9487026B8365E084E0FC
S11305B00E9487028C8367E086E00E9499026D8323
S11305C067E086E00E94990209811A812B813C81AF
S11305D04D81582F6F81788589859A850E942802DC
S11305E0E0CFC4980895C49A0895CF93DF93C82F99
S11305F0D62F0E94F10282E00E9438058D2F0E94BE
S113060038058C2F0E9438050E94F302DF91CF91A8
S11306100895CF93C82F0E94F10283E00E94380509
S11306208C2F0E9438050E943C05C82F0E94F302BB
S11306308C2FCF910895CF93883018F4C82FC068B9
S113064001C0C0E80E94F1028C2F0E9438050E946C
S1130650F302CF9108951F93CF93DF93182FD62FD2
S1130660C42F0E94F10285E00E943805812F0E9468
S113067038058D2F0E9438058C2F0E9438050E9462
S1130680F302DF91CF911F9108950E94F10280EC53
S11306900E9438050E94F3028EE00E940903807EC6
S11306A0803821F083E191E00E94D80608950E94E9
S11306B033050E9445030895CF93DF93EC0187E14E
S11306C090E00E946605FC01009741F48DE291E000
S11306D00E94D80681E090E00E942807D183C0835D
S11306E0148A138A168A158A108A1786128A118A1E
S11306F014861386168615861286DF91CF91089587
S1130700EF92FF920F931F93CF93DF93EC018B0132
S11307107A0187E190E00E946605FC01F182E082A3
S1130720D48BC38B168A158A108A1786128A118A6B
S1130730148613861687058782E08287FE8BED8BED
S11307408B859C8501969C878B87CF01DF91CF9108
S11307501F910F91FF90EF900895CF92DF92EF9247
S1130760FF920F931F93CF93DF93EC016B017A01F8
S1130770890187E190E00E946605FC018B899C89D0
S1130780948B838B168A158AD08BC787FA8BE98B57
S1130790D28AC18A118300838A858F5F82871486F7
S11307A01386F686E586CF01DF91CF911F910F91D5
S11307B0FF90EF90DF90CF900895AF92BF92CF92C9
S11307C0DF92EF92FF920F931F93CF93DF9388E40E
S11307D091E00E945C03EC0122E531E041E455E044
S11307E0BC010E94AD038C0187E591E0F80193837D
S11307F0828382E0828724E631E040E050E0BE015B
S1130800C8010E94AD035C0144E651E062E475E076
S11308100E9480032FE631E043E455E0BC010E94CE
S1130820AD0325E731E040E050E0BE01C5010E9480
S1130830AD036C014DE751E060E070E00E9480037D
S11308407C0143E851E064E475E00E9480032AE8F7
S113085031E045E455E0BC010E94AD0324E931E0F8
S113086040E050E0B701C7010E94AD034FE951E0F9
S113087066E475E00E94800328EA31E047E455E02D
S1130880BC010E94AD032FEA31E048E455E0B80111
S1130890C6010E94AD037C01F801908B878786E036
S11308A0F7018287F88AEF8625E24CE160E08881CF
S11308B099810E94020525E24CE162E0F801808101
S11308C091810E94020525E24CE163E0F5018081FB
S11308D091810E94020525E24CE164E0F6018081E9
S11308E091810E94020525E24CE166E0F7018081D6
S11308F091810E94020528E040E062E084EB91E0EF
S11309000E94E4041092FF011092FE011092010271
S113091010920002CE01DF91CF911F910F91FF90B1
S1130920EF90DF90CF90BF90AF9008950895E0E0EE
S1130930F0E18EEA808381EA80838AED808382E11C
S1130940808388EC808388EA80838FE3808385EDCD
S1130950808380E8808381E8808380E5808389EDDB
S1130960808381E2808380E2808382E080838BEDD8
S1130970808380E380838DEA8083108284EA80838D
S113098086EA80838FEA80830895805580930010DF
S113099080E890E0E0E0F2E1108201970097E1F74F
S11309A00895CF93C0E08C2F0E94C504CF5FC83058
S11309B0D1F7CF9108958055E0E0F0E1808381E2A2
S11309C08083608340830895CF93C82F862F642F3C
S11309D0422F0E94DB04EC2FF0E0EE0FFF1FEE0F1E
S11309E0FF1FEE0FFF1FE059F04080E090E0A0E011
S11309F0B2E124912C930196319688309105C9F780
S1130A00CF910895DF92EF92FF920F931F93CF93AC
S1130A10DF938C01E62EFC0180818823E1F0F42E23
S1130A20C0E0D0E0D22ED41A2D2D2F0D8C3211F42B
S1130A30E3942196F801EC0FFD1F4F2D6E2D80815C
S1130A400E94E404F9E0FF0E2196F801EC0FFD1F6B
S1130A5080818111E9CFDF91CF911F910F91FF9098
S1130A60EF90DF90089581EB87BB81E58DB9089500
S1130A708FB9779BFECF089580E00E9438058FB12F
S1130A80089508950895089508950895089508957A
S1130A9081E090E00E9428075D9BFECF8CB9089509
S1130AA05F9BFECF8CB1089585B7806885BF80B702
S1130AB0806280BF089590BD89B988E18AB960E5F4
S1130AC075E08CE495E00E948D060895CF93DF9342
S1130AD08230910510F482E090E0E0910402F091FC
S1130AE0050220E030E0A0E0B0E0309739F1408129
S1130AF0518148175907B8F04817590771F4828192
S1130B009381109729F013969C938E9312972CC07F
S1130B10909305028093040227C02115310531F01A
S1130B204217530718F0A901DB0101C0EF019A0134
S1130B30BD01DF010280F381E02DD7CF21153105FE
S1130B40F9F0281B390B2430310580F48A819B810C
S1130B506115710521F0FB019383828304C0909396
S1130B60050280930402FE01329644C0FE01E20FA6
S1130B70F31F8193919322503109398328833AC01A
S1130B802091020230910302232B41F420910201AF
S1130B90309103013093030220930202209100015B
S1130BA0309101012115310541F42DB73EB7409133
S1130BB0040150910501241B350BE0910202F091D0
S1130BC00302E217F307A0F42E1B3F0B2817390783
S1130BD078F0AC014E5F5F4F2417350748F04E0F95
S1130BE05F1F50930302409302028193919302C0CA
S1130BF0E0E0F0E0CF01DF91CF910895CF93DF9350
S1130C00009709F487C0FC01329713821282C091C5
S1130C100402D0910502209781F420813181280FAC
S1130C20391F80910202909103028217930779F58C
S1130C30F0930302E09302026DC0DE0120E030E095
S1130C40AE17BF0750F412964D915C9113979D0116
S1130C504115510509F1DA01F3CFB383A283408131
S1130C605181840F951F8A179B0771F48D919C9174
S1130C701197840F951F02969183808312968D910C
S1130C809C911397938382832115310529F4F09362
S1130C900502E09304023EC0D9011396FC93EE933F
S1130CA012974D915D91A40FB51FEA17FB0779F4D4
S1130CB080819181840F951F0296D90111969C938E
S1130CC08E938281938113969C938E931297E0E086
S1130CD0F0E08A819B81009719F0FE01EC01F9CFC5
S1130CE0CE01029628813981820F931F209102023E
S1130CF0309103022817390769F4309729F41092C8
S1130D0005021092040202C013821282D0930302DD
S1130D10C0930202DF91CF9108950F931F93CF9355
S1130D20DF93EC018B01009731F46115710519F41F
S1130D3080E090E038C06EE070E081E090E00E94D6
S1130D400507FC010097A1F380E8838301151105D1
S1130D5071F01387028781E8838380910602909162
S1130D600702892B21F4F0930702E09306022097EF
S1130D70C9F0D187C0878381826083838091080210
S1130D8090910902892B71F4F0930902E09308020F
S1130D9080910A0290910B02892B21F4F0930B02AB
S1130DA0E0930A02CF01DF91CF911F910F91089533
S1130DB00F931F93CF93DF93E0910802F091090200
S1130DC0238121FF1BC0EC0100E010E089916091B8
S1130DD0080270910902DB011896ED91FC911997B4
S1130DE0882331F00995892B89F30FEF1FEFEECF9C
S1130DF08AE00995892B11F4C80102C08FEF9FEF97
S1130E00DF91CF911F910F9108950F931F93CF936B
S1130E10DF93869F8001879F100D969F100D1124EC
S1130E20C8010E946605EC01009729F0A80160E062
S1130E3070E00E942107CE01DF91CF911F910F91A5
S1130E400895DC0101C06D9341505040E0F70895CE
S1070E50F894FFCF40
S1130E5400000C022000496E697420657220676FDB
S1130E646F64004E6F7420696E20636F6E666967E9
S1130E742061667465722072657365740043616EE3
S1130E847420636F6E74696E75652C206D656D6F67
S1130E9472792066756C6C004D61696E204D656EC7
S1130EA47500506C617900477265656E203D20665B
S1130EB4697265004869676873636F726573005289
S1130EC465736574004F7074696F6E73004D6F645D
S1130ED4657300476F616C6965005375726976695F
S1130EE476616C00436F6E74726F6C6C6572004A49
S1130EF46F79737469636B00536C6964657200453C
S1130F047869740023006D696E64726520656E6E81
S1130F14203530007374F872726520656E6E203566
S1130F243000656C656D656E20746578743A2025AF
S1130F34730A00636D3A2025642C20686173687415
S1110F4461673A202564092025730A20000005
S9030000FC
