S00C00004C6162312E73726563D8
S11300000C94B4010C94D1010C94D1010C94D10141
S11300100C94D1010C94D1010C94D1010C94D10114
S11300200C94D1010C94D1010C94D1010C94D10104
S11300300C94D1010C94D1010C94D1010C94D101F4
S11300400C94D1010C94D1010C94D1010C94D101E4
S11300500C94D1010C94D1010C94D1010C94D101D4
S11300600C94D1010C94D1010C94D1010C94D101C4
S1130070000000000000000000065F5F06000000B2
S11300800007070007070000147F7F147F7F140018
S1130090242E6B6B3A120000466630180C66620020
S11300A0307A4F5D377A48000407030000000000EF
S11300B0001C3E63410000000041633E1C00000040
S11300C0082A3E1C1C3E2A0808083E3E0808000078
S11300D000A0E0600000000008080808080800000C
S11300E000006060000000006030180C060301008E
S11300F03E7F594D7F3E000042427F7F40400000DA
S1130100627359496F660000226349497F360000D3
S1130110181C16137F7F1000276745457D390000A2
S11301203C7E4B4979300000036371190F070000CE
S1130130367F49497F360000064F49693F1E00005B
S113014000006C6C0000000000A0EC6C00000000DB
S1130150081C366341000000141414141414000025
S1130160004163361C080000020351590F060000C9
S11301703E7F415D5D1F1E007C7E13137E7C00006C
S1130180417F7F49497F36001C3E63414163220021
S1130190417F7F41637F1C00417F7F495D41630054
S11301A0417F7F491D0103001C3E6341517372006E
S11301B07F7F08087F7F000000417F7F41000000AF
S11301C0307040417F3F0100417F7F081C7763000E
S11301D0417F7F41406070007F7F060C067F7F0077
S11301E07F7F060C187F7F001C3E6341633E1C002A
S11301F0417F7F49090F06001E3F21717F5E000089
S1130200417F7F19396F460026674D597B320000C4
S113021003417F7F410300007F7F40407F7F0000D8
S11302201F3F60603F1F00007F7F3018307F7F00DA
S113023063771C081C776300074F78784F0700002A
S11302406773594D47637100007F7F41410000008F
S11302500103060C183060000041417F7F0000005C
S1130260080C0603060C0800808080808080808053
S11302700000030704000000207454543C7840003C
S1130280413F7F44447C3800387C44446C2800005F
S1130290307848493F7F4000387C54545C18000053
S11302A0487E7F490302000098BCA4A4F87C0400A3
S11302B0417F7F08047C780000447D7D400000007D
S11302C040C484FD7D000000417F7F10386C4400F1
S11302D000417F7F400000007C7C0C180C7C78007F
S11302E07C7C04047C780000387C44447C38000026
S11302F084FCF8A4243C1800183C24A4F8FC8400D2
S1130300447C78441C180000485C54547424000055
S113031000043E7F442400003C7C40403C7C400080
S11303201C3C60603C1C00003C7C6030607C3C00F9
S1130330446C3810386C44009CBCA0A0FC7C0000C9
S11303404C64745C4C64000008083E774141000032
S113035000000077770000004141773E0808000064
S1130360020301030203010011241FBECFEFD4E0F6
S1130370DEBFCDBF12E0A0E0B1E0EAE1FDE102C0E2
S113038005900D92AA32B107D9F722E0AAE2B2E0B1
S113039001C01D92A633B207E1F70E948D030C94AD
S11303A08B0E0C94000085B7806885BF80B780628F
S11303B080BF30980895CF93DF931F92CDB7DEB7F7
S11303C08093001492E49A95F1F700C0E82FF0E0CE
S11303D0FC5E8081898389810F90DF91CF9108959C
S11303E00E9414044FEF64E680E60E94E80340E0B4
S11303F060EE8FE00E94E80341E061E08BE20E943E
S1130400E80341E064E08BE20E94E8038EE00E948E
S1130410C6038FE00E94C603089580E30E94C603CA
S113042084FD05C085FF06C08EEF9FEF08958FEF12
S11304309FEF089581E090E0089580E30E94C60351
S113044086958695869591E08927817090E0089538
S1130450EF92FF920F931F93CF93DF93CDB7DEB745
S11304602A970FB6F894DEBF0FBECDBF0983E12EE5
S11304701A832B833C834D835E836F8378878987BC
S11304809A8761E3802F8695869586950E94B203AC
S113049062E3802F8295880F807E0E94B20365E319
S11304A0812F8F700E94B203112391F08E010D5F92
S11304B01F4F86E3E80E0F2EF6E3FF2EF02D6F2D6F
S11304C0F80181918F010E94B203F394FE10F7CFDB
S11304D081E00E94D80389EF90E00197F1F700C012
S11304E000000E941D02892B19F40E940D0202C013
S11304F080E090E02A960FB6F894DEBF0FBECDBF21
S1130500DF91CF911F910F91FF90EF900895AF92DB
S1130510BF92CF92DF92EF92FF920F931F93CF93EC
S1130520DF93CDB7DEB72A970FB6F894DEBF0FBEC0
S1130530CDBF7C0182E60E94C60381E60E94C60309
S113054082E60E94C603A82E81E60E94C60328E024
S1130550829FC0011124A694A694A694A694A6945E
S1130560A82A85E60E94C603B82E8823A9F08E0126
S11305700D5F1F4F0F2EF6E6CF2EF02DC80E0F2E57
S1130580F6E6DF2EF02D8D2D0E94C603F80181932F
S11305908F01D394DC10F7CF40E06FEF8CE20E9420
S11305A0E803A982BA828AE0FE013196D70101905C
S11305B00D928A95E1F7C7012A960FB6F894DEBF2B
S11305C00FBECDBFDF91CF911F910F91FF90EF90A0
S11305D0DF90CF90BF90AF900895DF92EF92FF929B
S11305E00F931F93CF93DF93CDB7DEB764970FB606
S11305F0F894DEBF0FBECDBF9AE0998398E09A834A
S1130600813029F4623079F48BE089830CC0823024
S113061051F4613019F0623021F005C08EE0898315
S113062002C08FE08983CE010B960E948702EB847F
S1130630DB8865E084E00E946A03F62E67E086E0CA
S11306400E947C03FB828E8309811A812F2D3C81B9
S11306504D81582F6F81788589859A850E9428025B
S113066083EC99E00197F1F700C0000091E0E912F2
S1130670DACF0D2D10E01F92DF9225E132E03F9397
S11306802F930E94780BC8010E9457080F900F9077
S11306900F900F9064960FB6F894DEBF0FBECDBFD7
S11306A0DF91CF911F910F91FF90EF90DF9008950C
S11306B0E199FECF90E09FBB8EBB6DBBE29AE19ABD
S11306C00895E199FECF90E09FBB8EBBE09A8DB375
S11306D090E00895CF93DF93D82F862F0E94DB01FB
S11306E0C82F8D2F0E94DB01282F6C2F70E0822FE2
S11306F090E0DF91CF910895CF93DF93D62F0E949E
S1130700DB01C82F8D2F0E94DB01282F6C2F70E096
S1130710822F90E0DF91CF91089517BA0E94F409D7
S11307208FE190E00E94FB090E94A7080E94EB0859
S11307300E94D3010E94F00186E091E00E948C0B9C
S11307400E94EB080E949A04EC0183E191E00E946C
S11307508C0BCE010E943807EC01FBCFC49808959E
S1130760C49A0895CF93DF93C82FD62F0E94AE0367
S113077082E00E9452098D2F0E9452098C2F0E9400
S113078052090E94B003DF91CF910895CF93C82FEF
S11307900E94AE0383E00E9452098C2F0E945209EA
S11307A00E945609C82F0E94B0038C2FCF91089540
S11307B0CF93883018F4C82FC06801C0C0E80E94E5
S11307C0AE038C2F0E9452090E94B003CF9108956A
S11307D01F93CF93DF93182FD62FC42F0E94AE03FD
S11307E085E00E945209812F0E9452098D2F0E9498
S11307F052098C2F0E9452090E94B003DF91CF91BD
S11308001F9108950E94AE0380EC0E9452090E9439
S1130810B0038EE00E94C603807E803821F08BE115
S113082091E00E948C0B08950E944D090E940204DD
S11308300895CF93DF93EC018BE190E00E94060AC8
S1130840FC01009741F485E391E00E948C0B81E068
S113085090E00E948B0ED183C083108E178A128E73
S1130860118E148A138A168A158A108A1786128A98
S1130870118A1686DF91CF910895EF92FF920F931C
S11308801F93CF93DF93EC018B017A018BE190E00E
S11308900E94060AFC01F182E082D08FC78B128E7F
S11308A0118E148A138A168A158A108A1786128B57
S11308B0018B82E08687FA8FE98F8F85988901966C
S11308C0988B8F87CF01DF91CF911F910F91FF906C
S11308D0EF900895CF92DF92EF92FF920F931F93C0
S11308E0CF93DF93EC016B017A0189018BE190E0F6
S11308F00E94060AFC018F89988D908F878B128E37
S1130900118ED48BC38BFE8BED8BD68AC58A118353
S113091000838E858F5F8687108A1786F28AE18A24
S1130920CF01DF91CF911F910F91FF90EF90DF9056
S1130930CF9008952F923F924F925F926F927F9241
S11309408F929F92AF92BF92CF92DF92EF92FF92DB
S11309500F931F93CF93DF9380E591E00E941904D6
S11309606C012AE531E04BE559E060E070E080E09D
S113097090E00E946A04EC018FE591E09B838A83F6
S113098082E08E8725E631E040E050E0BE01CE01F2
S11309900E946A048C0140E751E06EE579E00E9410
S11309A03D0426E731E047EC59E0BC010E946A04AB
S11309B02C012CE731E040E050E0B801C8010E946E
S11309C06A047C0144E851E060E070E00E943D0468
S11309D05C014AE851E064ED79E00E943D0421E9BC
S11309E031E047ED59E0BC010E946A041C012AE988
S11309F031E040E050E0B501C5010E946A045C01A9
S1130A0045EA51E06AED79E00E943D042EEA31E0C6
S1130A1041EE59E0BC010E946A044C0125EB31E02F
S1130A2048EE59E060E070E0C7010E946A043C01AE
S1130A30F701108E178A188E1F8AF801108E178AF4
S1130A40FC01108E178A1E8B0D8BF201168A158AF3
S1130A50F501168A158AF601D68BC58BF101168A23
S1130A60158AF401168A158AF2E0FE8786E0F301FE
S1130A70868725E24CE160E0F601808191810E9445
S1130A801C0925E24CE162E0888199810E941C09DD
S1130A9025E24CE163E0F801808191810E941C0908
S1130AA025E24CE164E0F701808191810E941C09F8
S1130AB025E24CE166E0F301808191810E941C09EA
S1130AC028E040E062E083E20E94FE08C601DF9174
S1130AD0CF911F910F91FF90EF90DF90CF90BF9037
S1130AE0AF909F908F907F906F905F904F903F90CA
S1130AF02F9008950F931F93CF93DF93EC018B01F5
S1130B0089818F9388818F938AEB91E09F938F9350
S1130B100E94780B0F900F900F900F90093C1105D5
S1130B200CF4A6C08881998121E08536920729F0CA
S1130B3021E08C37920709F046C08E85833019F086
S1130B40843019F13CC025E24CE160E085E691E097
S1130B500E941C0925E24CE162E080E791E00E94DA
S1130B601C0925E24CE163E086E791E00E941C0940
S1130B7028E040E06E8580E20E94FE0828E040E024
S1130B8062E083E20E94FE081AC025E24CE162E0C2
S1130B9084E891E00E941C0925E24CE163E08AE9C3
S1130BA091E00E941C0928E040E06E8580E20E94EA
S1130BB0FE0828E040E062E083E20E94FE08098C1F
S1130BC0DA8DC02D41C121E08438920721F08A5981
S1130BD0914009F04DC08E85823019F0833019F1AF
S1130BE043C025E24CE160E084E891E00E941C09E6
S1130BF025E24CE162E08AE891E00E941C0925E2CA
S1130C004CE163E081E991E00E941C0928E040E0A6
S1130C106E8580E20E94FE0828E040E062E083E204
S1130C200E94FE0821C025E24CE160E08AE991E0DF
S1130C300E941C0925E24CE162E085EA91E00E94F1
S1130C401C0925E24CE163E08EEA91E00E941C0954
S1130C5028E040E06E8580E20E94FE0828E040E043
S1130C6062E083E20E94FE08098CDA8DC02DECC09C
S1130C70023311050CF0E8C08881998121E08A389B
S1130C80920721F021E08139920759F50F88D88D18
S1130C90C02D25E24CE160E08CE791E00E941C0944
S1130CA025E24CE162E084E891E00E941C0925E21F
S1130CB04CE163E08AE991E00E941C0928E040E0ED
S1130CC062E080E20E94FE0828E040E063E080E207
S1130CD00E94FE0828E040E06E8583E20E94FE0840
S1130CE0B3C021E0853A920721F021E08E3A9207C1
S1130CF059F50F88D88DC02D25E24CE160E08CE7D2
S1130D0091E00E941C0925E24CE162E084E891E054
S1130D100E941C0925E24CE163E08AE991E00E940B
S1130D201C0928E040E062E080E20E94FE0828E01E
S1130D3040E063E080E20E94FE0828E040E06E8527
S1130D4083E20E94FE0880C021E08438920721F0EB
S1130D5021E08A399207C9F50F88D88DC02D25E284
S1130D604CE160E080E591E00E941C0925E24CE141
S1130D7062E08AE591E00E941C0925E24CE163E00F
S1130D8085E691E00E941C0925E24CE164E08CE7D1
S1130D9091E00E941C0925E24CE166E085EB91E0BC
S1130DA00E941C0928E040E062E080E20E94FE0804
S1130DB028E040E063E080E20E94FE0828E040E092
S1130DC06E8583E20E94FE083FC021E080379207CF
S1130DD019F086579140C1F50F88D88DC02D25E2B2
S1130DE04CE160E080E591E00E941C0925E24CE1C1
S1130DF062E08AE591E00E941C0925E24CE163E08F
S1130E0085E691E00E941C0925E24CE164E08CE750
S1130E1091E00E941C0925E24CE166E085EB91E03B
S1130E200E941C0928E040E062E080E20E94FE0883
S1130E3028E040E063E080E20E94FE0828E040E011
S1130E406E8583E20E94FE0889818F9388818F9347
S1130E508AEC91E09F938F930E94780B0F900F90F0
S1130E600F900F90CE01DF91CF911F910F910895B4
S1130E704F925F926F927F928F929F92AF92BF92A6
S1130E80CF92DF92EF92FF920F931F93CF93DF9352
S1130E90EC0165E084E00E946A036B017C01870138
S1130EA065E084E00E946A032B013C015B0104318C
S1130EB01105ECF480912B02811119C08D889E8854
S1130EC081149104A1F081E080932B0228E040E09A
S1130ED06E8580E20E94FE0828E040E0F401668509
S1130EE083E20E94FE080D88DE89C02D27C00D3DD7
S1130EF01105ECF080912B02811119C00B891C891A
S1130F0001151105A1F081E080932B0228E040E057
S1130F106E8580E20E94FE0828E040E0F8016685C4
S1130F2083E20E94FE080B88DC89C02D07C0C7013C
S1130F30895791094D9710F410922B02F4E1AF16E2
S1130F40B10424F48F89988D892B29F449ECA416D3
S1130F50B1040CF491C080912A0281118DC081E00A
S1130F6080932A020E94EB08898D9A8D892B09F0BF
S1130F707DC06C857D85E989FA898A859B8509957B
S1130F8028813981E1E020373E0719F026573140A6
S1130F9021F4EF89F88DC389D4892881398141E00E
S1130FA02A38340721F0E1E021393E0769F4EF895A
S1130FB0F88D0788F08DE02D0388F489E02DC3892E
S1130FC0D4899B878A8713C0F1E0253A3F0719F03B
S1130FD02E5A314061F4EF89F88D0788F08DE02DA9
S1130FE00388F489E02DC389D4899D878C878D85F6
S1130FF08F938C858F938B858F938A858F938AEDBE
S113100091E09F938F930E94780B0E94EB0825E256
S11310104CE160E08DEE91E00E941C0925E24CE178
S113102062E08AE591E00E941C0925E24CE163E05C
S113103085E691E00E941C0925E24CE164E08CE71E
S113104091E00E941C0925E24CE166E085EB91E009
S11310500E941C0928E040E062E083E20E94FE084E
S11310600F900F900F900F900F900F90B201CE0140
S11310700E947A05EC0109C089E7481A5108EDE19C
S11310804E16510410F410922A02CE01DF91CF9132
S11310901F910F91FF90EF90DF90CF90BF90AF9092
S11310A09F908F907F906F905F904F9008958F9254
S11310B09F92AF92BF92CF92DF92EF921F93CF9302
S11310C0DF93A82EE82EC1E0D0E0C12CB12C0F2E66
S11310D0F7EF8F2EF1E09F2EF02DDC2ECE010E9433
S11310E06103182F8F3F09F41B2D1E1560F41F9206
S11310F01F939F928F920E94780B0F900F900F90E6
S11311000F90CD2CE12E2196C630D10531F7CC209D
S113111099F0CC2DD0E01F92CF9220E032E03F93A3
S11311202F930E94780B6A2D70E0CE010E94580321
S11311300F900F900F900F90DF91CF911F91EF9030
S1131140DF90CF90BF90AF909F908F900895E0E094
S1131150F0E18EEA808381EA80838AED808382E1F4
S1131160808388EC808388EA80838FE3808385EDA5
S1131170808380E8808381E8808380E5808389EDB3
S1131180808381E2808380E2808382E080838BEDB0
S1131190808380E380838DEA8083108284EA808365
S11311A086EA80838FEA808308958055E0E0F0E149
S11311B0808381E2808310828FE7808380E021E254
S11311C09FE7A0E0B2E12083808390831C928F5F2D
S11311D08F37C9F70895CF93C0E08C2F0E94D508AC
S11311E0CF5FC830D1F7CF9108958055E0E0F0E1AA
S11311F0808381E28083608340830895CF93C82FE6
S1131200862F642F422F0E94F508EC2FF0E0EE0F9A
S1131210FF1FEE0FFF1FEE0FFF1FE059F04080E0AD
S113122090E0A0E0B2E124912C93019631968830AD
S11312309105C9F7CF910895DF92EF92FF920F9332
S11312401F93CF93DF938C01E62EFC0180818823CA
S1131250E1F0F42EC0E0D0E0D22ED41A2D2D2F0DC3
S11312608C3211F4E3942196F801EC0FFD1F4F2DFD
S11312706E2D80810E94FE08F9E0FF0E2196F80190
S1131280EC0FFD1F80818111E9CFDF91CF911F9178
S11312900F91FF90EF90DF90089581EB87BB81E57C
S11312A08DB908958FB9779BFECF089580E00E9491
S11312B052098FB108950E94ED020895CF92DF92F2
S11312C0EF92FF920F931F93CF93DF9300D000D040
S11312D01F92CDB7DEB781E00E946103898382E06B
S11312E00E9461038A8383E00E9461038B8384E00C
S11312F00E9461038C8385E00E9461038D83CE018B
S113130001966C0100E010E00F2EF9E0EF2EF2E000
S1131310FF2EF02DF60181916F010F5F1F4F1F9279
S11313208F931F930F93FF92EF920E94780B0F906D
S11313300F900F900F900F900F900630110551F7FA
S113134001E112E065E084E00E946A03862F972F92
S11313507C017F936F931F930F930E94780B0F90E0
S11313600F900F900F90F9E2EF16F1045CF780E014
S113137090E00F900F900F900F900F90DF91CF910E
S11313801F910F91FF90EF90DF90CF900895CF932E
S1131390C1E060E08C2F0E945803CF5FC630C9F7CC
S11313A080E090E0CF91089582E090E0089581E09C
S11313B090E0089589E192E00E948C0B82E090E035
S11313C0089582E292E00E948C0B81E090E00895FF
S11313D081E090E00E948B0E5D9BFECF8CB9089556
S11313E05F9BFECF8CB1089585B7806885BF80B7B9
S11313F0806280BF089590BD89B988E18AB960EFA1
S113140079E08CEE99E00E942D0B0895CF93DF9341
S11314108230910510F482E090E0E0912E02F09188
S11314202F0220E030E0A0E0B0E0309739F14081B5
S1131430518148175907B8F04817590771F4828148
S11314409381109729F013969C938E9312972CC036
S113145090932F0280932E0227C02115310531F07D
S11314604217530718F0A901DB0101C0EF019A01EB
S1131470BD01DF010280F381E02DD7CF21153105B5
S1131480F9F0281B390B2430310580F48A819B81C3
S11314906115710521F0FB019383828304C090934D
S11314A02F0280932E02FE01329644C0FE01E20F09
S11314B0F31F8193919322503109398328833AC0D1
S11314C020912C0230912D02232B41F42091020112
S11314D03091030130932D0220932C0220910001BE
S11314E0309101012115310541F42DB73EB74091EA
S11314F0040150910501241B350BE0912C02F0915D
S11315002D02E217F307A0F42E1B3F0B281739070F
S113151078F0AC014E5F5F4F2417350748F04E0F4B
S11315205F1F50932D0240932C028193919302C02C
S1131530E0E0F0E0CF01DF91CF910895CF93DF9306
S1131540009709F487C0FC01329713821282C0917C
S11315502E02D0912F02209781F420813181280F0F
S1131560391F80912C0290912D028217930779F5EF
S1131570F0932D02E0932C026DC0DE0120E030E0F8
S1131580AE17BF0750F412964D915C9113979D01CD
S11315904115510509F1DA01F3CFB383A2834081E8
S11315A05181840F951F8A179B0771F48D919C912B
S11315B01197840F951F02969183808312968D91C3
S11315C09C911397938382832115310529F4F09319
S11315D02F02E0932E023EC0D9011396FC93EE93A2
S11315E012974D915D91A40FB51FEA17FB0779F48B
S11315F080819181840F951F0296D90111969C9345
S11316008E938281938113969C938E931297E0E03C
S1131610F0E08A819B81009719F0FE01EC01F9CF7B
S1131620CE01029628813981820F931F20912C02CA
S113163030912D022817390769F4309729F4109254
S11316402F0210922E0202C013821282D0932D0216
S1131650C0932C02DF91CF9108950F931F93CF93E2
S1131660DF93EC018B01009731F46115710519F4D6
S113167080E090E038C06EE070E081E090E00E948D
S11316808B0DFC010097A1F380E8838301151105FC
S113169071F01387028781E88383809130029091EF
S11316A03102892B21F4F0933102E0933002209728
S11316B0C9F0D187C087838182608383809132029D
S11316C090913302892B71F4F0933302E093320248
S11316D08091340290913502892B21F4F0933502E4
S11316E0E0933402CF01DF91CF911F910F910895C0
S11316F0A0E0B0E0EEE7FBE00C94640EFE0135964A
S113170061917191AF0180913202909133020E94F4
S1131710B90BE2E00C94800E0F931F93CF93DF93E9
S1131720E0913202F0913302238121FF1BC0EC01CE
S113173000E010E089916091320270913302DB0184
S11317401896ED91FC911997882331F00995892B0E
S113175089F30FEF1FEFEECF8AE00995892B11F47F
S1131760C80102C08FEF9FEFDF91CF911F910F91BE
S11317700895ACE0B0E0EFEBFBE00C94540E7C0178
S11317806B018A01FC0117821682838181FFBDC12E
S1131790CE0101964C01F7019381F60193FD8591E9
S11317A093FF81916F01882309F4ABC1853239F429
S11317B093FD859193FF81916F01853229F4B701DF
S11317C090E00E94C40DE7CF512C312C20E0203250
S11317D0A0F48B3269F030F4803259F0833269F42A
S11317E020612CC08D3239F0803339F4216026C059
S11317F02260246023C0286021C027FD27C030ED6B
S1131800380F3A3078F426FF06C0FAE05F9E300DB8
S11318101124532E13C08AE0389E300D1124332E28
S113182020620CC08E3221F426FD6BC1206406C0F8
S11318308C3611F4206802C0883641F4F60193FD19
S1131840859193FF81916F018111C1CF982F9F7D65
S11318509554933028F40C5F1F4FFFE3F9830DC0B8
S1131860833631F0833771F0833509F05BC022C0D1
S1131870F801808189830E5F1F4F44244394512CC7
S1131880540115C03801F2E06F0E711CF801A080FC
S1131890B18026FF03C0652D70E002C06FEF7FEFBB
S11318A0C5012C870E94B90D2C0183012C852F774B
S11318B0222E17C03801F2E06F0E711CF801A080CF
S11318C0B18026FF03C0652D70E002C06FEF7FEF8B
S11318D0C5012C870E94A70D2C012C852068222E7F
S11318E0830123FC1BC0832D90E048165906B0F4F5
S11318F0B70180E290E00E94C40D3A94F4CFF50160
S113190027FC859127FE81915F01B70190E00E9439
S1131910C40D31103A94F1E04F1A510841145104A6
S113192071F7E5C0843611F0893639F5F80127FFDF
S113193007C060817181828193810C5F1F4F08C051
S113194060817181882777FD8095982F0E5F1F4FE6
S11319502F76B22E97FF09C090958095709561956A
S11319607F4F8F4F9F4F2068B22E2AE030E0A401B2
S11319700E94F60DA82EA81844C0853729F42F7E9E
S1131980B22E2AE030E025C0F22FF97FBF2E8F3629
S1131990C1F018F4883579F0B4C0803719F088376D
S11319A021F0AFC02F2F2061B22EB4FE0DC08B2DBD
S11319B08460B82E09C024FF0AC09F2F9660B92EF8
S11319C006C028E030E005C020E130E002C020E19C
S11319D032E0F801B7FE07C0608171818281938192
S11319E00C5F1F4F06C06081718180E090E00E5F44
S11319F01F4FA4010E94F60DA82EA818FB2DFF77F7
S1131A00BF2EB6FE0BC02B2D2E7FA51450F4B4FEB2
S1131A100AC0B2FC08C02B2D2E7E05C07A2C2B2DBB
S1131A2003C07A2C01C0752C24FF0DC0FE01EA0D01
S1131A30F11D8081803311F4297E09C022FF06C084
S1131A407394739404C0822F867809F0739423FDF1
S1131A5013C020FF06C05A2C731418F4530C5718E3
S1131A60732C731468F4B70180E290E02C870E9411
S1131A70C40D73942C85F5CF731410F4371801C07A
S1131A80312C24FF12C0B70180E390E02C870E9420
S1131A90C40D2C8522FF17C021FF03C088E590E008
S1131AA002C088E790E0B7010CC0822F867859F015
S1131AB021FD02C080E201C08BE227FD8DE2B70167
S1131AC090E00E94C40DA51438F4B70180E390E0BF
S1131AD00E94C40D5A94F7CFAA94F401EA0DF11DA3
S1131AE08081B70190E00E94C40DA110F5CF33208E
S1131AF009F451CEB70180E290E00E94C40D3A94FB
S1131B00F6CFF7018681978102C08FEF9FEF2C9665
S1131B10E2E10C94700E0F931F93CF93DF93869F93
S1131B208001879F100D969F100D1124C8010E94FB
S1131B30060AEC01009729F0A80160E070E00E9419
S1131B40B20DCE01DF91CF911F910F910895FC0149
S1131B500590615070400110D8F7809590958E0FD4
S1131B609F1F0895DC0101C06D9341505040E0F780
S1131B700895FC016150704001900110D8F78095E0
S1131B8090958E0F9F1F08950F931F93CF93DF930C
S1131B90182F092FEB018B8181FD03C08FEF9FEF7D
S1131BA020C082FF10C04E815F812C813D8142178D
S1131BB053077CF4E881F9819F012F5F3F4F3983FC
S1131BC02883108306C0E885F985812F0995892B20
S1131BD029F72E813F812F5F3F4F3F832E83812F33
S1131BE0902FDF91CF911F910F910895FA01AA27A9
S1131BF0283051F1203181F1E8946F936E7F6E5F4C
S1131C007F4F8F4F9F4FAF4FB1E03ED0B4E03CD0F9
S1131C10670F781F891F9A1FA11D680F791F8A1FDC
S1131C20911DA11D6A0F711D811D911DA11D20D043
S1131C3009F468943F912AE0269F11243019305DFD
S1131C403193DEF6CF010895462F4770405D4193EE
S1131C50B3E00FD0C9F7F6CF462F4F70405D4A333B
S1131C6018F0495D31FD4052419302D0A9F7EACF03
S1131C70B4E0A6959795879577956795BA95C9F732
S1131C8000976105710508959B01AC010A2E069425
S1131C905795479537952795BA95C9F7620F731FDE
S1131CA0841F951FA01D08952F923F924F925F921B
S1131CB06F927F928F929F92AF92BF92CF92DF9258
S1131CC0EF92FF920F931F93CF93DF93CDB7DEB7BD
S1131CD0CA1BDB0B0FB6F894DEBF0FBECDBF099451
S1131CE02A88398848885F846E847D848C849B84A8
S1131CF0AA84B984C884DF80EE80FD800C811B81B6
S1131D00AA81B981CE0FD11D0FB6F894DEBF0FBEE4
S10D1D10CDBFED010895F894FFCF54
S1131D1A000036022000496E697420657220676FDC
S1131D2A6F640072657365746564004E6F7420692C
S1131D3A6E20636F6E6669672061667465722072CD
S1131D4A657365740043616E7420636F6E74696EA3
S1131D5A75652C206D656D6F72792066756C6C00E3
S1131D6A4D61696E204D656E7500506C617900474E
S1131D7A7265656E004869676873636F726573009C
S1131D8A5072696E74005265736574004F70746999
S1131D9A6F6E73004D6F64657300476F616C69659C
S1131DAA00537572766976616C00436F6E74726F54
S1131DBA6C6C6572004A6F79737469636B00536C57
S1131DCA6964657200457869740066F8722E7465F0
S1131DDA78742020202025730A0065747465722E95
S1131DEA74657874202573200A00676D3A20256982
S1131DFA2C20636F6E74723A2025690A004D41499A
S1131E0A4E204D454E55006D696E3A2025780A00DC
S1131E1A4164723A2025780A002569092025640A52
S1131E2A005748590925640A006A6F79737469630B
S10D1E3A6B00736C696465720000AC
S9030000FC
