S00C00004C6162312E73726563D8
S11300000C94B4010C94D1010C94D1010C94D10141
S11300100C94D1010C94D1010C94D1010C94D10114
S11300200C94D1010C94D1010C94D1010C94D10104
S11300300C94D1010C94D1010C94D1010C94D101F4
S11300400C94D1010C94D1010C94D1010C94D101E4
S11300500C94D1010C94D1010C94D1010C94D101D4
S11300600C94D1010C94D1010C94D1010C94D101C4
S1130070000000000000000000065F5F06000000B2
S11300800007070007070000147F7F147F7F140018
S1130090242E6B6B3A120000466630180C66620020
S11300A0307A4F5D377A48000407030000000000EF
S11300B0001C3E63410000000041633E1C00000040
S11300C0082A3E1C1C3E2A0808083E3E0808000078
S11300D000A0E0600000000008080808080800000C
S11300E000006060000000006030180C060301008E
S11300F03E7F594D7F3E000042427F7F40400000DA
S1130100627359496F660000226349497F360000D3
S1130110181C16137F7F1000276745457D390000A2
S11301203C7E4B4979300000036371190F070000CE
S1130130367F49497F360000064F49693F1E00005B
S113014000006C6C0000000000A0EC6C00000000DB
S1130150081C366341000000141414141414000025
S1130160004163361C080000020351590F060000C9
S11301703E7F415D5D1F1E007C7E13137E7C00006C
S1130180417F7F49497F36001C3E63414163220021
S1130190417F7F41637F1C00417F7F495D41630054
S11301A0417F7F491D0103001C3E6341517372006E
S11301B07F7F08087F7F000000417F7F41000000AF
S11301C0307040417F3F0100417F7F081C7763000E
S11301D0417F7F41406070007F7F060C067F7F0077
S11301E07F7F060C187F7F001C3E6341633E1C002A
S11301F0417F7F49090F06001E3F21717F5E000089
S1130200417F7F19396F460026674D597B320000C4
S113021003417F7F410300007F7F40407F7F0000D8
S11302201F3F60603F1F00007F7F3018307F7F00DA
S113023063771C081C776300074F78784F0700002A
S11302406773594D47637100007F7F41410000008F
S11302500103060C183060000041417F7F0000005C
S1130260080C0603060C0800808080808080808053
S11302700000030704000000207454543C7840003C
S1130280413F7F44447C3800387C44446C2800005F
S1130290307848493F7F4000387C54545C18000053
S11302A0487E7F490302000098BCA4A4F87C0400A3
S11302B0417F7F08047C780000447D7D400000007D
S11302C040C484FD7D000000417F7F10386C4400F1
S11302D000417F7F400000007C7C0C180C7C78007F
S11302E07C7C04047C780000387C44447C38000026
S11302F084FCF8A4243C1800183C24A4F8FC8400D2
S1130300447C78441C180000485C54547424000055
S113031000043E7F442400003C7C40403C7C400080
S11303201C3C60603C1C00003C7C6030607C3C00F9
S1130330446C3810386C44009CBCA0A0FC7C0000C9
S11303404C64745C4C64000008083E774141000032
S113035000000077770000004141773E0808000064
S1130360020301030203010011241FBECFEFD4E0F6
S1130370DEBFCDBF12E0A0E0B1E0ECEBFDE102C0D6
S113038005900D92A237B107D9F722E0A2E7B2E0B7
S113039001C01D92A238B207E1F70E94B8030C9481
S11303A0DC0E0C94000085B7806885BF80B780623E
S11303B080BF30980895CF93DF931F92CDB7DEB7F7
S11303C08093001492E49A95F1F700C0E82FF0E0CE
S11303D0FC5E8081898389810F90DF91CF9108959C
S11303E00E943F044FEF64E680E60E94130440E05D
S11303F060EE8FE00E94130441E061E08BE20E9412
S1130400130441E064E08BE20E9413048EE00E9436
S1130410F1038FE00E94F103089580E30E94F10349
S113042084FD05C085FF06C08EEF9FEF08958FEF12
S11304309FEF089581E090E0089580E30E94F10326
S113044086958695869591E08927817090E0089538
S1130450EF92FF920F931F93CF93DF93CDB7DEB745
S11304602A970FB6F894DEBF0FBECDBF0983E12EE5
S11304701A832B833C834D835E836F8378878987BC
S11304809A8761E3802F8695869586950E94DD0381
S113049062E3802F8295880F807E0E94DD0365E3EE
S11304A0812F8F700E94DD03112391F08E010D5F67
S11304B01F4F86E3E80E0F2EF6E3FF2EF02D6F2D6F
S11304C0F80181918F010E94DD03F394FE10F7CFB0
S11304D081E00E94030489EF90E00197F1F700C0E6
S11304E000000E941D02892B19F40E940D0202C013
S11304F080E090E02A960FB6F894DEBF0FBECDBF21
S1130500DF91CF911F910F91FF90EF900895AF92DB
S1130510BF92CF92DF92EF92FF920F931F93CF93EC
S1130520DF93CDB7DEB72A970FB6F894DEBF0FBEC0
S1130530CDBF7C0182E60E94F10381E60E94F103B3
S113054082E60E94F103A82E81E60E94F10328E0CE
S1130550829FC0011124A694A694A694A694A6945E
S1130560A82A85E60E94F103B82E8823A9F08E01FB
S11305700D5F1F4F0F2EF6E6CF2EF02DC80E0F2E57
S1130580F6E6DF2EF02D8D2D0E94F103F801819304
S11305908F01D394DC10F7CF40E06FEF8CE20E9420
S11305A01304A982BA828AE0FE013196D701019030
S11305B00D928A95E1F7C7012A960FB6F894DEBF2B
S11305C00FBECDBFDF91CF911F910F91FF90EF90A0
S11305D0DF90CF90BF90AF900895BF92CF92DF92FB
S11305E0EF92FF920F931F93CF93DF93CDB7DEB7B4
S11305F064970FB6F894DEBF0FBECDBF98E09A8320
S1130600813039F4623081F00F2EFAE0DF2EF02DC4
S11306101EC0823071F4613089F06230A1F00F2E77
S1130620FAE0DF2EF02D13C00F2EFBE0DF2EF02DAD
S11306300EC00F2EFAE0DF2EF02D09C00F2EFEE0C3
S1130640DF2EF02D04C00F2EFFE0DF2EF02D0F2E35
S1130650F6E0EF2EF1E0FF2EF02DCE010B960E9476
S11306608702CB84BB8865E084E00E949503162F43
S113067067E086E00E94A7031B838E831F92CF92BC
S11306801F92DF92FF92EF920E94C90BD9820D2D27
S11306901A812B813C814D815E816F8178858985AA
S11306A09A850E94280283EC99E00197F1F700C033
S11306B000000F900F900F900F900F900F9091E00B
S11306C0C912CBCFEB2CF12C1F92BF922EE632E055
S11306D03F932F930E94C90BC7010E94A5080F9056
S11306E00F900F900F9064960FB6F894DEBF0FBE74
S11306F0CDBFDF91CF911F910F91FF90EF90DF90CD
S1130700CF90BF900895E199FECF90E09FBB8EBB40
S11307106DBBE29AE19A0895E199FECF90E09FBB08
S11307208EBBE09A8DB390E00895CF93DF93D82FDA
S1130730862F0E94DB01C82F8D2F0E94DB01282FFA
S11307406C2F70E0822F90E0DF91CF910895CF93CA
S1130750DF93D62F0E94DB01C82F8D2F0E94DB016F
S1130760282F6C2F70E0822F90E0DF91CF910895B5
S113077017BA0E94450A8FE190E00E944C0A0E9439
S1130780F5080E9439090E94D3010E94F00181E218
S113079091E00E94DD0B0E9439090E94C504EC011E
S11307A08EE291E00E94DD0BCE010E946907EC010C
S11307B0FBCFC4980895C49A0895CF93DF93C82FAC
S11307C0D62F0E94D90382E00E94A0098D2F0E9497
S11307D0A0098C2F0E94A0090E94DB03DF91CF9116
S11307E00895CF93C82F0E94D90383E00E94A009E3
S11307F08C2F0E94A0090E94A409C82F0E94DB0329
S11308008C2FCF910895CF93883018F4C82FC068E7
S113081001C0C0E80E94D9038C2F0E94A0090E9445
S1130820DB03CF9108951F93CF93DF93182FD62F17
S1130830C42F0E94D90385E00E94A009812F0E9441
S1130840A0098D2F0E94A0098C2F0E94A0090E944C
S1130850DB03DF91CF911F9108950E94D90380ECAF
S11308600E94A0090E94DB038EE00E94F103807EB7
S1130870803821F086E391E00E94DD0B08950E9408
S11308809B090E942D040895CF93DF93EC018BE123
S113089090E00E94570AFC01009741F480E591E042
S11308A00E94DD0B81E090E00E94DC0ED183C083C6
S11308B0108E178A128E118E148A138A168A158A3C
S11308C0108A1786128A118A1686DF91CF910895AD
S11308D0EF92FF920F931F93CF93DF93EC018B0161
S11308E07A018BE190E00E94570AFC01F182E082D8
S11308F0D08FC78B128E118E148A138A168A158A8A
S1130900108A1786128B018B82E08687FA8FE98F13
S11309108F8598890196988B8F87CF01DF91CF912E
S11309201F910F91FF90EF900895CF92DF92EF9275
S1130930FF920F931F93CF93DF93EC016B017A0126
S113094089018BE190E00E94570AFC018F89988D00
S1130950908F878B128E118ED48BC38BFE8BED8B75
S1130960D68AC58A118300838E858F5F8687108A15
S11309701786F28AE18ACF01DF91CF911F910F91FF
S1130980FF90EF90DF90CF9008952F923F924F9277
S11309905F926F927F928F929F92AF92BF92CF920B
S11309A0DF92EF92FF920F931F93CF93DF938BE627
S11309B091E00E9444046C0125E731E049EA59E0E2
S11309C060E070E080E090E00E949504EC018AE72A
S11309D091E09B838A8382E08E8720E831E040E0C7
S11309E050E0BE01CE010E9495048C014BE851E019
S11309F06CEA79E00E94680421E931E04CE25AE0B3
S1130A00BC010E9495042C0127E931E040E050E04C
S1130A10B801C8010E9495047C014FE951E060E0EF
S1130A2070E00E9468045C0145EA51E06DE27AE0FE
S1130A300E9468042CEA31E040E35AE0BC010E94C1
S1130A4095041C0125EB31E040E050E0B501C501FF
S1130A500E9495045C0140EC51E063E37AE00E945B
S1130A60680429EC31E046E35AE0BC010E94950495
S1130A704C0120ED31E049E35AE060E070E0C70149
S1130A800E9495043C01F701108E178A188E1F8A64
S1130A90F801108E178AFC01108E178A1E8B0D8B9D
S1130AA0F201168A158AF501168A158AF601D68B83
S1130AB0C58BF101168A158AF401168A158A86E017
S1130AC0F301868725E24CE160E0F60180819181A3
S1130AD00E946A0925E24CE162E0888199810E94C2
S1130AE06A0925E24CE163E0F801808191810E946A
S1130AF06A0925E24CE164E0F701808191810E945A
S1130B006A0925E24CE166E0F301808191810E944B
S1130B106A0928E040E062E083E20E944C091092F6
S1130B207502109274021092770210927602C60136
S1130B30DF91CF911F910F91FF90EF90DF90CF90B5
S1130B40BF90AF909F908F907F906F905F904F90E9
S1130B503F902F9008950F931F93CF93DF93EC0151
S1130B608B0189818F9388818F9385ED91E09F9389
S1130B708F930E94C90B0F900F900F900F90093C18
S1130B8011050CF4A6C08881998121E08038920770
S1130B9029F021E08739920709F046C08E85833019
S1130BA019F0843019F13CC025E24CE160E080E8A2
S1130BB091E00E946A0925E24CE162E08BE891E051
S1130BC00E946A0925E24CE163E081E991E00E9418
S1130BD06A0928E040E06E8580E20E944C0928E022
S1130BE040E062E083E20E944C091AC025E24CE135
S1130BF062E08FE991E00E946A0925E24CE163E03A
S1130C0085EB91E00E946A0928E040E06E8580E26D
S1130C100E944C0928E040E062E083E20E944C0913
S1130C20098CDA8DC02D41C121E08F39920721F062
S1130C30855B914009F04DC08E85823019F0833078
S1130C4019F143C025E24CE160E08FE991E00E9494
S1130C506A0925E24CE162E085EA91E00E946A09B2
S1130C6025E24CE163E08CEA91E00E946A0928E005
S1130C7040E06E8580E20E944C0928E040E062E09A
S1130C8083E20E944C0921C025E24CE160E085EB3F
S1130C9091E00E946A0925E24CE162E080EC91E077
S1130CA00E946A0925E24CE163E089EC91E00E942C
S1130CB06A0928E040E06E8580E20E944C0928E041
S1130CC040E062E083E20E944C09098CDA8DC02D79
S1130CD0ECC0023311050CF0E8C08881998121E051
S1130CE0853A920721F021E08C3A920759F50F8852
S1130CF0D88DC02D25E24CE160E087E991E00E94A7
S1130D006A0925E24CE162E08FE991E00E946A09F8
S1130D1025E24CE163E085EB91E00E946A0928E05A
S1130D2040E062E080E20E944C0928E040E063E099
S1130D3080E20E944C0928E040E06E8583E20E9434
S1130D404C09B3C021E0803C920721F021E0893CAA
S1130D50920759F50F88D88DC02D25E24CE160E04B
S1130D6087E991E00E946A0925E24CE162E08FE99B
S1130D7091E00E946A0925E24CE163E085EB91E091
S1130D800E946A0928E040E062E080E20E944C0987
S1130D9028E040E063E080E20E944C0928E040E063
S1130DA06E8583E20E944C0980C021E08F3992074E
S1130DB021F021E0853B9207C9F50F88D88DC02D1D
S1130DC025E24CE160E08BE691E00E946A0925E2AD
S1130DD04CE162E085E791E00E946A0925E24CE17A
S1130DE063E080E891E00E946A0925E24CE164E056
S1130DF087E991E00E946A0925E24CE166E080ED12
S1130E0091E00E946A0928E040E062E080E20E94EA
S1130E104C0928E040E063E080E20E944C0928E0AD
S1130E2040E06E8583E20E944C093FC021E08B388C
S1130E30920719F081599140C1F50F88D88DC02DC2
S1130E4025E24CE160E08BE691E00E946A0925E22C
S1130E504CE162E085E791E00E946A0925E24CE1F9
S1130E6063E080E891E00E946A0925E24CE164E0D5
S1130E7087E991E00E946A0925E24CE166E080ED91
S1130E8091E00E946A0928E040E062E080E20E946A
S1130E904C0928E040E063E080E20E944C0928E02D
S1130EA040E06E8583E20E944C0989818F9388819A
S1130EB08F9385EE91E09F938F930E94C90B0F90BF
S1130EC00F900F900F90CE01DF91CF911F910F9152
S1130ED008954F925F926F927F928F929F92AF92FA
S1130EE0BF92CF92DF92EF92FF920F931F93CF9313
S1130EF0DF93EC0165E084E00E9495036B017C01C3
S1130F00870165E084E00E9495032B013C015B01AD
S1130F1004311105B4F580917302811132C08D88BA
S1130F209E888114910469F181E08093730228E022
S1130F3040E06E8580E20E944C0928E040E0F40124
S1130F40668583E20E944C090D88DE89C02D898163
S1130F508F9388818F93F40186851F928F938E855A
S1130F601F928F9385EF91E09F938F930E94C90BFB
S1130F708DB79EB708960FB6F8949EBF0FBE8DBF6F
S1130F8040C00D3D1105B4F180917302811132C04E
S1130F900B891C890115110569F181E080937302A5
S1130FA028E040E06E8580E20E944C0928E040E0A1
S1130FB0F801668583E20E944C0989818F938881B8
S1130FC08F93F80186851F928F938E851F928F933E
S1130FD086E192E09F938F930E94C90B0B88DC8972
S1130FE0C02D8DB79EB708960FB6F8949EBF0FBE5E
S1130FF08DBF07C0C701895791094D9710F410920E
S1131000730294E1A916B10424F48F89988D892B75
S113101029F4E9ECAE16B1040CF47CC080917202A0
S1131020811178C081E0809372020E943909898D10
S11310309A8D892B09F068C06C857D85E989FA89C8
S11310408A859B85099528813981F1E0253A3F07F6
S113105021F041E02C3A340769F4EF89F88D0788D0
S1131060F08DE02D0388F489E02DC389D4899B8712
S11310708A8713C0E1E0203C3E0719F0295C314027
S113108061F4EF89F88D0788F08DE02D0388F489E9
S1131090E02DC389D4899D878C878B858F938A851E
S11310A08F9387E392E09F938F930E94C90B25E26D
S11310B04CE160E08BE691E00E946A0925E24CE194
S11310C062E081E492E00E946A0925E24CE163E077
S11310D08CE492E00E946A0925E24CE164E087E92D
S11310E091E00E946A0925E24CE166E080ED91E01E
S11310F00E946A0928E040E062E083E20E944C0911
S11311000F900F900F900F90B201CE010E94AB058B
S1131110EC0109C049E7441A51088DE1481651040D
S113112010F410927202CE01DF91CF911F910F91B2
S1131130FF90EF90DF90CF90BF90AF909F908F90F3
S11311407F906F905F904F9008958F929F92AF928F
S1131150BF92CF92DF92EF921F93CF93DF93A82E8B
S1131160E82EC1E0D0E0C12CB12C0F2EF8E58F2E73
S1131170F2E09F2EF02DDC2ECE010E948C03182F5E
S11311808F3F09F41B2D1E1560F41F921F939F922D
S11311908F920E94C90B0F900F900F900F90CD2C3F
S11311A0E12E2196C630D10531F7CC2099F0CC2D13
S11311B0D0E01F92CF9221E632E03F932F930E941A
S11311C0C90B6A2D70E0CE010E9483030F900F902B
S11311D00F900F90DF91CF911F91EF90DF90CF9000
S11311E0BF90AF909F908F900895E0E0F0E18EEA79
S11311F0808381EA80838AED808382E1808388EC26
S1131200808388EA80838FE3808385ED808380E810
S1131210808381E8808380E5808389ED808381E217
S1131220808380E2808382E080838BED808380E30F
S113123080838DEA8083108284EA808386EA8083B7
S11312408FEA808308958055E0E0F0E1808381E2B5
S1131250808310828FE7808380E021E29FE7A0E013
S1131260B2E12083808390831C928F5F8F37C9F70C
S11312700895CF93C0E08C2F0E942309CF5FC8301C
S1131280D1F7CF9108958055E0E0F0E1808381E2C9
S11312908083608340830895CF93C82F862F642F63
S11312A0422F0E944309EC2FF0E0EE0FFF1FEE0FD8
S11312B0FF1FEE0FFF1FE059F04080E090E0A0E038
S11312C0B2E124912C930196319688309105C9F7A7
S11312D0CF910895DF92EF92FF920F931F93CF93D4
S11312E0DF938C01E62EFC0180818823E1F0F42E4B
S11312F0C0E0D0E0D22ED41A2D2D2F0D8C3211F453
S1131300E3942196F801EC0FFD1F4F2D6E2D808183
S11313100E944C09F9E0FF0E2196F801EC0FFD1F25
S113132080818111E9CFDF91CF911F910F91FF90BF
S1131330EF90DF90089581EB87BB81E58DB9089527
S11313408FB9779BFECF089580E00E94A0098FB1EA
S113135008950E94ED020895CF92DF92EF92FF92DA
S11313600F931F93CF93DF9300D000D01F92CDB77C
S1131370DEB781E090E00E948C03898382E090E0F4
S11313800E948C038A8383E090E00E948C038B8309
S113139084E090E00E948C038C8385E090E00E94BE
S11313A08C038D8324E030E0AE014F5F5F4FE42E69
S11313B0F52E00E010E011C061910196708167176D
S11313C020F4DF0111977C93608382179307A4F3C1
S11313D0215031092115310539F0C42ED52EEE2DB9
S11313E0FF2D802F912FF1CFEC2CFD2C00E010E08D
S11313F00F2EFAE6CF2EF2E0DF2EF02DF7018191C9
S11314007F010F5F1F4F1F928F931F930F93DF92E4
S1131410CF920E94C90B0F900F900F900F900F90D6
S11314200F900630110551F765E084E00E949503A2
S1131430693271050CF0FFCF80E090E00F900F90BF
S11314400F900F900F90DF91CF911F910F91FF900C
S1131450EF90DF90CF900895089582E090E0089592
S113146081E090E0089582E090E0089581E090E0CA
S1131470089581E090E00E94DC0E5D9BFECF8CB964
S113148008955F9BFECF8CB1089585B7806885BFB2
S113149080B7806280BF089590BD89B988E18AB918
S11314A061E47AE08DE39AE00E947E0B0895CF9385
S11314B0DF938230910510F482E090E0E0917A02AB
S11314C0F0917B0220E030E0A0E0B0E0309739F109
S11314D04081518148175907B8F04817590771F4EA
S11314E082819381109729F013969C938E9312977F
S11314F02CC090937B0280937A0227C0211531057A
S113150031F04217530718F0A901DB0101C0EF01C4
S11315109A01BD01DF010280F381E02DD7CF2115AF
S11315203105F9F0281B390B2430310580F48A8108
S11315309B816115710521F0FB019383828304C0B3
S113154090937B0280937A02FE01329644C0FE019E
S1131550E20FF31F81939193225031093983288339
S11315603AC02091780230917902232B41F42091E2
S11315700201309103013093790220937802209183
S11315800001309101012115310541F42DB73EB719
S11315904091040150910501241B350BE091780220
S11315A0F0917902E217F307A0F42E1B3F0B2817E2
S11315B0390778F0AC014E5F5F4F2417350748F0C8
S11315C04E0F5F1F50937902409378028193919359
S11315D002C0E0E0F0E0CF01DF91CF910895CF9316
S11315E0DF93009709F487C0FC01329713821282BB
S11315F0C0917A02D0917B02209781F420813181BD
S1131600280F391F809178029091790282179307ED
S113161079F5F0937902E09378026DC0DE0120E061
S113162030E0AE17BF0750F412964D915C911397BA
S11316309D014115510509F1DA01F3CFB383A2836A
S113164040815181840F951F8A179B0771F48D91F6
S11316509C911197840F951F029691838083129613
S11316608D919C911397938382832115310529F4DD
S1131670F0937B02E0937A023EC0D9011396FC9367
S1131680EE9312974D915D91A40FB51FEA17FB07D6
S113169079F480819181840F951F0296D901119666
S11316A09C938E938281938113969C938E9312972D
S11316B0E0E0F0E08A819B81009719F0FE01EC01E3
S11316C0F9CFCE01029628813981820F931F209190
S11316D07802309179022817390769F4309729F490
S11316E010927B0210927A0202C013821282D0936B
S11316F07902C0937802DF91CF9108950F931F93DD
S1131700CF93DF93EC018B01009731F461157105E0
S113171019F480E090E038C06EE070E081E090E081
S11317200E94DC0DFC010097A1F380E8838301157E
S1131730110571F01387028781E8838380917C020D
S113174090917D02892B21F4F0937D02E0937C0239
S11317502097C9F0D187C087838182608383809179
S11317607E0290917F02892B71F4F0937F02E093C3
S11317707E028091800290918102892B21F4F09362
S11317808102E0938002CF01DF91CF911F910F91ED
S11317900895A0E0B0E0EFECFBE00C94B50EFE0180
S11317A0359661917191AF0180917E0290917F0293
S11317B00E940A0CE2E00C94D10E0F931F93CF9376
S11317C0DF93E0917E02F0917F02238121FF1BC011
S11317D0EC0100E010E0899160917E0270917F023B
S11317E0DB011896ED91FC911997882331F0099546
S11317F0892B89F30FEF1FEFEECF8AE00995892B30
S113180011F4C80102C08FEF9FEFDF91CF911F91B8
S11318100F910895ACE0B0E0E0E1FCE00C94A50E7B
S11318207C016B018A01FC0117821682838181FF8E
S1131830BDC1CE0101964C01F7019381F60193FDE0
S1131840859193FF81916F01882309F4ABC185329F
S113185039F493FD859193FF81916F01853229F4C9
S1131860B70190E00E94150EE7CF512C312C20E0F7
S11318702032A0F48B3269F030F4803259F0833294
S113188069F420612CC08D3239F0803339F4216041
S113189026C02260246023C0286021C027FD27C001
S11318A030ED380F3A3078F426FF06C0FAE05F9E38
S11318B0300D1124532E13C08AE0389E300D1124AC
S11318C0332E20620CC08E3221F426FD6BC12064BD
S11318D006C08C3611F4206802C0883641F4F60143
S11318E093FD859193FF81916F018111C1CF982F51
S11318F09F7D9554933028F40C5F1F4FFFE3F983C9
S11319000DC0833631F0833771F0833509F05BC045
S113191022C0F801808189830E5F1F4F44244394C1
S1131920512C540115C03801F2E06F0E711CF801FE
S1131930A080B18026FF03C0652D70E002C06FEF68
S11319407FEFC5012C870E940A0E2C0183012C8590
S11319502F77222E17C03801F2E06F0E711CF801A8
S1131960A080B18026FF03C0652D70E002C06FEF38
S11319707FEFC5012C870E94F80D2C012C8520686F
S1131980222E830123FC1BC0832D90E048165906A8
S1131990B0F4B70180E290E00E94150E3A94F4CFBF
S11319A0F50127FC859127FE81915F01B70190E045
S11319B00E94150E31103A94F1E04F1A5108411467
S11319C0510471F7E5C0843611F0893639F5F80110
S11319D027FF07C060817181828193810C5F1F4F53
S11319E008C060817181882777FD8095982F0E5FEC
S11319F01F4F2F76B22E97FF09C090958095709552
S1131A0061957F4F8F4F9F4F2068B22E2AE030E0C0
S1131A10A4010E94470EA82EA81844C0853729F4B3
S1131A202F7EB22E2AE030E025C0F22FF97FBF2EA0
S1131A308F36C1F018F4883579F0B4C0803719F0C6
S1131A40883721F0AFC02F2F2061B22EB4FE0DC015
S1131A508B2D8460B82E09C024FF0AC09F2F966086
S1131A60B92E06C028E030E005C020E130E002C015
S1131A7020E132E0F801B7FE07C060817181828104
S1131A8093810C5F1F4F06C06081718180E090E0FC
S1131A900E5F1F4FA4010E94470EA82EA818FB2D0D
S1131AA0FF77BF2EB6FE0BC02B2D2E7FA51450F44E
S1131AB0B4FE0AC0B2FC08C02B2D2E7E05C07A2CC1
S1131AC02B2D03C07A2C01C0752C24FF0DC0FE0100
S1131AD0EA0DF11D8081803311F4297E09C022FFB3
S1131AE006C07394739404C0822F867809F07394AB
S1131AF023FD13C020FF06C05A2C731418F4530C92
S1131B005718732C731468F4B70180E290E02C87A3
S1131B100E94150E73942C85F5CF731410F43718A6
S1131B2001C0312C24FF12C0B70180E390E02C8760
S1131B300E94150E2C8522FF17C021FF03C088E5E3
S1131B4090E002C088E790E0B7010CC0822F86784D
S1131B5059F021FD02C080E201C08BE227FD8DE235
S1131B60B70190E00E94150EA51438F4B70180E384
S1131B7090E00E94150E5A94F7CFAA94F401EA0D4E
S1131B80F11D8081B70190E00E94150EA110F5CFE0
S1131B90332009F451CEB70180E290E00E94150E83
S1131BA03A94F6CFF7018681978102C08FEF9FEFB9
S1131BB02C96E2E10C94C10E0F931F93CF93DF9305
S1131BC0869F8001879F100D969F100D1124C801D8
S1131BD00E94570AEC01009729F0A80160E070E028
S1131BE00E94030ECE01DF91CF911F910F910895B2
S1131BF0FC010590615070400110D8F780959095D4
S1131C008E0F9F1F0895DC0101C06D934150504019
S1131C10E0F70895FC016150704001900110D8F77D
S1131C20809590958E0F9F1F08950F931F93CF93C8
S1131C30DF93182F092FEB018B8181FD03C08FEFF8
S1131C409FEF20C082FF10C04E815F812C813D81B7
S1131C50421753077CF4E881F9819F012F5F3F4FBE
S1131C6039832883108306C0E885F985812F099577
S1131C70892B29F72E813F812F5F3F4F3F832E838E
S1131C80812F902FDF91CF911F910F910895FA0129
S1131C90AA27283051F1203181F1E8946F936E7FA7
S1131CA06E5F7F4F8F4F9F4FAF4FB1E03ED0B4E098
S1131CB03CD0670F781F891F9A1FA11D680F791FD9
S1131CC08A1F911DA11D6A0F711D811D911DA11DEA
S1131CD020D009F468943F912AE0269F11243019FA
S1131CE0305D3193DEF6CF010895462F4770405D95
S1131CF04193B3E00FD0C9F7F6CF462F4F70405D44
S1131D004A3318F0495D31FD4052419302D0A9F79E
S1131D10EACFB4E0A6959795879577956795BA9598
S1131D20C9F700976105710508959B01AC010A2E5E
S1131D3006945795479537952795BA95C9F7620F35
S1131D40731F841F951FA01D08952F923F924F92D9
S1131D505F926F927F928F929F92AF92BF92CF9237
S1131D60DF92EF92FF920F931F93CF93DF93CDB740
S1131D70DEB7CA1BDB0B0FB6F894DEBF0FBECDBFB8
S1131D8009942A88398848885F846E847D848C8489
S1131D909B84AA84B984C884DF80EE80FD800C8192
S1131DA01B81AA81B981CE0FD11D0FB6F894DEBF75
S10F1DB00FBECDBFED010895F894FFCFE5
S1131DBC0000820220007472616E732069643A2000
S1131DCC2564207265632069643A20256420200A06
S1131DDC00496E697420657220676F6F64007265C8
S1131DEC7365746564004E6F7420696E20636F6E46
S1131DFC6669672061667465722072657365740028
S1131E0C43616E7420636F6E74696E75652C206DFE
S1131E1C656D6F72792066756C6C004D61696E200E
S1131E2C4D656E7500506C617900477265656E0086
S1131E3C4869676873636F726573005072696E7476
S1131E4C005265736574004F7074696F6E73004D46
S1131E5C6F64657300476F616C69650053757276C6
S1131E6C6976616C00436F6E74726F6C6C65720092
S1131E7C4A6F79737469636B00536C69646572009F
S1131E8C457869740066F8722E7465787420202085
S1131E9C2025730A0065747465722E746578742039
S1131EAC2573200A00554E4445520909636D3A20A6
S1131EBC25642C20686173687461673A2025640971
S1131ECC2025730A20004F5645523A0909636D3A8E
S1131EDC2025642C20686173687461673A2025643A
S1131EEC092025730A20004D6F64653A2025690A80
S1131EFC0053746172742067616D6500486967688A
S1131F0C2053636F726573006D696E3A2025780AED
S1131F1C004164723A2025780A0025690920256459
S1051F2C0A00A5
S9030000FC
