S00C00004C6162312E73726563D8
S11300000C94B4010C94D1010C94D1010C94D10141
S11300100C94D1010C94D1010C94D1010C94D10114
S11300200C94D1010C94D1010C94D1010C94D10104
S11300300C94D1010C94D1010C94D1010C94D101F4
S11300400C94D1010C94D1010C94D1010C94D101E4
S11300500C94D1010C94D1010C94D1010C94D101D4
S11300600C94D1010C94D1010C94D1010C94D101C4
S1130070000000000000000000065F5F06000000B2
S11300800007070007070000147F7F147F7F140018
S1130090242E6B6B3A120000466630180C66620020
S11300A0307A4F5D377A48000407030000000000EF
S11300B0001C3E63410000000041633E1C00000040
S11300C0082A3E1C1C3E2A0808083E3E0808000078
S11300D000A0E0600000000008080808080800000C
S11300E000006060000000006030180C060301008E
S11300F03E7F594D7F3E000042427F7F40400000DA
S1130100627359496F660000226349497F360000D3
S1130110181C16137F7F1000276745457D390000A2
S11301203C7E4B4979300000036371190F070000CE
S1130130367F49497F360000064F49693F1E00005B
S113014000006C6C0000000000A0EC6C00000000DB
S1130150081C366341000000141414141414000025
S1130160004163361C080000020351590F060000C9
S11301703E7F415D5D1F1E007C7E13137E7C00006C
S1130180417F7F49497F36001C3E63414163220021
S1130190417F7F41637F1C00417F7F495D41630054
S11301A0417F7F491D0103001C3E6341517372006E
S11301B07F7F08087F7F000000417F7F41000000AF
S11301C0307040417F3F0100417F7F081C7763000E
S11301D0417F7F41406070007F7F060C067F7F0077
S11301E07F7F060C187F7F001C3E6341633E1C002A
S11301F0417F7F49090F06001E3F21717F5E000089
S1130200417F7F19396F460026674D597B320000C4
S113021003417F7F410300007F7F40407F7F0000D8
S11302201F3F60603F1F00007F7F3018307F7F00DA
S113023063771C081C776300074F78784F0700002A
S11302406773594D47637100007F7F41410000008F
S11302500103060C183060000041417F7F0000005C
S1130260080C0603060C0800808080808080808053
S11302700000030704000000207454543C7840003C
S1130280413F7F44447C3800387C44446C2800005F
S1130290307848493F7F4000387C54545C18000053
S11302A0487E7F490302000098BCA4A4F87C0400A3
S11302B0417F7F08047C780000447D7D400000007D
S11302C040C484FD7D000000417F7F10386C4400F1
S11302D000417F7F400000007C7C0C180C7C78007F
S11302E07C7C04047C780000387C44447C38000026
S11302F084FCF8A4243C1800183C24A4F8FC8400D2
S1130300447C78441C180000485C54547424000055
S113031000043E7F442400003C7C40403C7C400080
S11303201C3C60603C1C00003C7C6030607C3C00F9
S1130330446C3810386C44009CBCA0A0FC7C0000C9
S11303404C64745C4C64000008083E774141000032
S113035000000077770000004141773E0808000064
S1130360020301030203010011241FBECFEFD4E0F6
S1130370DEBFCDBF12E0A0E0B1E0E0E5F3E102C0F2
S113038005900D92A233B107D9F722E0A2E3B2E0BF
S113039001C01D92A936B207E1F70E941F020C9416
S11303A0A6090C94000085B7806885BF80B7806279
S11303B080BF30980895CF93DF931F92CDB7DEB7F7
S11303C08093001492E49A95F1F700C0E82FF0E0CE
S11303D0FC5E8081898389810F90DF91CF9108959C
S11303E00E9482024FEF64E680E60E94510240E0E0
S11303F060EE8FE00E94510241E061E08BE20E94D6
S1130400510241E064E08BE20E9451028EE00E94BE
S11304103D028FE00E943D020895CF93DF93D82FD1
S1130420862F0E94DB01C82F8D2F0E94DB01282F0D
S11304306C2F70E0822F90E0DF91CF91089517BA6E
S11304400E940F058FE190E00E9416050E9444046B
S11304500E947E040E94D3010E94F0010E94E503E1
S11304600E94310486E091E00E9480050E9472039C
S1130470FDCFC4980895C49A0895CF93C82F0E94BD
S1130480390283E090E00E94FE048C2F90E00E94E9
S1130490FE040E940205C82F0E943B028C2FCF91BC
S11304A008951F93CF93DF93182FD62FC42F0E9444
S11304B0390285E090E00E94FE04812F90E00E94C2
S11304C0FE048D2F90E00E94FE048C2F90E00E9489
S11304D0FE040E943B02DF91CF911F9108950E9478
S11304E0390280EC90E00E94FE040E943B028EE000
S11304F00E943D02807E803821F083E191E00E94D9
S1130500800508950E94F9040E946F0208951F93C4
S1130510CF93DF93EC01162F853091057CF500977E
S113052069F1662309F48DC0FC01EE0FFF1FEE0F85
S1130530FF1FE55BFD4F28E040E0638183E20E94FA
S11305409504FE01EE0FFF1FEE0FFF1FE95BFD4F49
S113055028E040E0638180E20E949504DF93CF931A
S11305608DE291E09F938F930E946C050F900F9002
S11305700F900F90219609F060C049C01123C1F07B
S113058028E040E060914E0283E20E949504FE015F
S1130590EE0FFF1FEE0FFF1FE95BFD4F28E040E069
S11305A0638180E20E9495041092480210924702EF
S11305B0DF93CF938DE291E09F938F930E946C051C
S11305C00F900F900F900F90C530D10504F5CF3FD9
S11305D08FEFD807E1F0111130C0FE01EE0FFF1FBD
S11305E0EE0FFF1FE55BFD4F28E040E0638183E2EF
S11305F00E949504CC0FDD1FCC0FDD1FC15BDD4FC6
S113060028E040E06B8180E20E94950416C011113D
S113061014C028E040E060915E0283E20E949504E9
S113062028E040E060914E0280E20E94950488E058
S113063090E0909348028093470281E080934902BE
S11306400DC0DF93CF938DE291E09F938F930E942F
S11306506C050F900F900F900F90B9CFDF91CF9151
S11306601F91089584309105B1F02CF4009749F05E
S1130670029761F01FC08630910591F00897A9F0A8
S113068019C085E391E00E94B30418C083E591E0AA
S11306900E94B30413C081E791E00E94B3040EC02A
S11306A08FE891E00E94B30409C08DEA91E00E94B2
S11306B0B30404C08BEC91E00E94800581E0809338
S11306C04A020E947E048AED91E00E94800528E09F
S11306D040E062E083E20E94950410924802109286
S11306E047020895CF92DF92EF92FF920F931F93E8
S11306F0CF93DF9365E084E00E940D026B017C01DF
S1130700E70165E084E00E940D028B01C431D1054C
S1130710C4F480914902811114C081E0809346029F
S1130720E7E4F2E0208131812E5F3F4F3183208363
S1130730C90199230CF4019661E0959587950E946F
S11307408702C73ED105C4F080914902811114C0CB
S113075010924602E7E4F2E020813181225031090F
S113076031832083C90199230CF4019660E09595A7
S113077087950E9487020AC0C70185569109C197CF
S113078028F480914902811110924902093C110513
S11307905CF080914A02811107C0809147029091D8
S11307A048020E94320308C0043B11052CF48091D6
S11307B04A02811110924A02DF91CF911F910F9149
S11307C0FF90EF90DF90CF9008958FED91E090939C
S11307D04C0280934B028CEE91E0909350028093F4
S11307E04F0283EF91E090935402809353028AEF77
S11307F091E0909358028093570281E092E09093A5
S11308005C0280935B0284EE91E0909333028093C8
S113081032028BEE91E0909337028093360282EF9E
S113082091E090933B0280933A0289EF91E0909398
S11308303F0280933E0280E092E0909343028093D3
S1130840420280E090E022E0FC01E55BFD4F23835F
S1130850FC01EE5CFD4F23832F5F04962730A1F744
S1130860089587E092E00E94B30428E040E062E04B
S113087083E20E949504109248021092470210925B
S1130880490210924A020895E0E0F0E18EEA808382
S113089081EA80838AED808382E1808388EC80838F
S11308A088EA80838FE3808385ED808380E880837A
S11308B081E8808380E5808389ED808381E2808381
S11308C080E2808382E080838BED808380E3808379
S11308D08DEA8083108284EA808386EA80838FEAAB
S11308E08083089580558093001080E890E0E0E0D4
S11308F0F2E1108201970097E1F70895CF93DF9317
S1130900C0E0D0E0CE010E9472042196C830D10527
S1130910C9F7DF91CF9108958055E0E0F0E180833D
S113092081E28083608340830895CF93C82F862F0C
S1130930642F422F0E948C04EC2FF0E0EE0FFF1F77
S1130940EE0FFF1FEE0FFF1FE059F04080E090E034
S1130950A0E0B2E124912C93019631968830910560
S1130960C9F7CF910895BF92CF92DF92EF92FF9291
S11309700F931F93CF93DF938C01FC018081882315
S113098071F1C0E0D0E06894DD24D1F80F2EF1E1DC
S1130990EF2EF02D0F2EF9E0FF2EF02D0F2EF1E1AA
S11309A0BF2EF02D0F2EF9E0CF2EF02D8C3221F436
S11309B0D3942196EB2CFC2CF801EC0FFD1F2E2D6B
S11309C04F2D6D2D80810E949504F9E0FF0EEF0EEE
S11309D02196F801EC0FFD1F80818111E7CFDF9193
S11309E0CF911F910F91FF90EF90DF90CF90BF9028
S11309F0089581EB87BB81E58DB908958FB9779B05
S1130A00FECF089580E00E94FE048FB108955D9B9F
S1130A10FECF8CB908955F9BFECF8CB1089585B746
S1130A20806885BF80B7806280BF089590BD89B912
S1130A3088E18AB96BE075E087E095E00E942105C2
S1130A4008950F931F93CF93DF93EC018B010097CD
S1130A5031F46115710519F480E090E038C06EE05E
S1130A6070E081E090E00E947F07FC010097A1F311
S1130A7080E883830115110571F01387028781E8EB
S1130A80838380915F0290916002892B21F4F0931B
S1130A906002E0935F022097C9F0D187C087838109
S1130AA0826083838091610290916202892B71F448
S1130AB0F0936202E0936102809163029091640278
S1130AC0892B21F4F0936402E0936302CF01DF9158
S1130AD0CF911F910F910895A0E0B0E0E2E7F5E017
S1130AE00C947F09FE01359661917191AF0180915B
S1130AF06102909162020E94AD05E2E00C949B09B0
S1130B000F931F93CF93DF93E0916102F091620200
S1130B10238121FF1BC0EC0100E010E0899160916A
S1130B20610270916202DB011896ED91FC911997B4
S1130B30882331F00995892B89F30FEF1FEFEECF4E
S1130B408AE00995892B11F4C80102C08FEF9FEF49
S1130B50DF91CF911F910F910895ACE0B0E0E3EBEA
S1130B60F5E00C946F097C016B018A01FC0117828A
S1130B701682838181FFBDC1CE0101964C01F7012C
S1130B809381F60193FD859193FF81916F018823F1
S1130B9009F4ABC1853239F493FD859193FF8191BA
S1130BA06F01853229F4B70190E00E94DF08E7CF96
S1130BB0512C312C20E02032A0F48B3269F030F437
S1130BC0803259F0833269F420612CC08D3239F0BF
S1130BD0803339F4216026C02260246023C0286059
S1130BE021C027FD27C030ED380F3A3078F426FFB6
S1130BF006C0FAE05F9E300D1124532E13C08AE024
S1130C00389E300D1124332E20620CC08E3221F414
S1130C1026FD6BC1206406C08C3611F4206802C026
S1130C20883641F4F60193FD859193FF81916F011C
S1130C308111C1CF982F9F7D9554933028F40C5F78
S1130C401F4FFFE3F9830DC0833631F0833771F012
S1130C50833509F05BC022C0F801808189830E5F6F
S1130C601F4F44244394512C540115C03801F2E021
S1130C706F0E711CF801A080B18026FF03C0652DA2
S1130C8070E002C06FEF7FEFC5012C870E94D4088B
S1130C902C0183012C852F77222E17C03801F2E016
S1130CA06F0E711CF801A080B18026FF03C0652D72
S1130CB070E002C06FEF7FEFC5012C870E94C2086D
S1130CC02C012C852068222E830123FC1BC0832D3C
S1130CD090E048165906B0F4B70180E290E00E9413
S1130CE0DF083A94F4CFF50127FC859127FE819122
S1130CF05F01B70190E00E94DF0831103A94F1E0FF
S1130D004F1A51084114510471F7E5C0843611F0AB
S1130D10893639F5F80127FF07C060817181828126
S1130D2093810C5F1F4F08C060817181882777FD14
S1130D308095982F0E5F1F4F2F76B22E97FF09C014
S1130D4090958095709561957F4F8F4F9F4F206848
S1130D50B22E2AE030E0A4010E941109A82EA8189E
S1130D6044C0853729F42F7EB22E2AE030E025C016
S1130D70F22FF97FBF2E8F36C1F018F4883579F041
S1130D80B4C0803719F0883721F0AFC02F2F20610D
S1130D90B22EB4FE0DC08B2D8460B82E09C024FF82
S1130DA00AC09F2F9660B92E06C028E030E005C027
S1130DB020E130E002C020E132E0F801B7FE07C0D4
S1130DC060817181828193810C5F1F4F06C06081B5
S1130DD0718180E090E00E5F1F4FA4010E94110911
S1130DE0A82EA818FB2DFF77BF2EB6FE0BC02B2D07
S1130DF02E7FA51450F4B4FE0AC0B2FC08C02B2DFB
S1130E002E7E05C07A2C2B2D03C07A2C01C0752CA4
S1130E1024FF0DC0FE01EA0DF11D8081803311F421
S1130E20297E09C022FF06C07394739404C0822FE4
S1130E30867809F0739423FD13C020FF06C05A2C52
S1130E40731418F4530C5718732C731468F4B70103
S1130E5080E290E02C870E94DF0873942C85F5CF04
S1130E60731410F4371801C0312C24FF12C0B701D9
S1130E7080E390E02C870E94DF082C8522FF17C0B6
S1130E8021FF03C088E590E002C088E790E0B70145
S1130E900CC0822F867859F021FD02C080E201C087
S1130EA08BE227FD8DE2B70190E00E94DF08A514D4
S1130EB038F4B70180E390E00E94DF085A94F7CF3A
S1130EC0AA94F401EA0DF11D8081B70190E00E941B
S1130ED0DF08A110F5CF332009F451CEB70180E229
S1130EE090E00E94DF083A94F6CFF701868197815B
S1130EF002C08FEF9FEF2C96E2E10C948B090F93C5
S1130F001F93CF93DF93869F8001879F100D969F39
S1130F10100D1124C8010E949B07EC01009729F0D1
S1130F20A80160E070E00E94CD08CE01DF91CF916E
S1130F301F910F910895CF93DF938230910510F4A0
S1130F4082E090E0E0916702F091680220E030E0F6
S1130F50A0E0B0E0309739F140815181481759073A
S1130F60B8F04817590771F482819381109729F0DA
S1130F7013969C938E9312972CC09093680280933F
S1130F80670227C02115310531F04217530718F0C5
S1130F90A901DB0101C0EF019A01BD01DF0102805B
S1130FA0F381E02DD7CF21153105F9F0281B390B3A
S1130FB02430310580F48A819B816115710521F00B
S1130FC0FB019383828304C0909368028093670239
S1130FD0FE01329644C0FE01E20FF31F8193919308
S1130FE022503109398328833AC020916502309117
S1130FF06602232B41F420910201309103013093C6
S113100066022093650220910001309101012115AF
S1131010310541F42DB73EB74091040150910501CB
S1131020241B350BE0916502F0916602E217F30789
S1131030A0F42E1B3F0B2817390778F0AC014E5F44
S11310405F4F2417350748F04E0F5F1F5093660219
S1131050409365028193919302C0E0E0F0E0CF01F8
S1131060DF91CF910895CF93DF93009709F487C060
S1131070FC01329713821282C0916702D0916802F8
S1131080209781F420813181280F391F80916502D6
S1131090909166028217930779F5F0936602E093C4
S11310A065026DC0DE0120E030E0AE17BF0750F4EA
S11310B012964D915C9113979D014115510509F1CB
S11310C0DA01F3CFB383A28340815181840F951F4A
S11310D08A179B0771F48D919C911197840F951F2A
S11310E002969183808312968D919C91139793839A
S11310F082832115310529F4F0936802E093670295
S11311003EC0D9011396FC93EE9312974D915D91D5
S1131110A40FB51FEA17FB0779F480819181840F2E
S1131120951F0296D90111969C938E938281938187
S113113013969C938E931297E0E0F0E08A819B8152
S1131140009719F0FE01EC01F9CFCE010296288137
S11311503981820F931F209165023091660228170E
S1131160390769F4309729F41092680210926702E3
S113117002C013821282D0936602C0936502DF918B
S1131180CF910895FC010590615070400110D8F78B
S1131190809590958E0F9F1F0895DC0101C06D937B
S11311A041505040E0F70895FC01615070400190B7
S11311B00110D8F7809590958E0F9F1F08950F9377
S11311C01F93CF93DF93182F092FEB018B8181FDA0
S11311D003C08FEF9FEF20C082FF10C04E815F815C
S11311E02C813D81421753077CF4E881F9819F01EA
S11311F02F5F3F4F39832883108306C0E885F98524
S1131200812F0995892B29F72E813F812F5F3F4F2D
S11312103F832E83812F902FDF91CF911F910F91C8
S11312200895FA01AA27283051F1203181F1E89478
S11312306F936E7F6E5F7F4F8F4F9F4FAF4FB1E0C5
S11312403ED0B4E03CD0670F781F891F9A1FA11DC0
S1131250680F791F8A1F911DA11D6A0F711D811DC1
S1131260911DA11D20D009F468943F912AE0269F86
S113127011243019305D3193DEF6CF010895462FE5
S11312804770405D4193B3E00FD0C9F7F6CF462FC6
S11312904F70405D4A3318F0495D31FD405241932F
S11312A002D0A9F7EACFB4E0A695979587957795EC
S11312B06795BA95C9F700976105710508959B0173
S11312C0AC010A2E06945795479537952795BA95FC
S11312D0C9F7620F731F841F951FA01D08952F92D5
S11312E03F924F925F926F927F928F929F92AF92B2
S11312F0BF92CF92DF92EF92FF920F931F93CF93FF
S1131300DF93CDB7DEB7CA1BDB0B0FB6F894DEBF95
S11313100FBECDBF09942A88398848885F846E84BB
S11313207D848C849B84AA84B984C884DF80EE8005
S1131330FD800C811B81AA81B981CE0FD11D0FB60E
S1131340F894DEBF0FBECDBFED010895F894FFCF32
S1131350000069022000496E697420657220676F7D
S11313606F64004E6F7420696E20636F6E666967E8
S1131370206166746572207265736574006E3A202C
S11313802569200A0073756231312C73756231321C
S11313902C73756231332C73756231342C7375621E
S11313A031350073756232312C73756232322C73AD
S11313B0756232332C73756232342C737562323534
S11313C00073756233312C73756233322C7375621A
S11313D033332C73756233342C7375623335007375
S11313E0756234312C73756234322C737562343304
S11313F02C73756234342C737562343500737562E2
S113140035312C73756235322C73756235332C7318
S1131410756235342C737562353500496E76616CAE
S11314206964206F7074696F6E00686D6D6D006122
S1131430696E31004D61696E3120004D61696E3213
S113144020004D61696E3320004D61696E342000C7
S11314504D61696E352000506C61792C4469666673
S11314606963756C74792C4869676873636F726516
S1131470732C6E65787420706167652C4578697487
S1051480000066
S9030000FC
