:1000000071C0000047C100008DC000008BC000001F
:1000100089C0000087C0000085C0000083C00000C8
:1000200081C000007FC000007DC000007BC00000D8
:1000300079C0000077C0000075C0000073C00000E8
:1000400071C000006FC000006DC000006BC00000F8
:1000500069C000004CC1000065C0000063C0000022
:1000600061C000005FC000005DC000005BC0000018
:1000700059C0000057C0000055C0000053C0000028
:1000800051C000004FC000004DC000004BC0000038
:1000900049C0000047C0000045C0000043C0000048
:1000A00041C000003FC000003DC000003BC0000058
:1000B00039C0000037C0000035C0000033C0000068
:1000C00031C000002FC000002DC000002BC0000078
:1000D00029C0000027C0000025C0000023C0000088
:1000E00021C0000011241FBECFEFD1E2DEBFCDBF83
:1000F00000E00CBF12E0A0E0B2E0EEECF2E100E0C4
:100100000BBF02C007900D92A635B107D9F722E0C8
:10011000A6E5B2E001C01D92A336B207E1F79DD17A
:100120000C9465096DCFECE7F0E08081806C8083F2
:100130008081807E8083EAE7F0E080818068808330
:1001400080818460808380818260808380818160FF
:10015000808380818860808380980895EAE7F0E05A
:100160008081806480838091560290915702892B10
:1001700039F4809178002091790090E0922B0895D5
:100180000895EED14FEF64E680E6C4D140E060EE22
:100190008FE0C0D141E061E08BE2BCD141E064E09E
:1001A0008BE2B8D18EE0A7D1807E19F086E092E094
:1001B00083D48FE0A0C1089540E061E08CE2AAD131
:1001C00081E0809358020895AF92BF92CF92DF9260
:1001D000EF92FF920F931F93CF93DF93CDB7DEB7CC
:1001E0002A970FB6F894DEBF0FBECDBF7C0182E622
:1001F00082D181E680D18CE27ED180FF2DC082E663
:100200007AD1A82E81E677D128E0829FC0011124FF
:10021000A694A694A694A694A694A82A85E66BD143
:10022000B82E8823A1F08E010D5F1F4F0F2EF6E62A
:10023000CF2EF02DC80E0F2EF6E6DF2EF02D8D2DD1
:100240005AD1F80181938F01D394DC10F8CF40E0AC
:100250006FEF8CE25FD102C0AA24AA94A982BA826D
:100260008AE0FE013196D70101900D928A95E1F75F
:10027000C7012A960FB6F894DEBF0FBECDBFDF913F
:10028000CF911F910F91FF90EF90DF90CF90BF9093
:10029000AF9008951F920F920FB60F9211240BB6D4
:1002A0000F922F933F934F935F936F937F938F930F
:1002B0009F93AF93BF93EF93FF9383EC99E00197E4
:1002C000F1F700C0000078DFFF91EF91BF91AF918F
:1002D0009F918F917F916F915F914F913F912F915E
:1002E0000F900BBE0F900FBE0F901F9018951F928E
:1002F0000F920FB60F9211240F900FBE0F901F9008
:100300001895CF92DF92EF92FF920F931F93CF93A6
:10031000DF936C01009799F07C01C0E0D0E000E031
:1003200010E01CDF080F191F81EE94E00197F1F730
:1003300000C000002196CE15DF0599F702C000E04D
:1003400010E0B601660F771FC80147D3D62FC72F1D
:100350007F936F932CE132E03F932F939CD30F90C8
:100360000F900F900F908D2F9C2FDF91CF911F91A9
:100370000F91FF90EF90DF90CF900895AF92BF92D2
:10038000CF92DF92EF92FF920F931F93CF93DF9361
:100390006C015B01009769F07C01C0E0D0E000E0F7
:1003A00010E0DCDE080F191F2196CE15DF05C9F716
:1003B00002C000E010E0C801B6010FD381E090E078
:1003C0006A157B0510F080E090E0DF91CF911F91DE
:1003D0000F91FF90EF90DF90CF90BF90AF90089576
:1003E000AF92BF92CF92DF92EF92FF920F931F9343
:1003F000CF93DF935C016A017B018A01E701BC01B5
:100400008AE090E0BBDF892B89F0C130D10571F41F
:100410000F5F1F4F2FE38DE093E02150804090400D
:10042000E1F700C00000C0E0D0E00AC0B5018AE0FA
:1004300090E0A4DF892B21F4209711F4C1E0D0E0F3
:10044000B801CE01DF91CF911F910F91FF90EF90F6
:10045000DF90CF90BF90AF900895CF93DF93CDB74B
:10046000DEB72A970FB6F894DEBF0FBECDBF882443
:100470008394912C87E690E0F5D055DE14B881DEA8
:1004800080D08AE090E03DDF5C014DDE00E010E0CE
:100490000F2EFAE2CF2EF2E0DF2EF02DCE010196E4
:1004A00093DE89818F3F19F08B8190E0B4D0980161
:1004B000402F532F682D792DC50192DF882E992E5C
:1004C000262F372F79010E151F0549F07F936F9363
:1004D000DF92CF92E0D20F900F900F900F9087EAAB
:1004E00091E60197F1F700C000008701D7CF2F9860
:1004F00008952F9A0895CF93C82FF9DF83E090E0F5
:1005000037D08C2F90E034D038D0C82FF2DF8C2F2A
:10051000CF9108951F93CF93DF93182FD62FC42F19
:10052000E6DF85E090E024D0812F90E021D08D2F70
:1005300090E01ED08C2F90E01BD0DBDFDF91CF91BD
:100540001F910895D4DF80EC90E012D0D2DF8EE0CE
:10055000D2DF807E803819F08BE392E0ADC208953F
:1005600002D0F0CF089587E884B981E58CBD089565
:100570008EBD0DB407FEFDCF089580E0F9DF8EB586
:100580000895A0E8B0E08C9180628C93269AE1E80F
:10059000F0E08081826080838C9182608C93808186
:1005A0008860808380818061808388EB9BE090936A
:1005B0008B0080938A008FE39CE99093870080935F
:1005C0008600EFE6F0E08081826080830895CF921C
:1005D000DF92EF92FF926B017C0120E030E04AEF66
:1005E00054E494D1882384F020E030E24AE755E4D3
:1005F000C701B601A9D018163CF0C701B601A8D0B2
:1006000070938B0060938A0080E090E0FF90EF9001
:10061000DF90CF900895682F70E080E090E0C6D022
:1006200023E333E34BEF50E475D120E030E04AEFB1
:1006300054E426D0CCDFBC01882777FD8095982F25
:10064000B5C00895E0ECF0E0908195FFFDCF809378
:10065000C6000895E0ECF0E080818823ECF78091FB
:10066000C60008959093C5008093C40088E18093EC
:10067000C1006AE273E082E293E0C3C1089550587A
:10068000BB27AA270ED008C1F9D030F0FED020F049
:1006900031F49F3F11F41EF4EEC00EF4E095E7FB39
:1006A000E4C0E92F0AD180F3BA1762077307840701
:1006B000950718F071F49EF522C10EF4E0950B2E0B
:1006C000BA2FA02D0B01B90190010C01CA01A001A4
:1006D0001124FF27591B99F0593F50F4503E68F1FF
:1006E0001A16F040A22F232F342F4427585FF3CF40
:1006F000469537952795A795F0405395C9F77EF411
:100700001F16BA0B620B730B840BBAF09150A1F059
:10071000FF0FBB1F661F771F881FC2F70EC0BA0FDF
:10072000621F731F841F48F4879577956795B79567
:10073000F7959E3F08F0B3CF9395880F08F099275F
:10074000EE0F9795879508956CD008F481E0089591
:10075000BCD088F09F5790F0B92F9927B751A0F0DF
:10076000D1F0660F771F881F991F1AF0BA95C9F745
:1007700012C0B13081F0C3D0B1E00895C0C0672F7E
:10078000782F8827B85F39F0B93FCCF386957795F5
:100790006795B395D9F73EF49095809570956195DE
:1007A0007F4F8F4F9F4F0895E89409C097FB3EF409
:1007B00090958095709561957F4F8F4F9F4F9923AE
:1007C000A9F0F92F96E9BB279395F695879577952C
:1007D0006795B795F111F8CFFAF4BB0F11F460FFEC
:1007E0001BC06F5F7F4F8F4F9F4F16C0882311F044
:1007F00096E911C0772321F09EE8872F762F05C058
:10080000662371F096E8862F70E060E02AF09A95F2
:10081000660F771F881FDAF7880F9695879597F9E7
:100820000895990F0008550FAA0BE0E8FEEF161681
:100830001706E807F907C0F012161306E407F507D4
:1008400098F0621B730B840B950B39F40A2661F048
:10085000232B242B252B21F408950A2609F4A140EB
:10086000A6958FEF811D811D089597F99F6780E8F8
:1008700070E060E008959FEF80EC089500240A94F2
:100880001616170618060906089500240A9412166B
:100890001306140605060895092E0394000C11F49E
:1008A000882352F0BB0F40F4BF2B11F460FF04C04B
:1008B0006F5F7F4F8F4F9F4F089557FD9058440FA4
:1008C000551F59F05F3F71F04795880F97FB991FAF
:1008D00061F09F3F79F0879508951216130614066C
:1008E000551FF2CF4695F1DF08C0161617061806F9
:1008F000991FF1CF86957105610508940895E894D4
:10090000BB2766277727CB0197F908958ADF08F47C
:100910008FEF08950BD0C0CFB1DF28F0B6DF18F00D
:10092000952309F0A2CFA7CF1124EACFC6DFA0F309
:10093000959FD1F3950F50E0551F629FF001729F74
:10094000BB27F00DB11D639FAA27F00DB11DAA1F93
:10095000649F6627B00DA11D661F829F2227B00DE0
:10096000A11D621F739FB00DA11D621F839FA00D6B
:10097000611D221F749F3327A00D611D231F849FBB
:10098000600D211D822F762F6A2F11249F57504012
:100990008AF0E1F088234AF0EE0FFF1FBB1F661FAD
:1009A000771F881F91505040A9F79E3F510570F066
:1009B0005CCFA6CF5F3FECF3983EDCF3869577954E
:1009C0006795B795F795E7959F5FC1F7FE2B880F61
:1009D000911D9695879597F90895AA1BBB1B51E128
:1009E00007C0AA1FBB1FA617B70710F0A61BB70B9F
:1009F000881F991F5A95A9F780959095BC01CD0144
:100A000008950F931F93CF93DF93EC018B01009711
:100A100031F46115710519F480E090E037C06EE0A3
:100A200070E081E090E063D2FC010097A9F380E8D8
:100A300083830115110571F01387028781E8838391
:100A40008091590290915A02892B21F4F0935A0215
:100A5000E09359022097C9F0D187C08783818260D3
:100A6000838380915B0290915C02892B71F4F093F7
:100A70005C02E0935B0280915D0290915E02892BA3
:100A800021F4F0935E02E0935D02CF01DF91CF91FC
:100A90001F910F910895CF93DF93CDB7DEB7FE017D
:100AA000369661917191AF0180915B0290915C02E9
:100AB00030D0DF91CF9108950F931F93CF93DF93A1
:100AC000E0915B02F0915C02238121FF1BC0EC01ED
:100AD00000E010E0899160915B0270915C02DB01A3
:100AE0001896ED91FC911997882331F01995892B6F
:100AF00089F30FEF1FEFEECF8AE01995892B11F4E0
:100B0000C80102C08FEF9FEFDF91CF911F910F912E
:100B100008952F923F924F925F926F927F928F92A1
:100B20009F92AF92BF92CF92DF92EF92FF920F937C
:100B30001F93CF93DF93CDB7DEB72C970FB6F89402
:100B4000DEBF0FBECDBF7C016B018A01FC011782A5
:100B50001682838181FFB0C1CE0101964C01F7015D
:100B60009381F60193FD859193FF81916F01882315
:100B700009F49EC1853239F493FD859193FF8191EB
:100B80006F01853221F4B70190E00FD3E8CF512CEB
:100B9000312C20E02032A0F48B3269F030F4803226
:100BA00059F0833269F420612CC08D3239F08033E2
:100BB00039F4216026C02260246023C0286021C04F
:100BC00027FD27C030ED380F3A3078F426FF06C0F5
:100BD000FAE05F9E300D1124532E13C08AE0389E38
:100BE000300D1124332E20620CC08E3221F426FDEC
:100BF0005FC1206406C08C3611F4206802C08836BC
:100C000041F4F60193FD859193FF81916F0181116C
:100C1000C1CF982F9F7D9554933028F40C5F1F4FC0
:100C2000FFE3F9830DC0833631F0833771F08335EC
:100C300009F057C021C0F801808189830E5F1F4FE2
:100C400044244394512C540114C03801F2E06F0E37
:100C5000711CF801A080B18026FF03C0652D70E0F3
:100C600002C06FEF7FEFC5012C8794D22C01830166
:100C70002C852F77222E16C03801F2E06F0E711CE2
:100C8000F801A080B18026FF03C0652D70E002C08E
:100C90006FEF7FEFC5012C876BD22C012C8520686C
:100CA000222E830123FC19C0832D90E0481659069B
:100CB000A0F4B70180E290E078D23A94F5CFF50144
:100CC00027FC859127FE81915F01B70190E06DD2ED
:100CD00031103A94F1E04F1A51084114510479F758
:100CE000DEC0843611F0893631F5F80127FF07C0E0
:100CF00060817181828193810C5F1F4F08C0608188
:100D00007181882777FD8095982F0E5F1F4F2F7672
:100D1000B22E97FF09C090958095709561957F4F91
:100D20008F4F9F4F2068B22E2AE030E0A4016FD28F
:100D3000A82EA81843C0853729F42F7EB22E2AE0AA
:100D400030E025C0F22FF97FBF2E8F36C1F018F4A6
:100D5000883579F0ADC0803719F0883721F0A8C008
:100D60002F2F2061B22EB4FE0DC08B2D8460B82EC3
:100D700009C024FF0AC09F2F9660B92E06C028E044
:100D800030E005C020E130E002C020E132E0F801AF
:100D9000B7FE07C060817181828193810C5F1F4F14
:100DA00006C06081718180E090E00E5F1F4FA4015A
:100DB0002ED2A82EA818FB2DFF77BF2EB6FE0BC093
:100DC0002B2D2E7FA51450F4B4FE0AC0B2FC08C02F
:100DD0002B2D2E7E05C07A2C2B2D03C07A2C01C022
:100DE000752C24FF0DC0FE01EA0DF11D80818033BA
:100DF00011F4297E09C022FF06C07394739404C0C5
:100E0000822F867809F0739423FD12C020FF06C05C
:100E10005A2C731418F4530C5718732C731460F471
:100E2000B70180E290E02C87C0D173942C85F6CF77
:100E3000731410F4371801C0312C24FF11C0B7010E
:100E400080E390E02C87B1D12C8522FF16C021FFD2
:100E500003C088E590E002C088E790E0B7010CC0CD
:100E6000822F867851F021FD02C080E201C08BE222
:100E700027FD8DE2B70190E098D1A51430F4B701B9
:100E800080E390E092D15A94F8CFAA94F401EA0D4D
:100E9000F11D8081B70190E088D1A110F6CF3320F9
:100EA00009F45DCEB70180E290E07FD13A94F7CFAC
:100EB000F7018681978102C08FEF9FEF2C960FB6C6
:100EC000F894DEBF0FBECDBFDF91CF911F910F9180
:100ED000FF90EF90DF90CF90BF90AF909F908F905A
:100EE0007F906F905F904F903F902F9008950F9359
:100EF0001F93CF93DF93869F8001879F100D969F4E
:100F0000100D1124C8010DD0EC01009721F0A801AB
:100F100060E070E038D1CE01DF91CF911F910F9149
:100F20000895CF93DF938230910510F482E090E032
:100F3000E0916102F091620220E030E0A0E0B0E0D8
:100F4000309739F14081518148175907B8F0481757
:100F5000590771F482819381109729F013969C931D
:100F60008E9312972CC0909362028093610227C0E7
:100F70002115310531F04217530718F0A901DB01A3
:100F800001C0EF019A01BD01DF010280F381E02D74
:100F9000D7CF21153105F9F0281B390B2430310545
:100FA00080F48A819B816115710521F0FB01938397
:100FB000828304C09093620280936102FE013296A4
:100FC00044C0FE01E20FF31F819391932250310937
:100FD000398328833AC020915F0230916002232B2D
:100FE00041F4209102023091030230936002209379
:100FF0005F0220910002309101022115310541F478
:101000002DB73EB74091040250910502241B350BC9
:10101000E0915F02F0916002E217F307A0F42E1B4B
:101020003F0B2817390778F0AC014E5F5F4F24174C
:10103000350748F04E0F5F1F5093600240935F02E8
:101040008193919302C0E0E0F0E0CF01DF91CF9176
:101050000895CF93DF93009709F487C0FC0132977E
:1010600013821282C0916102D0916202209781F4B2
:1010700020813181280F391F80915F029091600299
:101080008217930779F5F0936002E0935F026DC0D9
:10109000DE0120E030E0AE17BF0750F412964D910C
:1010A0005C9113979D014115510509F1DA01F3CFC8
:1010B000B383A28340815181840F951F8A179B07B8
:1010C00071F48D919C911197840F951F02969183D5
:1010D000808312968D919C9113979383828321151F
:1010E000310529F4F0936202E09361023EC0D90118
:1010F0001396FC93EE9312974D915D91A40FB51F3B
:10110000EA17FB0779F480819181840F951F02967D
:10111000D90111969C938E938281938113969C930F
:101120008E931297E0E0F0E08A819B81009719F09E
:10113000FE01EC01F9CFCE01029628813981820FA0
:10114000931F20915F02309160022817390769F4DC
:10115000309729F4109262021092610202C0138249
:101160001282D0936002C0935F02DF91CF91089505
:10117000FC010590615070400110D8F78095909562
:101180008E0F9F1F0895DC0101C06D9341505040A8
:10119000E0F70895FC016150704001900110D8F70C
:1011A000809590958E0F9F1F08950F931F93CF9357
:1011B000DF93182F092FEB018B8181FD03C08FEF87
:1011C0009FEF20C082FF10C04E815F812C813D8146
:1011D000421753077CF4E881F9819F012F5F3F4F4D
:1011E00039832883108306C0E885F985812F1995F6
:1011F000892B29F72E813F812F5F3F4F3F832E831D
:10120000812F902FDF91CF911F910F910895FA01B7
:10121000AA27283051F1203181F1E8946F936E7F35
:101220006E5F7F4F8F4F9F4FAF4FB1E03ED0B4E026
:101230003CD0670F781F891F9A1FA11D680F791F67
:101240008A1F911DA11D6A0F711D811D911DA11D78
:1012500020D009F468943F912AE0269F1124301988
:10126000305D3193DEF6CF010895462F4770405D23
:101270004193B3E00FD0C9F7F6CF462F4F70405DD2
:101280004A3318F0495D31FD4052419302D0A9F72D
:10129000EACFB4E0A6959795879577956795BA9527
:1012A000C9F700976105710508959B01AC010A2EED
:1012B00006945795479537952795BA95C9F7620FC4
:0E12C000731F841F951FA01D0895F894FFCF83
:1012CE000000630220004E4F5420696E206C6F6F39
:1012DE00706261636B206D6F64652100747265735B
:1012EE00686F6C64202578200A0044696E65207052
:1012FE006F656E673A202569200A004E6F7420696B
:10130E006E20636F6E666967206166746572207207
:06131E0065736574000018
:00000001FF
