:10000000C2C00000E0C00000DEC00000DCC0000094
:10001000DAC00000D8C00000D6C00000D4C0000084
:10002000D2C00000D0C00000CEC00000CCC0000094
:10003000CAC00000C8C00000C6C00000C4C00000A4
:10004000C2C00000C0C00000BEC00000BCC00000B4
:10005000BAC00000B8C00000B6C00000B4C00000C4
:10006000B2C00000B0C00000AEC00000ACC00000D4
:10007000AAC00000A8C00000A6C00000A4C00000E4
:10008000A2C00000A0C000009EC000009CC00000F4
:100090009AC0000098C0000096C00000EFC50000A4
:1000A00092C0000090C000008EC000008CC0000014
:1000B0008AC0000088C0000086C0000084C0000024
:1000C00082C0000080C000007EC000007CC0000034
:1000D0007AC0000078C0000076C0000074C0000044
:1000E00072C000005906AB06AB06AB06AB06AB060A
:1000F000AB06AB065906AB06AB06AB06AB06AB06CA
:10010000AB06AB065B06AB06AB06AB06AB06AB06B7
:10011000AB06AB06AB06AB06AB06AB06AB06AB0657
:10012000AB06AB065B06AB06AB06AB06AB06AB0697
:10013000AB06AB06AB06AB06AB06AB06AB06AB0637
:10014000AB06AB06A706AB06AB06AB06AB06AB062B
:10015000AB06AB068406AB06AB06AB06AB06AB063E
:10016000AB06AB06AB06AB06AB06AB06AB06AB0607
:10017000AB06AB067806AB06AB06AB06AB06AB062A
:10018000AB06AB06960611241FBECFEFD1E2DEBF51
:10019000CDBF00E00CBF12E0A0E0B2E0E8E4FAE17D
:1001A00000E00BBF02C007900D92A638B107D9F747
:1001B00022E0A6E8B2E001C01D92A83AB207E1F73A
:1001C00011D20C94220D1CCF009719F0019749F021
:1001D0000895ECE7F0E08081807E8083799A7898BA
:1001E0000895ECE7F0E08081817E808380818160EA
:1001F0008083789A79980895ECE7F0E08081806CAC
:1002000080838081807E8083EAE7F0E0808180685F
:10021000808380818460808380818260808380810C
:100220008160808380980895EAE7F0E080818064AF
:10023000808380E18A95F1F700C0109287021092C6
:100240008602809178002091790090E0922B0895A9
:10025000E1E2F1E080818260808380818860808338
:1002600080E49FE190939B0080939A000895F2D2DE
:100270004FEF64E680E6C8D240E060EE8FE0C4D283
:1002800041E061E08BE2C0D241E064E08BE2BCD2AD
:100290008EE09DD2807E19F087E092E0CAD78FE091
:1002A00096C2089580E393D284FD05C085FF06C001
:1002B0008EEF9FEF08958FEF9FEF089581E090E01C
:1002C000089580E384D286958695869591E0892766
:1002D000817090E00895EF92FF920F931F93CF9358
:1002E000DF93CDB7DEB72A970FB6F894DEBF0FBE07
:1002F000CDBF0983E12E1A832B833C834D835E831C
:100300006F83788789879A87DCDF892B41F161E3E6
:10031000802F86958695869548D262E3802F8295B8
:10032000880F807E42D265E3812F8F703ED21123E9
:1003300089F08E010D5F1F4F86E3E80E0F2EF6E366
:10034000FF2EF02D6F2DF80181918F012ED2F394A5
:10035000FE10F8CF81E04AD280E090E00AC08BE145
:1003600092E067D79FDF990F990B892F992787FD17
:1003700090952A960FB6F894DEBF0FBECDBFDF91E1
:10038000CF911F910F91FF90EF900895AF92BF9280
:10039000CF92DF92EF92FF920F931F93CF93DF9351
:1003A000CDB7DEB72A970FB6F894DEBF0FBECDBF2C
:1003B0007C0182E60CD281E60AD28CE208D2882344
:1003C00049F182E604D2A82E81E601D228E0829F7C
:1003D000C0011124A694A694A694A694A694A82A33
:1003E00085E6F5D1B82E8823D1F08E010D5F1F4F21
:1003F0000F2EF6E6CF2EF02DC80E0F2EF6E6DF2ECE
:10040000F02D8D2DE4D1F80181938F01D394DC1070
:10041000F8CF05C08CE292E00CD7AA24AA9440E061
:100420006FEF8CE2F1D1A982BA828AE0FE013196A7
:10043000D70101900D928A95E1F7C7012A960FB670
:10044000F894DEBF0FBECDBFDF91CF911F910F910A
:10045000FF90EF90DF90CF90BF90AF900895CF9333
:10046000DF9300D0CDB7DEB790E599831A828B83F6
:1004700080E18A95F1F700C063E0CE010196DCD3FC
:100480000F900F900F90DF91CF910895CF92DF9250
:10049000EF92FF920F931F93CF93DF936C0100971E
:1004A00099F07C01C0E0D0E000E010E0BDDE080F74
:1004B000191F83EC99E00197F1F700C00000219625
:1004C000CE15DF0599F702C000E010E0B601660F17
:1004D000771FC80126D6D62FC72F7F936F9321E4AD
:1004E00032E03F932F9394D60F900F900F900F9080
:1004F0008D2F9C2FDF91CF911F910F91FF90EF9047
:10050000DF90CF900895AF92BF92CF92DF92EF929B
:10051000FF920F931F93CF93DF936C015B010097C2
:1005200069F07C01C0E0D0E000E010E07DDE080F63
:10053000191F2196CE15DF05C9F702C000E010E0B3
:10054000C801B601EED581E090E06A157B0510F098
:1005500080E090E0DF91CF911F910F91FF90EF909D
:10056000DF90CF90BF90AF900895AF92BF92CF929F
:10057000DF92EF92FF920F931F93CF93DF935C0173
:100580006A017B018A01E701BC018AE090E0BBDFE0
:10059000892B89F0C130D10571F40F5F1F4F2FE314
:1005A0008DE093E0215080409040E1F700C00000D2
:1005B000C0E0D0E00AC0B5018AE090E0A4DF892B5A
:1005C00021F4209711F4C1E0D0E0B801CE01DF9111
:1005D000CF911F910F91FF90EF90DF90CF90BF9040
:1005E000AF900895CF93DF93CDB7DEB763970FB683
:1005F000F894DEBF0FBECDBF789487E690E0D1D3EC
:10060000FBDD35DEAED2F8DD28D10CD39ED120DE65
:100610008FE492E00ED68AE090E038DF9F878E87E5
:1006200021E02A8B1B8AC12CD12C7601E3946BD15B
:100630007CD1998B888B412C512C612C1D86A12C4F
:10064000B12C1C861B86212C312CC29B20C0CE01D4
:1006500001969CDE99807B808E80C501B5DD81E0AE
:10066000AB2809F080E0A82EB12C8B859C850196E3
:100670009C878B870A9729F49FEF291A390A1B86D2
:100680001C86A4E9B0E011961C921E92C29AB1E0B9
:100690009B1609F47AC0EBE09E16B9F0E91520F03C
:1006A000FAE09F1641F03FC02EE09216A1F08FE0D5
:1006B000981639F138C0872D90E09DD268897989E4
:1006C000882D52D1622C3D862EC0682D872D03D2F5
:1006D000622C3D8628C0872D90E08DD2688979896B
:1006E000882D42D1A114B10409F5462D5D856A8992
:1006F0007B898E859F8539DF8A8B9B8B662E7D87D4
:100700001EC0682D872DE7D1A114B10479F4462DC0
:100710005D856A897B898E859F8527DF8A8B9B8B88
:10072000662E7D870CC0A114B10449F06201B701A7
:10073000A6018E859F8519DF6B017C012B011414A6
:100740001504A4F46A869D859F936F92A0E6B2E09B
:10075000BF93AF935DD529860F900F900F900F90A8
:1007600099249394412C512C212C312C99827B82F9
:100770008E82092D1A81272D3C814D81582D6F8144
:10078000788589859A85A7DD02C0612C1D86FFEFDB
:1007900021EE84E0F15020408040E1F700C00000ED
:1007A00054CF2F9808952F9A0895CF93DF93C82F91
:1007B000D62FF7DF82E090E0CBD18D2F90E0C8D12B
:1007C0008C2F90E0C5D1EFDFDF91CF910895CF93CB
:1007D000C82FE7DF83E090E0BBD18C2F90E0B8D149
:1007E000BCD1C82FE0DF8C2FCF910895CF938830F4
:1007F00018F4C82FC06801C0C0E8D3DF8C2F90E088
:10080000A7D1D1DFCF9108951F93CF93DF93182FF6
:10081000D62FC42FC6DF85E090E09AD1812F90E0DB
:1008200097D18D2F90E094D18C2F90E091D1BBDFA8
:10083000DF91CF911F910895B4DF80EC90E088D1D3
:10084000B2DF8EE0C4DF807E803819F08BE692E064
:10085000F0C4089578D1F0CF0895109207018FEF7A
:10086000809301011AB8509A519AE2E0F1E0808138
:1008700080618083808180648083808180648083C4
:1008800080818D7F80830895E2E0F1E080818F7D1B
:1008900080838081877F80838FE891E00197F1F7E3
:1008A00000C000008091060190E0982F88272081E9
:1008B00028602083EFE8F1E03197F1F700C00000F5
:1008C00020910601822BE2E0F1E020812064208368
:1008D00020812062208322273327281B390B12F422
:1008E00080E090E09195819591090895E2E0F1E032
:1008F00080818F7B80838AE68A95F1F700C08081B2
:10090000806480830895E2E0F1E080818D7F8083C0
:1009100085E5A5DD2FEF87EA91E6215080409040E4
:10092000E1F700C00000E2CF0895E2E0F1E080814D
:10093000826080832FEF83ED90E3215080409040D0
:10094000E1F700C00000A0CF0895E1E9F0E0808168
:100950008260808380818860808380E29EE49093BF
:100960009B0080939A0008954F925F926F927F92BE
:100970008F929F92AF92BF92CF92DF92EF92FF92AF
:100980000F931F93CF93DF93E82EEB017DDF9C0144
:10099000CE016FEF70E0D9D3C901D7D3EB014B0182
:1009A0007093980260939702F12CF0929602E09275
:1009B00095028701061B170B10939A020093990268
:1009C000A0908C02B0908D02A00EB11EB0928D024C
:1009D000A0928C0280918A0290918B026B01C81ABE
:1009E000D90AD0928902C0928802B801882777FD7F
:1009F0008095982F7FD226E636E646E65FE32ED333
:100A00002B013C01B501882777FD8095982F72D284
:100A10002AE939E949E15EE321D39B01AC01C30135
:100A2000B201CDD12B013C01B601882777FD80951D
:100A3000982F60D22FE832EC45E75DE30FD39B019E
:100A4000AC01C301B201BBD122D270939C0260936E
:100A50009B029B01772324F422273327261B370B85
:100A600020939D02D0938B02C0938A020A5F1F4F8E
:100A70000D30110558F410929D0210929A021092B6
:100A8000990210928D0210928C020EC08E149F0457
:100A900034F4E2E0F1E080818260808305C0E2E02E
:100AA000F1E080818D7F808380919D02992787FD71
:100AB0009095D5DCDF91CF911F910F91FF90EF9032
:100AC000DF90CF90BF90AF909F908F907F906F906E
:100AD0005F904F900895CF93C82F862F8CD0CA383F
:100AE000A8F06C2F70E069587109882777FD809510
:100AF000982F00D220E030E040E35FE3AFD2CCD1CA
:100B0000E2E0F1E080818260808318C0CF37A8F4F2
:100B10006FE770E06C1B7109882777FD8095982F2F
:100B2000E9D120E030E040E35FE398D2B5D1E2E0E4
:100B3000F1E080818D7F808301C060E0862F90E0AE
:100B40008EDCCF91089587E884B981E58CBD089546
:100B50008EBD0DB407FEFDCF089580E0F9DF8EB5A0
:100B60000895A0E8B0E08C9180628C93269AE1E829
:100B7000F0E08081826080838C9182608C938081A0
:100B80008860808380818061808388EB9BE0909384
:100B90008B0080938A008FE39CE990938700809379
:100BA00086000895CF92DF92EF92FF926B017C0155
:100BB00020E030E04AEF54E44DD28823ACF020E04E
:100BC00030E24AE755E4C701B6015DD1181664F07A
:100BD000A701960160E078E88BEB95E4EFD05CD15B
:100BE00070938B0060938A0080E090E0FF90EF901C
:100BF000DF90CF900895682F70E080E090E07AD188
:100C000023E333E34BEF50E429D220E030E04AEF16
:100C100054E4D5D0C7DFBC01882777FD8095982F95
:100C200069C108958CE08093B8008FEF8093BB007A
:100C300084E08093BC000895ECEBF0E0208120FD7F
:100C4000FDCF60939002FC0120812093910220FD52
:100C50000CC0623050F0DC011196E2E9F2E081E074
:100C60009D9191938F5F8613FBCF10928F0288EF37
:100C70008093060285EA8093BC0008951F920F922C
:100C80000FB60F9211240BB60F922F933F938F93B1
:100C90009F93AF93BF93EF93FF938091B90090E040
:100CA000FC013897E135F10508F055C0EE58FF4FCB
:100CB0005FC210928E02E0918E0280919002E8173E
:100CC00070F481E08E0F80938E02F0E0EF56FD4FBE
:100CD00080818093BB0085E88093BC0043C08091F5
:100CE0008F02816080938F0284E98093BC003AC0B8
:100CF000E0918E0281E08E0F80938E028091BB0086
:100D0000F0E0EF56FD4F808320918E0230E080911D
:100D1000900290E001972817390724F485EC80931E
:100D2000BC0020C085E88093BC001CC08091BB0043
:100D3000E0918E02F0E0EF56FD4F808380918F02AC
:100D4000816080938F0284E98093BC000BC085EAA8
:100D50008093BC0007C08091B9008093060284E0B4
:100D60008093BC00FF91EF91BF91AF919F918F91C4
:100D70003F912F910F900BBE0F900FBE0F901F90C1
:100D80001895E0ECF0E0908195FFFDCF8093C600D0
:100D90000895E0ECF0E080818823ECF78091C600B4
:100DA00008959093C5008093C40088E18093C100AA
:100DB00069EC76E081EC96E0E1C108955058BB27DC
:100DC000AA270ED00DC1FED030F003D120F031F4AF
:100DD0009F3F11F41EF4F3C00EF4E095E7FBE9C069
:100DE000E92F0FD180F3BA176207730784079507BD
:100DF00018F071F49EF527C10EF4E0950B2EBA2F72
:100E0000A02D0B01B90190010C01CA01A001112410
:100E1000FF27591B99F0593F50F4503E68F11A16BC
:100E2000F040A22F232F342F4427585FF3CF46954D
:100E300037952795A795F0405395C9F77EF41F166F
:100E4000BA0B620B730B840BBAF09150A1F0FF0F39
:100E5000BB1F661F771F881FC2F70EC0BA0F621F25
:100E6000731F841F48F4879577956795B795F79515
:100E70009E3F08F0B3CF9395880F08F09927EE0FA7
:100E800097958795089571D008F481E0089504D06E
:100E90006894B111D9C00895BCD088F09F5790F0E4
:100EA000B92F9927B751A0F0D1F0660F771F881F8F
:100EB000991F1AF0BA95C9F712C0B13081F0C3D0AA
:100EC000B1E00895C0C0672F782F8827B85F39F048
:100ED000B93FCCF3869577956795B395D9F73EF4EE
:100EE00090958095709561957F4F8F4F9F4F089596
:100EF000E89409C097FB3EF49095809570956195B4
:100F00007F4F8F4F9F4F9923A9F0F92F96E9BB2769
:100F10009395F695879577956795B795F111F8CFE5
:100F2000FAF4BB0F11F460FF1BC06F5F7F4F8F4F50
:100F30009F4F16C0882311F096E911C0772321F046
:100F40009EE8872F762F05C0662371F096E8862FDE
:100F500070E060E02AF09A95660F771F881FDAF735
:100F6000880F9695879597F90895990F0008550F62
:100F7000AA0BE0E8FEEF16161706E807F907C0F01F
:100F800012161306E407F50798F0621B730B840B27
:100F9000950B39F40A2661F0232B242B252B21F401
:100FA00008950A2609F4A140A6958FEF811D811DA1
:100FB000089597F99F6780E870E060E008959FEFDB
:100FC00080EC089500240A941616170618060906E0
:100FD000089500240A9412161306140605060895AF
:100FE000092E0394000C11F4882352F0BB0F40F437
:100FF000BF2B11F460FF04C06F5F7F4F8F4F9F4F77
:10100000089557FD9058440F551F59F05F3F71F0F8
:101010004795880F97FB991F61F09F3F79F087955F
:101020000895121613061406551FF2CF4695F1DFE8
:1010300008C0161617061806991FF1CF8695710578
:10104000610508940895E894BB2766277727CB01AC
:1010500097F908958ADF08F48FEF08950BD0C0CF79
:10106000B1DF28F0B6DF18F0952309F0A2CFA7CFA3
:101070001124EACFC6DFA0F3959FD1F3950F50E07E
:10108000551F629FF001729FBB27F00DB11D639F3A
:10109000AA27F00DB11DAA1F649F6627B00DA11DE0
:1010A000661F829F2227B00DA11D621F739FB00D86
:1010B000A11D621F839FA00D611D221F749F3327F6
:1010C000A00D611D231F849F600D211D822F762F8F
:1010D0006A2F11249F5750408AF0E1F088234AF08C
:1010E000EE0FFF1FBB1F661F771F881F91505040D8
:1010F000A9F79E3F510570F05CCFA6CF5F3FECF3A0
:10110000983EDCF3869577956795B795F795E795C3
:101110009F5FC1F7FE2B880F911D9695879597F9D4
:101120000895AA1BBB1B51E107C0AA1FBB1FA6172E
:10113000B70710F0A61BB70B881F991F5A95A9F780
:1011400080959095BC01CD01089597FB072E16F46C
:10115000009406D077FD08D0E4DF07FC05D03EF40C
:10116000909581959F4F0895709561957F4F089553
:10117000EE0FFF1F0590F491E02D19940F931F932C
:10118000CF93DF93EC018B01009731F4611571056A
:1011900019F480E090E037C06EE070E081E090E00C
:1011A00063D2FC010097A9F380E883830115110540
:1011B00071F01387028781E8838380919E0290916A
:1011C0009F02892B21F4F0939F02E0939E022097C7
:1011D000C9F0D187C0878381826083838091A00218
:1011E0009091A102892B71F4F093A102E093A002E7
:1011F0008091A2029091A302892B21F4F093A30283
:10120000E093A202CF01DF91CF911F910F9108953A
:10121000CF93DF93CDB7DEB7FE0136966191719122
:10122000AF018091A0029091A10230D0DF91CF91C7
:1012300008950F931F93CF93DF93E091A002F09155
:10124000A102238121FF1BC0EC0100E010E0899185
:101250006091A0027091A102DB011896ED91FC91C2
:101260001997882331F01995892B89F30FEF1FEF18
:10127000EECF8AE01995892B11F4C80102C08FEFD7
:101280009FEFDF91CF911F910F9108952F923F9281
:101290004F925F926F927F928F929F92AF92BF9286
:1012A000CF92DF92EF92FF920F931F93CF93DF9332
:1012B000CDB7DEB72C970FB6F894DEBF0FBECDBF0B
:1012C0007C016B018A01FC0117821682838181FFF8
:1012D000B0C1CE0101964C01F7019381F60193FD57
:1012E000859193FF81916F01882309F49EC1853216
:1012F00039F493FD859193FF81916F01853221F43B
:10130000B70190E00FD3E8CF512C312C20E02032F0
:10131000A0F48B3269F030F4803259F0833269F4F2
:1013200020612CC08D3239F0803339F4216026C021
:101330002260246023C0286021C027FD27C030ED33
:10134000380F3A3078F426FF06C0FAE05F9E300D81
:101350001124532E13C08AE0389E300D1124332EF1
:1013600020620CC08E3221F426FD5FC1206406C0CD
:101370008C3611F4206802C0883641F4F60193FDE2
:10138000859193FF81916F018111C1CF982F9F7D2E
:101390009554933028F40C5F1F4FFFE3F9830DC081
:1013A000833631F0833771F0833509F057C021C09F
:1013B000F801808189830E5F1F4F44244394512C90
:1013C000540114C03801F2E06F0E711CF801A080C6
:1013D000B18026FF03C0652D70E002C06FEF7FEF84
:1013E000C5012C8794D22C0183012C852F77222EC6
:1013F00016C03801F2E06F0E711CF801A080B180B8
:1014000026FF03C0652D70E002C06FEF7FEFC501BE
:101410002C876BD22C012C852068222E830123FC83
:1014200019C0832D90E048165906A0F4B70180E258
:1014300090E078D23A94F5CFF50127FC859127FE0C
:1014400081915F01B70190E06DD231103A94F1E0E3
:101450004F1A51084114510479F7DEC0843611F057
:10146000893631F5F80127FF07C0608171818281DB
:1014700093810C5F1F4F08C060817181882777FDC1
:101480008095982F0E5F1F4F2F76B22E97FF09C0C1
:1014900090958095709561957F4F8F4F9F4F2068F5
:1014A000B22E2AE030E0A4016FD2A82EA81843C0C3
:1014B000853729F42F7EB22E2AE030E025C0F22FA6
:1014C000F97FBF2E8F36C1F018F4883579F0ADC0A2
:1014D000803719F0883721F0A8C02F2F2061B22E55
:1014E000B4FE0DC08B2D8460B82E09C024FF0AC045
:1014F0009F2F9660B92E06C028E030E005C020E19D
:1015000030E002C020E132E0F801B7FE07C06081A0
:101510007181828193810C5F1F4F06C06081718150
:1015200080E090E00E5F1F4FA4012ED2A82EA818D5
:10153000FB2DFF77BF2EB6FE0BC02B2D2E7FA514E3
:1015400050F4B4FE0AC0B2FC08C02B2D2E7E05C09C
:101550007A2C2B2D03C07A2C01C0752C24FF0DC0D2
:10156000FE01EA0DF11D8081803311F4297E09C04E
:1015700022FF06C07394739404C0822F867809F00A
:10158000739423FD12C020FF06C05A2C731418F464
:10159000530C5718732C731460F4B70180E290E079
:1015A0002C87C0D173942C85F6CF731410F43718A0
:1015B00001C0312C24FF11C0B70180E390E02C87DB
:1015C000B1D12C8522FF16C021FF03C088E590E031
:1015D00002C088E790E0B7010CC0822F867851F0F6
:1015E00021FD02C080E201C08BE227FD8DE2B70140
:1015F00090E098D1A51430F4B70180E390E092D147
:101600005A94F8CFAA94F401EA0DF11D8081B70134
:1016100090E088D1A110F6CF332009F45DCEB70158
:1016200080E290E07FD13A94F7CFF70186819781ED
:1016300002C08FEF9FEF2C960FB6F894DEBF0FBE5F
:10164000CDBFDF91CF911F910F91FF90EF90DF9071
:10165000CF90BF90AF909F908F907F906F905F9052
:101660004F903F902F9008950F931F93CF93DF9348
:10167000869F8001879F100D969F100D1124C80131
:101680000DD0EC01009721F0A80160E070E038D1A6
:10169000CE01DF91CF911F910F910895CF93DF93EA
:1016A0008230910510F482E090E0E091A602F09182
:1016B000A70220E030E0A0E0B0E0309739F14081AF
:1016C000518148175907B8F04817590771F48281BA
:1016D0009381109729F013969C938E9312972CC0A8
:1016E0009093A7028093A60227C02115310531F0FF
:1016F0004217530718F0A901DB0101C0EF019A015D
:10170000BD01DF010280F381E02DD7CF2115310526
:10171000F9F0281B390B2430310580F48A819B8134
:101720006115710521F0FB019383828304C09093BE
:10173000A7028093A602FE01329644C0FE01E20F8A
:10174000F31F8193919322503109398328833AC042
:101750002091A4023091A502232B41F42091020292
:10176000309103023093A5022093A402209100023D
:10177000309101022115310541F42DB73EB740915A
:10178000040250910502241B350BE091A402F09154
:10179000A502E217F307A0F42E1B3F0B2817390709
:1017A00078F0AC014E5F5F4F2417350748F04E0FBD
:1017B0005F1F5093A5024093A4028193919302C0AE
:1017C000E0E0F0E0CF01DF91CF910895CF93DF9378
:1017D000009709F487C0FC01329713821282C091EE
:1017E000A602D091A702209781F420813181280F91
:1017F000391F8091A4029091A5028217930779F571
:10180000F093A502E093A4026DC0DE0120E030E079
:10181000AE17BF0750F412964D915C9113979D013E
:101820004115510509F1DA01F3CFB383A283408159
:101830005181840F951F8A179B0771F48D919C919C
:101840001197840F951F02969183808312968D9134
:101850009C911397938382832115310529F4F0938A
:10186000A702E093A6023EC0D9011396FC93EE9323
:1018700012974D915D91A40FB51FEA17FB0779F4FC
:1018800080819181840F951F0296D90111969C93B6
:101890008E938281938113969C938E931297E0E0AE
:1018A000F0E08A819B81009719F0FE01EC01F9CFED
:1018B000CE01029628813981820F931F2091A402C4
:1018C0003091A5022817390769F4309729F410924E
:1018D000A7021092A60202C013821282D093A50220
:1018E000C093A402DF91CF910895FC01059061504F
:1018F00070400110D8F7809590958E0F9F1F089526
:10190000DC0101C06D9341505040E0F70895FC01A7
:101910006150704001900110D8F7809590958E0F1E
:101920009F1F08950F931F93CF93DF93182F092FB5
:10193000EB018B8181FD03C08FEF9FEF20C082FF01
:1019400010C04E815F812C813D81421753077CF48A
:10195000E881F9819F012F5F3F4F398328831083EE
:1019600006C0E885F985812F1995892B29F72E81E5
:101970003F812F5F3F4F3F832E83812F902FDF9139
:10198000CF911F910F910895FA01AA27283051F1A4
:10199000203181F1E8946F936E7F6E5F7F4F8F4FA0
:1019A0009F4FAF4FB1E03ED0B4E03CD0670F781FFF
:1019B000891F9A1FA11D680F791F8A1F911DA11DE4
:1019C0006A0F711D811D911DA11D20D009F468941D
:1019D0003F912AE0269F11243019305D3193DEF6C5
:1019E000CF010895462F4770405D4193B3E00FD07B
:1019F000C9F7F6CF462F4F70405D4A3318F0495D66
:101A000031FD4052419302D0A9F7EACFB4E0A69548
:101A10009795879577956795BA95C9F7009761056A
:101A2000710508959B01AC010A2E069457954795C0
:101A300037952795BA95C9F7620F731F841F951FB5
:081A4000A01D0895F894FFCFEA
:101A48000000A8022000F84E4F5420696E206E6FE7
:101A5800726D616C206D6F64652100446964206E4D
:101A68006F74207472616E736D6974004D65737361
:101A7800616765206E6F7420726563656976656459
:101A88000074726573686F6C64202578200A0049B9
:101A98006E697420657220676F6F642E2E2E200089
:101AA80073636F72653A2025640A004E6F7420696B
:101AB8006E20636F6E666967206166746572207256
:061AC80065736574000067
:00000001FF
