:10000000C2C00000E0C00000DEC00000DCC0000094
:10001000DAC00000D8C00000D6C00000D4C0000084
:10002000D2C00000D0C00000CEC00000CCC0000094
:10003000CAC00000C8C00000C6C00000C4C00000A4
:10004000C2C00000C0C00000BEC00000BCC00000B4
:10005000BAC00000B8C00000B6C00000B4C00000C4
:10006000B2C00000B0C00000AEC00000ACC00000D4
:10007000AAC00000A8C00000A6C00000A4C00000E4
:10008000A2C00000A0C000009EC000009CC00000F4
:100090009AC0000098C0000096C000005EC4000036
:1000A00092C0000090C000008EC000008CC0000014
:1000B0008AC0000088C0000086C0000084C0000024
:1000C00082C0000080C000007EC000007CC0000034
:1000D0007AC0000078C0000076C0000074C0000044
:1000E00072C00000C8041A051A051A051A051A0577
:1000F0001A051A05C8041A051A051A051A051A055B
:100100001A051A05CA041A051A051A051A051A0548
:100110001A051A051A051A051A051A051A051A05E7
:100120001A051A05CA041A051A051A051A051A0528
:100130001A051A051A051A051A051A051A051A05C7
:100140001A051A0516051A051A051A051A051A05BB
:100150001A051A05F3041A051A051A051A051A05CF
:100160001A051A051A051A051A051A051A051A0597
:100170001A051A05E7041A051A051A051A051A05BB
:100180001A051A05050511241FBECFEFD1E2DEBF07
:10019000CDBF00E00CBF12E0A0E0B2E0E0E0F7E18C
:1001A00000E00BBF02C007900D92A03CB107D9F749
:1001B00022E0A0ECB2E001C01D92A33DB207E1F73E
:1001C00073D10C947E0B1CCFECE7F0E08081806C47
:1001D00080838081807E8083EAE7F0E08081806890
:1001E000808380818460808380818260808380813D
:1001F0008160808380980895EAE7F0E080818064E0
:10020000808380E18A95F1F700C01092C1021092BC
:10021000C002809178002091790090E0922B08959F
:10022000CBD14FEF64E680E6A1D140E060EE8FE0F5
:100230009DD141E061E08BE299D141E064E08BE245
:1002400095D18EE084D1807E19F087E092E04DD682
:100250008FE07DC10895AF92BF92CF92DF92EF926F
:10026000FF920F931F93CF93DF93CDB7DEB72A97FB
:100270000FB6F894DEBF0FBECDBF7C0182E667D11A
:1002800081E665D18CE263D180FF2DC082E65FD12B
:10029000A82E81E65CD128E0829FC0011124A6949B
:1002A000A694A694A694A694A82A85E650D1B82E22
:1002B0008823A1F08E010D5F1F4F0F2EF6E6CF2E83
:1002C000F02DC80E0F2EF6E6DF2EF02D8D2D3FD12E
:1002D000F80181938F01D394DC10F8CF40E06FEFE9
:1002E0008CE244D102C0AA24AA94A982BA828AE0EC
:1002F000FE013196D70101900D928A95E1F7C70171
:100300002A960FB6F894DEBF0FBECDBFDF91CF9116
:100310001F910F91FF90EF90DF90CF90BF90AF9023
:100320000895CF93DF9300D0CDB7DEB790E59983E2
:100330001A828B8380E18A95F1F700C063E0CE01D9
:100340000196E9D20F900F900F90DF91CF91089511
:10035000CF92DF92EF92FF920F931F93CF93DF9391
:100360006C01009799F07C01C0E0D0E000E010E063
:1003700043DF080F191F83EC99E00197F1F700C0E4
:1003800000002196CE15DF0599F702C000E010E0CD
:10039000B601660F771FC80133D5D62FC72F7F93BD
:1003A0006F932DE132E03F932F938ED50F900F90F6
:1003B0000F900F908D2F9C2FDF91CF911F910F9158
:1003C000FF90EF90DF90CF900895AF92BF92CF92C1
:1003D000DF92EF92FF920F931F93CF93DF936C0105
:1003E0005B01009769F07C01C0E0D0E000E010E024
:1003F00003DF080F191F2196CE15DF05C9F702C0CC
:1004000000E010E0C801B601FBD481E090E06A157D
:100410007B0510F080E090E0DF91CF911F910F916C
:10042000FF90EF90DF90CF90BF90AF900895AF9284
:10043000BF92CF92DF92EF92FF920F931F93CF93D1
:10044000DF935C016A017B018A01E701BC018AE05C
:1004500090E0BBDF892B89F0C130D10571F40F5FCB
:100460001F4F2FE382E49FE0215080409040E1F74E
:1004700000C00000C0E0D0E00AC0B5018AE090E012
:10048000A4DF892B21F4209711F4C1E0D0E0B8015A
:10049000CE01DF91CF911F910F91FF90EF90DF90F0
:1004A000CF90BF90AF900895CF93DF93CDB7DEB7D5
:1004B00068970FB6F894DEBF0FBECDBF87E690E019
:1004C000DFD282DEADDEC1D17FDE79D01AD2789460
:1004D0008AE090E03DDF4C01412C512C32016394C5
:1004E0008BE292E002D5C5D0CE010B96D6D0CE01DC
:1004F0000196B1DE89818F3F99F08B8190E0EAD13E
:10050000AB84BC84CD84DE84EF84F88809891A89A1
:100510002B893C894D895E896F89788D8E81EFD0DA
:100520008F8190E074D1B301A201C40180DF2B015F
:100530003C012FEF81EE94E0215080409040E1F7A4
:1005400000C00000D4CF2F9808952F9A0895CF931C
:10055000C82FF9DF83E090E06FD18C2F90E06CD151
:1005600070D1C82FF2DF8C2FCF9108951F93CF93B6
:10057000DF93182FD62FC42FE6DF85E090E05CD103
:10058000812F90E059D18D2F90E056D18C2F90E0A3
:1005900053D1DBDFDF91CF911F910895D4DF80EC41
:1005A00090E04AD1D2DF8EE0D2DF807E803819F031
:1005B0008CE392E09AC408953AD1F0CF0895109256
:1005C00007018FEF809301011AB8509A519AE2E027
:1005D000F1E080818061808380818064808380817C
:1005E0008064808380818D7F80830895E2E0F1E0E4
:1005F00080818F7D80838081877F80838FE891E0F9
:100600000197F1F700C000008091060190E0982F5B
:100610008827208128602083EFE8F1E03197F1F707
:1006200000C0000020910601822BE2E0F1E0208171
:100630002064208320812062208322273327281BE7
:10064000390B22F02533314224F405C080E090E0DC
:1006500002C08CEC9EED9195819591090895E2E0A0
:10066000F1E080818F7B80838AE68A95F1F700C074
:100670000895E2E0F1E080818D7F808385E551DEA1
:100680002FEF87EA91E6215080409040E1F700C0CB
:10069000000080E046DEE3CF0895FC011182108265
:1006A00021E030E0338322833583248308950F9340
:1006B0001F93CF93DF93EC0181E2689F80011124A7
:1006C00095DF9801281B390B41E050E0598348839E
:1006D0001F830E83998788873B872A873D872C87CE
:1006E000CE01DF91CF911F910F910895882334F4AB
:1006F0008195E2E0F1E090819D7F90830895AF9233
:10070000BF92CF92DF92EF92FF920F931F93CF93FE
:10071000DF93CDB7DEB72E970FB6F894DEBF0FBECE
:10072000CDBFA982BA82CB82DC82ED82FE820F83AA
:10073000188729873A874B875C876D877E87682F64
:10074000CE010196B4DFCF80D884E984FA840D8588
:100750001E85B801882777FD8095982F3AD220E032
:1007600030E849E95EE3E9D201D2862FBFDFB82E37
:100770008A818F9389818F938C858F938B858F93BB
:100780001F930F932B2D332727FD30953F93BF9257
:10079000DF92CF92FF92EF9227E732E03F932F93C1
:1007A00093D3035E1F4F0FB6F894DEBF0FBECDBFCD
:1007B0000B33110518F480E0B4DD18C0CE14DF044B
:1007C0005CF488EA92E091D3E2E0F1E080818D7FF1
:1007D00080838B2DA6DD0AC083EB92E086D3E2E016
:1007E000F1E08081826080838B2D9BDD2E960FB699
:1007F000F894DEBF0FBECDBFDF91CF911F910F9157
:10080000FF90EF90DF90CF90BF90AF9008952C981D
:10081000019759F42C9A2FEF82E597E02150804000
:100820009040E1F700C0000008952C98089587E8F3
:1008300084B981E58CBD08958EBD0DB407FEFDCF52
:10084000089580E0F9DF8EB50895A0E8B0E08C91BE
:1008500080628C93269AE1E8F0E080818260808358
:100860008C9182608C93808188608083808180619C
:10087000808388EB9BE090938B0080938A008FE3CA
:100880009CE990938700809386000895CF92DF9231
:10089000EF92FF926B017C0120E030E04AEF54E4DC
:1008A00048D2882384F020E030E24AE755E4C701CB
:1008B000B60158D118163CF0C701B6015CD170934F
:1008C0008B0060938A0080E090E0FF90EF90DF90D3
:1008D000CF900895682F70E080E090E07AD123E314
:1008E00033E34BEF50E429D220E030E04AEF54E408
:1008F000D5D0CCDFBC01882777FD8095982F69C1C2
:1009000008958CE08093B8008FEF8093BB0084E063
:100910008093BC000895ECEBF0E0208120FDFDCF3A
:100920006093C402FC0120812093C50220FD0CC00D
:10093000623050F0DC011196E6ECF2E081E09D912E
:1009400091938F5F8613FBCF1092C30288EF809341
:10095000060285EA8093BC0008951F920F920FB69D
:100960000F9211240BB60F922F933F938F939F9367
:10097000AF93BF93EF93FF938091B90090E0FC0198
:100980003897E135F10508F055C0EE58FF4F4CC2DD
:100990001092C202E091C2028091C402E81770F482
:1009A00081E08E0F8093C202F0E0EB53FD4F808117
:1009B0008093BB0085E88093BC0043C08091C30254
:1009C00081608093C30284E98093BC003AC0E091C7
:1009D000C20281E08E0F8093C2028091BB00F0E0E2
:1009E000EB53FD4F80832091C20230E08091C4021E
:1009F00090E001972817390724F485EC8093BC0018
:100A000020C085E88093BC001CC08091BB00E091B1
:100A1000C202F0E0EB53FD4F80838091C3028160FE
:100A20008093C30284E98093BC000BC085EA809365
:100A3000BC0007C08091B9008093060284E08093D7
:100A4000BC00FF91EF91BF91AF919F918F913F912A
:100A50002F910F900BBE0F900FBE0F901F90189507
:100A6000E0ECF0E0908195FFFDCF8093C600089503
:100A7000E0ECF0E080818823ECF78091C6000895D7
:100A80009093C5008093C40088E18093C10068E31F
:100A900075E080E395E0CEC108955058BB27AA27A2
:100AA0000ED00DC1FED030F003D120F031F49F3FC5
:100AB00011F41EF4F3C00EF4E095E7FBE9C0E92F52
:100AC0000FD180F3BA17620773078407950718F0F0
:100AD00071F49EF527C10EF4E0950B2EBA2FA02DD0
:100AE0000B01B90190010C01CA01A0011124FF27DB
:100AF000591B99F0593F50F4503E68F11A16F040D6
:100B0000A22F232F342F4427585FF3CF46953795D4
:100B10002795A795F0405395C9F77EF41F16BA0B99
:100B2000620B730B840BBAF09150A1F0FF0FBB1F47
:100B3000661F771F881FC2F70EC0BA0F621F731F90
:100B4000841F48F4879577956795B795F7959E3FED
:100B500008F0B3CF9395880F08F09927EE0F97957B
:100B60008795089571D008F481E0089504D06894C1
:100B7000B111D9C00895BCD088F09F5790F0B92F1B
:100B80009927B751A0F0D1F0660F771F881F991FE2
:100B90001AF0BA95C9F712C0B13081F0C3D0B1E0F4
:100BA0000895C0C0672F782F8827B85F39F0B93F04
:100BB000CCF3869577956795B395D9F73EF49095E4
:100BC0008095709561957F4F8F4F9F4F0895E89462
:100BD00009C097FB3EF490958095709561957F4F85
:100BE0008F4F9F4F9923A9F0F92F96E9BB27939533
:100BF000F695879577956795B795F111F8CFFAF443
:100C0000BB0F11F460FF1BC06F5F7F4F8F4F9F4F73
:100C100016C0882311F096E911C0772321F09EE8D1
:100C2000872F762F05C0662371F096E8862F70E037
:100C300060E02AF09A95660F771F881FDAF7880F11
:100C40009695879597F90895990F0008550FAA0B67
:100C5000E0E8FEEF16161706E807F907C0F01216CF
:100C60001306E407F50798F0621B730B840B950BD2
:100C700039F40A2661F0232B242B252B21F4089527
:100C80000A2609F4A140A6958FEF811D811D0895C4
:100C900097F99F6780E870E060E008959FEF80EC2F
:100CA000089500240A9416161706180609060895D2
:100CB00000240A9412161306140605060895092E38
:100CC0000394000C11F4882352F0BB0F40F4BF2BA7
:100CD00011F460FF04C06F5F7F4F8F4F9F4F0895E7
:100CE00057FD9058440F551F59F05F3F71F04795DD
:100CF000880F97FB991F61F09F3F79F087950895C2
:100D0000121613061406551FF2CF4695F1DF08C0E0
:100D1000161617061806991FF1CF869571056105FD
:100D200008940895E894BB2766277727CB0197F9A5
:100D300008958ADF08F48FEF08950BD0C0CFB1DF9C
:100D400028F0B6DF18F0952309F0A2CFA7CF112421
:100D5000EACFC6DFA0F3959FD1F3950F50E0551F62
:100D6000629FF001729FBB27F00DB11D639FAA2700
:100D7000F00DB11DAA1F649F6627B00DA11D661F4F
:100D8000829F2227B00DA11D621F739FB00DA11D70
:100D9000621F839FA00D611D221F749F3327A00D2A
:100DA000611D231F849F600D211D822F762F6A2FC6
:100DB00011249F5750408AF0E1F088234AF0EE0F4B
:100DC000FF1FBB1F661F771F881F91505040A9F758
:100DD0009E3F510570F05CCFA6CF5F3FECF3983E8D
:100DE000DCF3869577956795B795F795E7959F5FBF
:100DF000C1F7FE2B880F911D9695879597F9089559
:100E0000AA1BBB1B51E107C0AA1FBB1FA617B70730
:100E100010F0A61BB70B881F991F5A95A9F780954C
:100E20009095BC01CD010895EE0FFF1F0590F49140
:100E3000E02D19940F931F93CF93DF93EC018B0157
:100E4000009731F46115710519F480E090E037C026
:100E50006EE070E081E090E063D2FC010097A9F3BE
:100E600080E883830115110571F01387028781E8FB
:100E700083838091C9029091CA02892B21F4F09357
:100E8000CA02E093C9022097C9F0D187C087838145
:100E9000826083838091CB029091CC02892B71F484
:100EA000F093CC02E093CB028091CD029091CE02E0
:100EB000892B21F4F093CE02E093CD02CF01DF9194
:100EC000CF911F910F910895CF93DF93CDB7DEB7E8
:100ED000FE01369661917191AF018091CB029091A4
:100EE000CC0230D0DF91CF9108950F931F93CF9311
:100EF000DF93E091CB02F091CC02238121FF1BC054
:100F0000EC0100E010E089916091CB027091CC027D
:100F1000DB011896ED91FC911997882331F0199512
:100F2000892B89F30FEF1FEFEECF8AE01995892BFC
:100F300011F4C80102C08FEF9FEFDF91CF911F9195
:100F40000F9108952F923F924F925F926F927F92EE
:100F50008F929F92AF92BF92CF92DF92EF92FF92C9
:100F60000F931F93CF93DF93CDB7DEB72C970FB6B8
:100F7000F894DEBF0FBECDBF7C016B018A01FC017E
:100F800017821682838181FFB0C1CE0101964C0188
:100F9000F7019381F60193FD859193FF81916F0194
:100FA000882309F49EC1853239F493FD859193FF1E
:100FB00081916F01853221F4B70190E00FD3E8CF22
:100FC000512C312C20E02032A0F48B3269F030F427
:100FD000803259F0833269F420612CC08D3239F0AF
:100FE000803339F4216026C02260246023C0286049
:100FF00021C027FD27C030ED380F3A3078F426FFA6
:1010000006C0FAE05F9E300D1124532E13C08AE013
:10101000389E300D1124332E20620CC08E3221F404
:1010200026FD5FC1206406C08C3611F4206802C022
:10103000883641F4F60193FD859193FF81916F010C
:101040008111C1CF982F9F7D9554933028F40C5F68
:101050001F4FFFE3F9830DC0833631F0833771F002
:10106000833509F057C021C0F801808189830E5F64
:101070001F4F44244394512C540114C03801F2E012
:101080006F0E711CF801A080B18026FF03C0652D92
:1010900070E002C06FEF7FEFC5012C8794D22C0166
:1010A00083012C852F77222E16C03801F2E06F0EB7
:1010B000711CF801A080B18026FF03C0652D70E08F
:1010C00002C06FEF7FEFC5012C876BD22C012C85FE
:1010D0002068222E830123FC19C0832D90E048163E
:1010E0005906A0F4B70180E290E078D23A94F5CFA7
:1010F000F50127FC859127FE81915F01B70190E002
:101100006DD231103A94F1E04F1A51084114510454
:1011100079F7DEC0843611F0893631F5F80127FF02
:1011200007C060817181828193810C5F1F4F08C06D
:1011300060817181882777FD8095982F0E5F1F4F02
:101140002F76B22E97FF09C0909580957095619586
:101150007F4F8F4F9F4F2068B22E2AE030E0A401CE
:101160006FD2A82EA81843C0853729F42F7EB22E3F
:101170002AE030E025C0F22FF97FBF2E8F36C1F074
:1011800018F4883579F0ADC0803719F0883721F030
:10119000A8C02F2F2061B22EB4FE0DC08B2D84600D
:1011A000B82E09C024FF0AC09F2F9660B92E06C032
:1011B00028E030E005C020E130E002C020E132E06C
:1011C000F801B7FE07C060817181828193810C5F55
:1011D0001F4F06C06081718180E090E00E5F1F4F5D
:1011E000A4012ED2A82EA818FB2DFF77BF2EB6FE85
:1011F0000BC02B2D2E7FA51450F4B4FE0AC0B2FCF8
:1012000008C02B2D2E7E05C07A2C2B2D03C07A2CE6
:1012100001C0752C24FF0DC0FE01EA0DF11D808177
:10122000803311F4297E09C022FF06C073947394A1
:1012300004C0822F867809F0739423FD12C020FF2A
:1012400006C05A2C731418F4530C5718732C7314CB
:1012500060F4B70180E290E02C87C0D173942C85B4
:10126000F6CF731410F4371801C0312C24FF11C0CD
:10127000B70180E390E02C87B1D12C8522FF16C006
:1012800021FF03C088E590E002C088E790E0B70145
:101290000CC0822F867851F021FD02C080E201C08F
:1012A0008BE227FD8DE2B70190E098D1A51430F4D0
:1012B000B70180E390E092D15A94F8CFAA94F40158
:1012C000EA0DF11D8081B70190E088D1A110F6CF21
:1012D000332009F45DCEB70180E290E07FD13A94EB
:1012E000F7CFF7018681978102C08FEF9FEF2C9691
:1012F0000FB6F894DEBF0FBECDBFDF91CF911F9127
:101300000F91FF90EF90DF90CF90BF90AF909F90A4
:101310008F907F906F905F904F903F902F900895A7
:101320000F931F93CF93DF93869F8001879F100DAC
:10133000969F100D1124C8010DD0EC01009721F0EB
:10134000A80160E070E038D1CE01DF91CF911F910C
:101350000F910895CF93DF938230910510F482E0CE
:1013600090E0E091D102F091D20220E030E0A0E0E4
:10137000B0E0309739F14081518148175907B8F0F2
:101380004817590771F482819381109729F01396B9
:101390009C938E9312972CC09093D2028093D1028B
:1013A00027C02115310531F04217530718F0A90164
:1013B000DB0101C0EF019A01BD01DF010280F38171
:1013C000E02DD7CF21153105F9F0281B390B24303A
:1013D000310580F48A819B816115710521F0FB0143
:1013E0009383828304C09093D2028093D102FE0142
:1013F000329644C0FE01E20FF31F81939193225075
:101400003109398328833AC02091CF023091D0022C
:10141000232B41F420910202309103023093D00239
:101420002093CF0220910002309101022115310555
:1014300041F42DB73EB74091040250910502241BA0
:10144000350BE091CF02F091D002E217F307A0F440
:101450002E1B3F0B2817390778F0AC014E5F5F4F0A
:101460002417350748F04E0F5F1F5093D00240936A
:10147000CF028193919302C0E0E0F0E0CF01DF91D1
:10148000CF910895CF93DF93009709F487C0FC01B3
:10149000329713821282C091D102D091D20220974A
:1014A00081F420813181280F391F8091CF029091E2
:1014B000D0028217930779F5F093D002E093CF0220
:1014C0006DC0DE0120E030E0AE17BF0750F4129689
:1014D0004D915C9113979D014115510509F1DA0178
:1014E000F3CFB383A28340815181840F951F8A1764
:1014F0009B0771F48D919C911197840F951F029613
:101500009183808312968D919C911397938382830C
:101510002115310529F4F093D202E093D1023EC0A7
:10152000D9011396FC93EE9312974D915D91A40F00
:10153000B51FEA17FB0779F480819181840F951F0D
:101540000296D90111969C938E9382819381139672
:101550009C938E931297E0E0F0E08A819B81009744
:1015600019F0FE01EC01F9CFCE01029628813981F4
:10157000820F931F2091CF023091D0022817390794
:1015800069F4309729F41092D2021092D10202C06D
:1015900013821282D093D002C093CF02DF91CF91F9
:1015A0000895FC010590615070400110D8F78095B6
:1015B00090958E0F9F1F0895DC0101C06D934150DF
:1015C0005040E0F70895FC01615070400190011017
:1015D000D8F7809590958E0F9F1F08950F931F93B6
:1015E000CF93DF93182F092FEB018B8181FD03C06F
:1015F0008FEF9FEF20C082FF10C04E815F812C8152
:101600003D81421753077CF4E881F9819F012F5FE8
:101610003F4F39832883108306C0E885F985812FE1
:101620001995892B29F72E813F812F5F3F4F3F83EB
:101630002E83812F902FDF91CF911F910F910895CD
:10164000FA01AA27283051F1203181F1E8946F93F3
:101650006E7F6E5F7F4F8F4F9F4FAF4FB1E03ED099
:10166000B4E03CD0670F781F891F9A1FA11D680F37
:10167000791F8A1F911DA11D6A0F711D811D911D6A
:10168000A11D20D009F468943F912AE0269F1124DF
:101690003019305D3193DEF6CF010895462F477043
:1016A000405D4193B3E00FD0C9F7F6CF462F4F709E
:1016B000405D4A3318F0495D31FD4052419302D0FC
:1016C000A9F7EACFB4E0A6959795879577956795A2
:1016D000BA95C9F700976105710508959B01AC01A2
:1016E0000A2E06945795479537952795BA95C9F7C9
:1016F000620F731F841F951FA01D0895F894FFCFDC
:101700000000D3022000F84E4F5420696E206C6F09
:101710006F706261636B206D6F6465210074726528
:1017200073686F6C64202578200A00496E69742004
:10173000657220676F6F642E2E2E20004E6F74200E
:10174000696E20636F6E66696720616674657220DA
:10175000726573657400476F696E67206C656674A7
:101760002564200A00476F696E6720726967687494
:101770003A202564200A00793A2025640920207245
:101780003A2025640920202073706565643A20257D
:101790006409753A20256409653A20256409206B9F
:1017A000703A202564200A00476F696E67206C65D7
:1017B000667400476F696E672072696768742000FD
:00000001FF
