S00C00004C6162312E73726563D8
S11300000C94B4010C94D1010C94D1010C94D10141
S11300100C94D1010C94D1010C94D1010C94D10114
S11300200C94D1010C94D1010C94D1010C94D10104
S11300300C94D1010C94D1010C94D1010C94D101F4
S11300400C94D1010C94D1010C94D1010C94D101E4
S11300500C94D1010C94D1010C94D1010C94D101D4
S11300600C94D1010C94D1010C94D1010C94D101C4
S1130070000000000000000000065F5F06000000B2
S11300800007070007070000147F7F147F7F140018
S1130090242E6B6B3A120000466630180C66620020
S11300A0307A4F5D377A48000407030000000000EF
S11300B0001C3E63410000000041633E1C00000040
S11300C0082A3E1C1C3E2A0808083E3E0808000078
S11300D000A0E0600000000008080808080800000C
S11300E000006060000000006030180C060301008E
S11300F03E7F594D7F3E000042427F7F40400000DA
S1130100627359496F660000226349497F360000D3
S1130110181C16137F7F1000276745457D390000A2
S11301203C7E4B4979300000036371190F070000CE
S1130130367F49497F360000064F49693F1E00005B
S113014000006C6C0000000000A0EC6C00000000DB
S1130150081C366341000000141414141414000025
S1130160004163361C080000020351590F060000C9
S11301703E7F415D5D1F1E007C7E13137E7C00006C
S1130180417F7F49497F36001C3E63414163220021
S1130190417F7F41637F1C00417F7F495D41630054
S11301A0417F7F491D0103001C3E6341517372006E
S11301B07F7F08087F7F000000417F7F41000000AF
S11301C0307040417F3F0100417F7F081C7763000E
S11301D0417F7F41406070007F7F060C067F7F0077
S11301E07F7F060C187F7F001C3E6341633E1C002A
S11301F0417F7F49090F06001E3F21717F5E000089
S1130200417F7F19396F460026674D597B320000C4
S113021003417F7F410300007F7F40407F7F0000D8
S11302201F3F60603F1F00007F7F3018307F7F00DA
S113023063771C081C776300074F78784F0700002A
S11302406773594D47637100007F7F41410000008F
S11302500103060C183060000041417F7F0000005C
S1130260080C0603060C0800808080808080808053
S11302700000030704000000207454543C7840003C
S1130280413F7F44447C3800387C44446C2800005F
S1130290307848493F7F4000387C54545C18000053
S11302A0487E7F490302000098BCA4A4F87C0400A3
S11302B0417F7F08047C780000447D7D400000007D
S11302C040C484FD7D000000417F7F10386C4400F1
S11302D000417F7F400000007C7C0C180C7C78007F
S11302E07C7C04047C780000387C44447C38000026
S11302F084FCF8A4243C1800183C24A4F8FC8400D2
S1130300447C78441C180000485C54547424000055
S113031000043E7F442400003C7C40403C7C400080
S11303201C3C60603C1C00003C7C6030607C3C00F9
S1130330446C3810386C44009CBCA0A0FC7C0000C9
S11303404C64745C4C64000008083E774141000032
S113035000000077770000004141773E0808000064
S1130360020301030203010011241FBECFEFD4E0F6
S1130370DEBFCDBF11E0A0E0B1E0ECE5F2E102C0E8
S113038005900D92A434B107D9F721E0A4E4B1E0BB
S113039001C01D92A335B207E1F70E94D1020C946B
S11303A02C090C94000085B7806885BF80B78062F3
S11303B080BF30980895809300142899FECFE82FC9
S11303C0F0E0FC5E80810895CF92DF92EF92FF927D
S11303D00F931F93182F862F0E94DB01682F70E064
S11303E066587109882777FD8095982F0E94E50348
S11303F02CEF31E943E55FE30E9449040E94B20314
S11304006B017C01812F0E94DB01682F70E065582D
S11304107109882777FD8095982F0E94E50328E0CD
S113042036ED41E55FE30E9449040E94B2038B016B
S11304309C01A6018CE9C8168FEFD80614F44CE988
S11304405FEFBA010C392FEF120714F40CE91FEF18
S1130450C8011F910F91FF90EF90DF90CF90089506
S113046028E040E061E083E20E943A0381E0809367
S11304704401089565E084E00E94E4019C01875AE8
S11304809F4F833B910520F481E0809346010895BA
S1130490263A8FEF38070CF5809146018823E9F05E
S11304A010924601609144016093450181E0860FFA
S11304B0863018F48093440103C081E080934401A2
S11304C028E040E080E20E943A0328E040E06091A6
S11304D0440183E20E943A0308952B353105FCF070
S11304E0809146018823D9F010924601609144011D
S11304F0609345018FEF860F19F08093440103C088
S113050085E08093440128E040E080E20E943A03C1
S113051028E040E06091440183E20E943A03089598
S1130520CF93DF93B19903C081E080934801B099E0
S113053003C081E080934701B19B17C080914801BB
S1130540882399F010924801C4E4D1E088811F9275
S11305508F938FE091E09F938F930E941F05888172
S11305600F900F900F900F9019C0B09B17C08091FF
S11305704701882399F010924701C4E4D1E08881AF
S11305801F928F938FE091E09F938F930E941F059A
S113059088810F900F900F900F9000C0DF91CF9142
S11305A0089517BA0E94D3010E9498038FE190E046
S11305B00E94A7030E94E9020E94230386E291E0BD
S11305C00E9458030E9430020E9490020E943A0244
S11305D0FBCFE0E0F0E18EEA808381EA80838AED5C
S11305E0808382E1808388EC808388EA80838FE340
S11305F0808385ED808380E8808381E8808380E543
S1130600808389ED808381E2808380E2808382E03D
S113061080838BED808380E380838DEA80831082E6
S113062084EA808386EA80838FEA808308958055F4
S11306308093001080E890E0E0E0F2E110820197FE
S11306400097E1F70895CF93DF93C0E0D0E0CE01A7
S11306500E9417032196C830D105C9F7DF91CF91C5
S113066008958055E0E0F0E1808381E28083608337
S113067040830895CF93C82F862F642F422F0E9462
S11306803103EC2FF0E0EE0FFF1FEE0FFF1FEE0F14
S1130690FF1FE059F04080E090E0A0E0B2E1249137
S11306A02C930196319688309105C9F7CF9108951E
S11306B0BF92CF92DF92EF92FF920F931F93CF934B
S11306C0DF93FC018081882349F1EF0121968F019A
S11306D0DD24D3940F2EF1E1EF2EF02D0F2EF9E04F
S11306E0FF2EF02D0F2EF1E1BF2EF02D0F2EF9E08D
S11306F0CF2EF02D2E2D4F2D6D2D0E943A03F80193
S11307008081803221F0F9E0FF0EEF0E03C0D39414
S1130710EB2CFC2C8E0189918111ECCFDF91CF91D0
S11307201F910F91FF90EF90DF90CF90BF900895AD
S113073085B7806885BF80B7806280BF08955D9B60
S1130740FECF8CB908955F9BFECF8CB1089590BD08
S113075089B988E18AB963EA73E08FE993E00E947A
S1130760D404089504D06894B1118DC0089570D054
S113077088F09F5790F0B92F9927B751A0F0D1F086
S1130780660F771F881F991F1AF0BA95C9F712C010
S1130790B13081F077D0B1E0089574C0672F782F1D
S11307A08827B85F39F0B93FCCF38695779567957C
S11307B0B395D9F73EF490958095709561957F4FE8
S11307C08F4F9F4F0895E89409C097FB3EF490958E
S11307D08095709561957F4F8F4F9F4F9923A9F016
S11307E0F92F96E9BB279395F695879577956795A5
S11307F0B795F111F8CFFAF4BB0F11F460FF1BC0E9
S11308006F5F7F4F8F4F9F4F16C0882311F096E97B
S113081011C0772321F09EE8872F762F05C0662329
S113082071F096E8862F70E060E02AF09A95660FE2
S1130830771F881FDAF7880F9695879597F908959B
S113084057FD9058440F551F59F05F3F71F047957D
S1130850880F97FB991F61F09F3F79F08795089562
S1130860121613061406551FF2CF4695F1DF08C081
S1130870161617061806991FF1CF8695710561059E
S113088008940895E894BB2766277727CB0197F946
S113089008950BD078C069D028F06ED018F0952355
S11308A009F05AC05FC01124EECFCADFA0F3959FB0
S11308B0D1F3950F50E0551F629FF001729FBB2743
S11308C0F00DB11D639FAA27F00DB11DAA1F649FEF
S11308D06627B00DA11D661F829F2227B00DA11DA2
S11308E0621F739FB00DA11D621F839FA00D611D28
S11308F0221F749F3327A00D611D231F849F600D49
S1130900211D822F762F6A2F11249F5750408AF081
S1130910E1F088234AF0EE0FFF1FBB1F661F771F0D
S1130920881F91505040A9F79E3F510570F014C0A4
S1130930AACF5F3FECF3983EDCF3869577956795F5
S1130940B795F795E7959F5FC1F7FE2B880F911D2B
S11309509695879597F9089597F99F6780E870E0D1
S113096060E008959FEF80EC089500240A94161621
S1130970170618060906089500240A941216130689
S1130980140605060895092E0394000C11F4882317
S113099052F0BB0F40F4BF2B11F460FF04C06F5F33
S11309A07F4F8F4F9F4F08950F931F93CF93DF93E4
S11309B0EC018B01009731F46115710519F480E0A5
S11309C090E038C06EE070E081E090E00E9405079E
S11309D0FC010097A1F380E883830115110571F0F0
S11309E01387028781E883838091490190914A01AA
S11309F0892B21F4F0934A01E09349012097C9F02F
S1130A00D187C08783818260838380914B019091D9
S1130A104C01892B71F4F0934C01E0934B018091CC
S1130A204D0190914E01892B21F4F0934E01E093F6
S1130A304D01CF01DF91CF911F910F910895A0E057
S1130A40B0E0E5E2F5E00C940509FE01359661910C
S1130A507191AF0180914B0190914C010E9433053B
S1130A60E2E00C942109ACE0B0E0E9E3F5E00C9499
S1130A70F5087C016B018A01FC01178216828381CF
S1130A8081FFBDC1CE0101964C01F7019381F601AE
S1130A9093FD859193FF81916F01882309F4ABC184
S1130AA0853239F493FD859193FF81916F018532ED
S1130AB029F4B70190E00E946508E7CF512C312C4E
S1130AC020E02032A0F48B3269F030F4803259F007
S1130AD0833269F420612CC08D3239F0803339F4CB
S1130AE0216026C02260246023C0286021C027FD25
S1130AF027C030ED380F3A3078F426FF06C0FAE00C
S1130B005F9E300D1124532E13C08AE0389E300DA1
S1130B101124332E20620CC08E3221F426FD6BC1C9
S1130B20206406C08C3611F4206802C0883641F473
S1130B30F60193FD859193FF81916F018111C1CFDE
S1130B40982F9F7D9554933028F40C5F1F4FFFE33B
S1130B50F9830DC0833631F0833771F0833509F0A2
S1130B605BC022C0F801808189830E5F1F4F44243B
S1130B704394512C540115C03801F2E06F0E711CDE
S1130B80F801A080B18026FF03C0652D70E002C08B
S1130B906FEF7FEFC5012C870E945A082C01830157
S1130BA02C852F77222E17C03801F2E06F0E711CAE
S1130BB0F801A080B18026FF03C0652D70E002C05B
S1130BC06FEF7FEFC5012C870E9448082C012C850C
S1130BD02068222E830123FC1BC0832D90E048163D
S1130BE05906B0F4B70180E290E00E9465083A9497
S1130BF0F4CFF50127FC859127FE81915F01B701B0
S1130C0090E00E94650831103A94F1E04F1A5108BF
S1130C104114510471F7E5C0843611F0893639F571
S1130C20F80127FF07C060817181828193810C5F85
S1130C301F4F08C060817181882777FD8095982FA8
S1130C400E5F1F4F2F76B22E97FF09C090958095A7
S1130C50709561957F4F8F4F9F4F2068B22E2AE089
S1130C6030E0A4010E949708A82EA81844C0853734
S1130C7029F42F7EB22E2AE030E025C0F22FF97F2E
S1130C80BF2E8F36C1F018F4883579F0B4C08037A0
S1130C9019F0883721F0AFC02F2F2061B22EB4FE97
S1130CA00DC08B2D8460B82E09C024FF0AC09F2F6D
S1130CB09660B92E06C028E030E005C020E130E09F
S1130CC002C020E132E0F801B7FE07C06081718103
S1130CD0828193810C5F1F4F06C06081718180E027
S1130CE090E00E5F1F4FA4010E949708A82EA81839
S1130CF0FB2DFF77BF2EB6FE0BC02B2D2E7FA51428
S1130D0050F4B4FE0AC0B2FC08C02B2D2E7E05C0E0
S1130D107A2C2B2D03C07A2C01C0752C24FF0DC016
S1130D20FE01EA0DF11D8081803311F4297E09C092
S1130D3022FF06C07394739404C0822F867809F04E
S1130D40739423FD13C020FF06C05A2C731418F4A7
S1130D50530C5718732C731468F4B70180E290E0B5
S1130D602C870E94650873942C85F5CF731410F4B6
S1130D70371801C0312C24FF12C0B70180E390E082
S1130D802C870E9465082C8522FF17C021FF03C011
S1130D9088E590E002C088E790E0B7010CC0822F9C
S1130DA0867859F021FD02C080E201C08BE227FD64
S1130DB08DE2B70190E00E946508A51438F4B701EC
S1130DC080E390E00E9465085A94F7CFAA94F40156
S1130DD0EA0DF11D8081B70190E00E946508A11021
S1130DE0F5CF332009F451CEB70180E290E00E94A0
S1130DF065083A94F6CFF7018681978102C08FEF98
S1130E009FEF2C96E2E10C9411090F931F93CF935B
S1130E10DF93869F8001879F100D969F100D1124EC
S1130E20C8010E942107EC01009729F0A80160E0A5
S1130E3070E00E945308CE01DF91CF911F910F9172
S1130E400895CF93DF938230910510F482E090E00F
S1130E50E0915101F091520120E030E0A0E0B0E0D7
S1130E60309739F14081518148175907B8F0481734
S1130E70590771F482819381109729F013969C93FA
S1130E808E9312972CC0909352018093510127C0E6
S1130E902115310531F04217530718F0A901DB0180
S1130EA001C0EF019A01BD01DF010280F381E02D51
S1130EB0D7CF21153105F9F0281B390B2430310522
S1130EC080F48A819B816115710521F0FB01938374
S1130ED0828304C09093520180935101FE013296A3
S1130EE044C0FE01E20FF31F819391932250310914
S1130EF0398328833AC020914F0130915001232B2C
S1130F0041F4209102013091030130935001209368
S1130F104F0120910001309101012115310541F467
S1130F202DB73EB74091040150910501241B350BA8
S1130F30E0914F01F0915001E217F307A0F42E1B4A
S1130F403F0B2817390778F0AC014E5F5F4F241729
S1130F50350748F04E0F5F1F5093500140934F01E7
S1130F608193919302C0E0E0F0E0CF01DF91CF9153
S1130F700895CF93DF93009709F487C0FC0132975B
S1130F8013821282C0915101D0915201209781F4B1
S1130F9020813181280F391F80914F019091500198
S1130FA08217930779F5F0935001E0934F016DC0D8
S1130FB0DE0120E030E0AE17BF0750F412964D91E9
S1130FC05C9113979D014115510509F1DA01F3CFA5
S1130FD0B383A28340815181840F951F8A179B0795
S1130FE071F48D919C911197840F951F02969183B2
S1130FF0808312968D919C911397938382832115FC
S1131000310529F4F0935201E09351013EC0D90116
S11310101396FC93EE9312974D915D91A40FB51F17
S1131020EA17FB0779F480819181840F951F02965A
S1131030D90111969C938E938281938113969C93EC
S11310408E931297E0E0F0E08A819B81009719F07B
S1131050FE01EC01F9CFCE01029628813981820F7D
S1131060931F20914F01309150012817390769F4DB
S1131070309729F4109252011092510102C0138248
S11310801282D0935001C0934F01DF91CF91089504
S1131090FC010590615070400110D8F7809590953F
S11310A08E0F9F1F0895DC0101C06D934150504085
S11310B0E0F70895FC016150704001900110D8F7E9
S11310C0809590958E0F9F1F08950F931F93CF9334
S11310D0DF93182F092FEB018B8181FD03C08FEF64
S11310E09FEF20C082FF10C04E815F812C813D8123
S11310F0421753077CF4E881F9819F012F5F3F4F2A
S113110039832883108306C0E885F985812F0995E2
S1131110892B29F72E813F812F5F3F4F3F832E83F9
S1131120812F902FDF91CF911F910F910895FA0194
S1131130AA27283051F1203181F1E8946F936E7F12
S11311406E5F7F4F8F4F9F4FAF4FB1E03ED0B4E003
S11311503CD0670F781F891F9A1FA11D680F791F44
S11311608A1F911DA11D6A0F711D811D911DA11D55
S113117020D009F468943F912AE0269F1124301965
S1131180305D3193DEF6CF010895462F4770405D00
S11311904193B3E00FD0C9F7F6CF462F4F70405DAF
S11311A04A3318F0495D31FD4052419302D0A9F70A
S11311B0EACFB4E0A6959795879577956795BA9504
S11311C0C9F700976105710508959B01AC010A2ECA
S11311D006945795479537952795BA95C9F7620FA1
S11311E0731F841F951FA01D08952F923F924F9245
S11311F05F926F927F928F929F92AF92BF92CF92A3
S1131200DF92EF92FF920F931F93CF93DF93CDB7AB
S1131210DEB7CA1BDB0B0FB6F894DEBF0FBECDBF23
S113122009942A88398848885F846E847D848C84F4
S11312309B84AA84B984C884DF80EE80FD800C81FD
S11312401B81AA81B981CE0FD11D0FB6F894DEBFE0
S10F12500FBECDBFED010895F894FFCF50
S113125C0000530120004A6F79737469636B004377
S113126C757272656E7420706167652069733A20BB
S113127C2578200A20004B414C56454E204D494EB2
S113128C2045522056454C44494720485947474528
S107129C4C4947006E
S9030000FC
