S00C00004C6162312E73726563D8
S11300000C94B4010C94F6010C94D1010C94D1011C
S11300100C94D1010C94D1010C94D1010C94D10114
S11300200C94D1010C94D1010C94D1010C94D10104
S11300300C94D1010C94D1010C94D1010C94D101F4
S11300400C94D1010C94D1010C94D1010C94D101E4
S11300500C94D1010C94D1010C94D1010C94D101D4
S11300600C94D1010C94D1010C94D1010C94D101C4
S1130070000000000000000000065F5F06000000B2
S11300800007070007070000147F7F147F7F140018
S1130090242E6B6B3A120000466630180C66620020
S11300A0307A4F5D377A48000407030000000000EF
S11300B0001C3E63410000000041633E1C00000040
S11300C0082A3E1C1C3E2A0808083E3E0808000078
S11300D000A0E0600000000008080808080800000C
S11300E000006060000000006030180C060301008E
S11300F03E7F594D7F3E000042427F7F40400000DA
S1130100627359496F660000226349497F360000D3
S1130110181C16137F7F1000276745457D390000A2
S11301203C7E4B4979300000036371190F070000CE
S1130130367F49497F360000064F49693F1E00005B
S113014000006C6C0000000000A0EC6C00000000DB
S1130150081C366341000000141414141414000025
S1130160004163361C080000020351590F060000C9
S11301703E7F415D5D1F1E007C7E13137E7C00006C
S1130180417F7F49497F36001C3E63414163220021
S1130190417F7F41637F1C00417F7F495D41630054
S11301A0417F7F491D0103001C3E6341517372006E
S11301B07F7F08087F7F000000417F7F41000000AF
S11301C0307040417F3F0100417F7F081C7763000E
S11301D0417F7F41406070007F7F060C067F7F0077
S11301E07F7F060C187F7F001C3E6341633E1C002A
S11301F0417F7F49090F06001E3F21717F5E000089
S1130200417F7F19396F460026674D597B320000C4
S113021003417F7F410300007F7F40407F7F0000D8
S11302201F3F60603F1F00007F7F3018307F7F00DA
S113023063771C081C776300074F78784F0700002A
S11302406773594D47637100007F7F41410000008F
S11302500103060C183060000041417F7F0000005C
S1130260080C0603060C0800808080808080808053
S11302700000030704000000207454543C7840003C
S1130280413F7F44447C3800387C44446C2800005F
S1130290307848493F7F4000387C54545C18000053
S11302A0487E7F490302000098BCA4A4F87C0400A3
S11302B0417F7F08047C780000447D7D400000007D
S11302C040C484FD7D000000417F7F10386C4400F1
S11302D000417F7F400000007C7C0C180C7C78007F
S11302E07C7C04047C780000387C44447C38000026
S11302F084FCF8A4243C1800183C24A4F8FC8400D2
S1130300447C78441C180000485C54547424000055
S113031000043E7F442400003C7C40403C7C400080
S11303201C3C60603C1C00003C7C6030607C3C00F9
S1130330446C3810386C44009CBCA0A0FC7C0000C9
S11303404C64745C4C64000008083E774141000032
S113035000000077770000004141773E0808000064
S1130360020301030203010011241FBECFEFD4E0F6
S1130370DEBFCDBF11E0A0E0B1E0E2E1FAE002C0EF
S113038005900D92AA32B107D9F721E0AAE2B1E0B3
S113039001C01D92AA33B207E1F70E942A020C940D
S11303A007050C94000085B7806885BF80B780621C
S11303B080BF309808950E946E024FEF64E680E695
S11303C00E944C0240E460EE8FE00E944C0241E047
S11303D061E08BE20E944C02089540E061E08CE20F
S11303E00E944C0281E080932A0108951F920F928B
S11303F00FB60F9211242F933F934F935F936F93F4
S11304007F938F939F93AF93BF93EF93FF9383EC6B
S113041099E00197F1F700C000000E94ED01FF91FF
S1130420EF91BF91AF919F918F917F916F915F9168
S11304304F913F912F910F900FBE0F901F901895E1
S113044028E040E061E083E20E94C40281E08093FE
S11304502B01089517BA0E94D3010E94DB010E9468
S1130460ED010E942B038FE190E00E943A030E9469
S113047073020E94AD0286E091E00E94E2020E94B3
S1130480200284E291E00E94900387EA91E60197BA
S1130490F1F700C00000F5CF1F93CF93DF93182F1F
S11304A0D62FC42FC49885E090E00E942703812FA3
S11304B090E00E9427038D2F90E00E9427038C2F49
S11304C090E00E942703C49ADF91CF911F91089571
S11304D0C49880EC90E00E94270308950E942203B0
S11304E00E9468020895E0E0F0E18EEA808381EAE8
S11304F080838AED808382E1808388EC808388EA2C
S113050080838FE3808385ED808380E8808381E826
S1130510808380E5808389ED808381E2808380E22B
S1130520808382E080838BED808380E380838DEA07
S11305308083108284EA808386EA80838FEA8083C2
S1130540089580558093001080E890E0E0E0F2E1A7
S1130550108201970097E1F70895CF93DF93C0E0ED
S1130560D0E0CE010E94A1022196C830D105C9F77E
S1130570DF91CF9108958055E0E0F0E1808381E23E
S11305808083608340830895CF93C82F862F642F80
S1130590422F0E94BB02EC2FF0E0EE0FFF1FEE0F84
S11305A0FF1FEE0FFF1FE059F04080E090E0A0E055
S11305B0B2E124912C930196319688309105C9F7C4
S11305C0CF910895BF92CF92DF92EF92FF920F9353
S11305D01F93CF93DF93FC018081882349F1EF01BE
S11305E021968F01DD24D3940F2EF1E1EF2EF02D0F
S11305F00F2EF9E0FF2EF02D0F2EF1E1BF2EF02D7E
S11306000F2EF9E0CF2EF02D2E2D4F2D6D2D0E94A3
S1130610C402F8018081803221F0F9E0FF0EEF0E70
S113062003C0D394EB2CFC2C8E0189918111ECCF67
S1130630DF91CF911F910F91FF90EF90DF90CF90BA
S1130640BF90089580EA87BB81E58DB908958FB97D
S1130650779BFECF089585B7806885BF80B7806299
S113066080BF08955D9BFECF8CB908955F9BFECF3C
S11306708CB1089590BD89B988E18AB966E373E0C5
S113068082E393E00E94450308950F931F93CF9351
S1130690DF93EC018B01009731F46115710519F4B6
S11306A080E090E038C06EE070E081E090E00E946D
S11306B0BD03FC010097A1F380E8838301151105B4
S11306C071F01387028781E88383809130019091D0
S11306D03101892B21F4F0933101E093300120970B
S11306E0C9F0D187C087838182608383809132017E
S11306F090913301892B71F4F0933301E09332012B
S11307008091340190913501892B21F4F0933501C6
S1130710E0933401CF01DF91CF911F910F910895A0
S11307200F931F93CF93DF93E0913201F091330144
S1130730238121FF1BC0EC0100E010E0899160914E
S1130740320170913301DB011896ED91FC911997F8
S1130750882331F00995892B89F30FEF1FEFEECF32
S11307608AE00995892B11F4C80102C08FEF9FEF2D
S1130770DF91CF911F910F9108950F931F93CF9302
S1130780DF93869F8001879F100D969F100D112483
S1130790C8010E94D903EC01009729F0A80160E088
S11307A070E00E940005CE01DF91CF911F910F915F
S11307B00895CF93DF938230910510F482E090E0A6
S11307C0E0913801F091390120E030E0A0E0B0E0A0
S11307D0309739F14081518148175907B8F04817CB
S11307E0590771F482819381109729F013969C9391
S11307F08E9312972CC0909339018093380127C0AF
S11308002115310531F04217530718F0A901DB0116
S113081001C0EF019A01BD01DF010280F381E02DE7
S1130820D7CF21153105F9F0281B390B24303105B8
S113083080F48A819B816115710521F0FB0193830A
S1130840828304C09093390180933801FE0132966B
S113085044C0FE01E20FF31F8193919322503109AA
S1130860398328833AC02091360130913701232BF4
S113087041F4209102013091030130933701209318
S1130880360120910001309101012115310541F417
S11308902DB73EB74091040150910501241B350B3F
S11308A0E0913601F0913701E217F307A0F42E1B13
S11308B03F0B2817390778F0AC014E5F5F4F2417C0
S11308C0350748F04E0F5F1F5093370140933601B0
S11308D08193919302C0E0E0F0E0CF01DF91CF91EA
S11308E00895CF93DF93009709F487C0FC013297F2
S11308F013821282C0913801D0913901209781F47A
S113090020813181280F391F809136019091370160
S11309108217930779F5F0933701E09336016DC0A0
S1130920DE0120E030E0AE17BF0750F412964D917F
S11309305C9113979D014115510509F1DA01F3CF3B
S1130940B383A28340815181840F951F8A179B072B
S113095071F48D919C911197840F951F0296918348
S1130960808312968D919C91139793838283211592
S1130970310529F4F0933901E09338013EC0D901DF
S11309801396FC93EE9312974D915D91A40FB51FAE
S1130990EA17FB0779F480819181840F951F0296F1
S11309A0D90111969C938E938281938113969C9383
S11309B08E931297E0E0F0E08A819B81009719F012
S11309C0FE01EC01F9CFCE01029628813981820F14
S11309D0931F20913601309137012817390769F4A4
S11309E0309729F4109239011092380102C0138211
S11309F01282D0933701C0933601DF91CF910895CD
S1130A00DC0101C06D9341505040E0F70895F89423
S1050A10FFCF12
S1130A1200003A0120004B414C56454E204D494EB0
S1130A222045522056454C4449472048594747459A
S10D0A324C49470048616C6C6F00EA
S9030000FC
