S00C00004C6162312E73726563D8
S11300000C94B4010C94EE020C94D1010C94D10123
S11300100C94D1010C94D1010C94D1010C94D10114
S11300200C94D1010C94D1010C94D1010C94D10104
S11300300C94D1010C94D1010C94D1010C94D101F4
S11300400C94D1010C94D1010C94D1010C94D101E4
S11300500C94D1010C94D1010C94D1010C94D101D4
S11300600C94D1010C94D1010C94D1010C94D101C4
S1130070000000000000000000065F5F06000000B2
S11300800007070007070000147F7F147F7F140018
S1130090242E6B6B3A120000466630180C66620020
S11300A0307A4F5D377A48000407030000000000EF
S11300B0001C3E63410000000041633E1C00000040
S11300C0082A3E1C1C3E2A0808083E3E0808000078
S11300D000A0E0600000000008080808080800000C
S11300E000006060000000006030180C060301008E
S11300F03E7F594D7F3E000042427F7F40400000DA
S1130100627359496F660000226349497F360000D3
S1130110181C16137F7F1000276745457D390000A2
S11301203C7E4B4979300000036371190F070000CE
S1130130367F49497F360000064F49693F1E00005B
S113014000006C6C0000000000A0EC6C00000000DB
S1130150081C366341000000141414141414000025
S1130160004163361C080000020351590F060000C9
S11301703E7F415D5D1F1E007C7E13137E7C00006C
S1130180417F7F49497F36001C3E63414163220021
S1130190417F7F41637F1C00417F7F495D41630054
S11301A0417F7F491D0103001C3E6341517372006E
S11301B07F7F08087F7F000000417F7F41000000AF
S11301C0307040417F3F0100417F7F081C7763000E
S11301D0417F7F41406070007F7F060C067F7F0077
S11301E07F7F060C187F7F001C3E6341633E1C002A
S11301F0417F7F49090F06001E3F21717F5E000089
S1130200417F7F19396F460026674D597B320000C4
S113021003417F7F410300007F7F40407F7F0000D8
S11302201F3F60603F1F00007F7F3018307F7F00DA
S113023063771C081C776300074F78784F0700002A
S11302406773594D47637100007F7F41410000008F
S11302500103060C183060000041417F7F0000005C
S1130260080C0603060C0800808080808080808053
S11302700000030704000000207454543C7840003C
S1130280413F7F44447C3800387C44446C2800005F
S1130290307848493F7F4000387C54545C18000053
S11302A0487E7F490302000098BCA4A4F87C0400A3
S11302B0417F7F08047C780000447D7D400000007D
S11302C040C484FD7D000000417F7F10386C4400F1
S11302D000417F7F400000007C7C0C180C7C78007F
S11302E07C7C04047C780000387C44447C38000026
S11302F084FCF8A4243C1800183C24A4F8FC8400D2
S1130300447C78441C180000485C54547424000055
S113031000043E7F442400003C7C40403C7C400080
S11303201C3C60603C1C00003C7C6030607C3C00F9
S1130330446C3810386C44009CBCA0A0FC7C0000C9
S11303404C64745C4C64000008083E774141000032
S113035000000077770000004141773E0808000064
S1130360020301030203010011241FBECFEFD4E0F6
S1130370DEBFCDBF12E0A0E0B1E0EEEEF2E102C0DC
S113038005900D92A630B107D9F722E0A6E0B2E0BD
S113039001C01D92A631B207E1F70E9426030C9416
S11303A075090C94000085B7806885BF80B78062AA
S11303B080BF309808950E94B4034FEF64E680E64E
S11303C00E94830340E460EE8FE00E94830341E0D7
S11303D061E08BE20E9483038EE00E946103807ED1
S11303E0803421F086E091E00E944F058FE00E9466
S11303F06103089580E30E94610384FD05C085FFC5
S113040006C08EEF9FEF08958FEF9FEF089581E070
S113041090E0089580E30E94610386958695869511
S113042091E08927817090E00895EF92FF920F93F5
S11304301F93CF93DF93CDB7DEB72B970FB6F89406
S1130440DEBF0FBECDBFE982FA820B831C832D83EE
S11304503E834F83588769877A878B87E980FA8040
S11304600E940A02892B99F1C70195958795959564
S113047087959595879561E30E944A03C701880F84
S1130480991F82959295907F9827807F982762E3A1
S113049080770E944A0365E3802F8F700E944A038D
S11304A0002379F07E0184E0E80EF11C0A5C16E377
S11304B0612FF70181917F010E944A031F5F10138E
S11304C0F7CF81E00E94750380E090E008C00E94AD
S11304D0FA01990F990B892F992787FD90952B96EF
S11304E00FB6F894DEBF0FBECDBFDF91CF911F9141
S11304F00F91FF90EF90089540E061E08CE20E943C
S1130500830381E08093060208959F92AF92BF9285
S1130510CF92DF92EF92FF920F931F93CF93DF93CB
S1130520CDB7DEB72B970FB6F894DEBF0FBECDBFA5
S11305307C0190910602913081F581E30E94610370
S1130540C82E82E30E946103829586958770D12C20
S1130550CC0CDD1CCC0CDD1CCC0CDD1CC82A85E6C7
S11305600E9461038F70982EA9F08E010C5F1F4FBB
S11305700F2EF6E6AF2EF02DA80E0F2EF6E6BF2EA8
S1130580F02D8B2D0E946103F80181938F01B394A8
S1130590BA10F7CF1092060203C0CC24CA94DC2C04
S11305A0DA82C9829B828BE0FE013196D7010190E9
S11305B00D928A95E1F7C7012B960FB6F894DEBF2A
S11305C00FBECDBFDF91CF911F910F91FF90EF90A0
S11305D0DF90CF90BF90AF909F9008951F920F929D
S11305E00FB60F9211242F933F934F935F936F9302
S11305F07F938F939F93AF93BF93EF93FF9383EC7A
S113060099E00197F1F700C000000E947C02FF917D
S1130610EF91BF91AF919F918F917F916F915F9176
S11306204F913F912F910F900FBE0F901F901895EF
S11306308CE191E00E94280428E040E061E083E23C
S11306400E940A0481E08093070208950E947604C0
S11306508FE190E00E94E5040E94B9030E94F30335
S11306600E94D3010E94180317BA0E94DB010E9462
S11306707C028AE591E00E944F050E947D0487EA8E
S113068091E60197F1F700C00000F9CFC4980895EE
S1130690C49A0895CF93DF93C82FD62F0E944603A0
S11306A082E090E00E946D048D2F90E00E946D0422
S11306B08C2F90E00E946D040E944803DF91CF913B
S11306C00895CF93C82F0E94460383E090E00E94D0
S11306D06D048C2F90E00E946D040E947104C82F59
S11306E00E9448038C2FCF910895CF93C82F0E9466
S11306F046038C2F90E080589F4F0E946D040E9407
S11307004803CF9108951F93CF93DF93182FD62FCB
S1130710C42F0E94460385E090E00E946D04812F5F
S113072090E00E946D048D2F90E00E946D048C2F48
S113073090E00E946D040E944803DF91CF911F91C5
S113074008950E94460380EC90E00E946D040E948C
S113075048038EE00E946103807E803821F087E6A2
S113076091E00E944F0508950E9468040E94A1032D
S11307700895E0E0F0E18EEA808381EA80838AEDE7
S1130780808382E1808388EC808388EA80838FE39E
S1130790808385ED808380E8808381E8808380E5A1
S11307A0808389ED808381E2808380E2808382E09C
S11307B080838BED808380E380838DEA8083108245
S11307C084EA808386EA80838FEA80830895805553
S11307D08093001080E890E0E0E0F2E1108201975D
S11307E00097E1F70895CF93DF93C0E0D0E0CE0106
S11307F00E94E7032196C830D105C9F7DF91CF9154
S113080008958055E0E0F0E1808381E28083608395
S113081040830895CF93C82F862F642F422F0E94C0
S11308200104EC2FF0E0EE0FFF1FEE0FFF1FEE0FA1
S1130830FF1FE059F04080E090E0A0E0B2E1249195
S11308402C930196319688309105C9F7CF9108957C
S1130850BF92CF92DF92EF92FF920F931F93CF93A9
S1130860DF93FC018081882349F1EF0121968F01F8
S1130870DD24D3940F2EF1E1EF2EF02D0F2EF9E0AD
S1130880FF2EF02D0F2EF1E1BF2EF02D0F2EF9E0EB
S1130890CF2EF02D2E2D4F2D6D2D0E940A04F80120
S11308A08081803221F0F9E0FF0EEF0E03C0D39473
S11308B0EB2CFC2C8E0189918111ECCFDF91CF912F
S11308C01F910F91FF90EF90DF90CF90BF9008950C
S11308D080EB87BB81E58DB908958FB9779BFECFF7
S11308E0089580E00E946D048FB1089585B78068F3
S11308F085BF80B7806280BF0895DF92EF92FF9238
S11309000F931F93CF93DF93CDB7DEB766970FB6E0
S1130910F894DEBF0FBECDBF83E0E82E89831A8230
S1130920DD24DA94F12C01E01FEF2D813E814F810B
S1130930588569857A858B850E941502CE010C96AF
S11309400E9485021F9283E08F938EE991E09F932A
S11309508F930E943B058D858F938C858F9386EBB7
S113096091E09F938F930E943B05DF92DF928DEC81
S113097091E09F938F930E943B052F85822F9927A7
S113098087FD90959F932F938AEE91E09F938F9389
S11309900E943B050FB6F894DEBF0FBECDBF66962E
S11309A00FB6F894DEBF0FBECDBFDF91CF911F917C
S11309B00F91FF90EF90DF9008955D9BFECF8CB96F
S11309C008955F9BFECF8CB1089590BD89B988E1ED
S11309D08AB961EE74E08DED94E00E94F00408950C
S11309E00F931F93CF93DF93EC018B01009731F4A6
S11309F06115710519F480E090E038C06EE070E094
S1130A0081E090E00E944E07FC010097A1F380E88A
S1130A1083830115110571F01387028781E88383AD
S1130A2080910C0290910D02892B21F4F0930D0218
S1130A30E0930C022097C9F0D187C087838182603C
S1130A40838380910E0290910F02892B71F4F093AD
S1130A500F02E0930E028091100290911102892BF3
S1130A6021F4F0931102E0931002CF01DF91CF91B2
S1130A701F910F910895A0E0B0E0E1E4F5E00C943B
S1130A804E09FE01359661917191AF0180910E027C
S1130A9090910F020E947C05E2E00C946A090F9386
S1130AA01F93CF93DF93E0910E02F0910F02238105
S1130AB021FF1BC0EC0100E010E0899160910E025F
S1130AC070910F02DB011896ED91FC911997882320
S1130AD031F00995892B89F30FEF1FEFEECF8AE0F0
S1130AE00995892B11F4C80102C08FEF9FEFDF91A4
S1130AF0CF911F910F910895ACE0B0E0E2E8F5E0EA
S1130B000C943E097C016B018A01FC011782168258
S1130B10838181FFBDC1CE0101964C01F701938110
S1130B20F60193FD859193FF81916F01882309F468
S1130B30ABC1853239F493FD859193FF81916F01A7
S1130B40853229F4B70190E00E94AE08E7CF512C1A
S1130B50312C20E02032A0F48B3269F030F4803262
S1130B6059F0833269F420612CC08D3239F080331E
S1130B7039F4216026C02260246023C0286021C08B
S1130B8027FD27C030ED380F3A3078F426FF06C031
S1130B90FAE05F9E300D1124532E13C08AE0389E74
S1130BA0300D1124332E20620CC08E3221F426FD28
S1130BB06BC1206406C08C3611F4206802C08836EC
S1130BC041F4F60193FD859193FF81916F018111A9
S1130BD0C1CF982F9F7D9554933028F40C5F1F4FFD
S1130BE0FFE3F9830DC0833631F0833771F0833529
S1130BF009F05BC022C0F801808189830E5F1F4F1A
S1130C0044244394512C540115C03801F2E06F0E72
S1130C10711CF801A080B18026FF03C0652D70E02F
S1130C2002C06FEF7FEFC5012C870E94A3082C013F
S1130C3083012C852F77222E17C03801F2E06F0E26
S1130C40711CF801A080B18026FF03C0652D70E0FF
S1130C5002C06FEF7FEFC5012C870E9491082C0121
S1130C602C852068222E830123FC1BC0832D90E059
S1130C7048165906B0F4B70180E290E00E94AE082D
S1130C803A94F4CFF50127FC859127FE81915F0109
S1130C90B70190E00E94AE0831103A94F1E04F1A87
S1130CA051084114510471F7E5C0843611F08936B6
S1130CB039F5F80127FF07C0608171818281938132
S1130CC00C5F1F4F08C060817181882777FD809574
S1130CD0982F0E5F1F4F2F76B22E97FF09C0909565
S1130CE08095709561957F4F8F4F9F4F2068B22EEE
S1130CF02AE030E0A4010E94E008A82EA81844C00D
S1130D00853729F42F7EB22E2AE030E025C0F22F59
S1130D10F97FBF2E8F36C1F018F4883579F0B4C04E
S1130D20803719F0883721F0AFC02F2F2061B22E01
S1130D30B4FE0DC08B2D8460B82E09C024FF0AC0F8
S1130D409F2F9660B92E06C028E030E005C020E150
S1130D5030E002C020E132E0F801B7FE07C0608154
S1130D607181828193810C5F1F4F06C06081718104
S1130D7080E090E00E5F1F4FA4010E94E008A82EBF
S1130D80A818FB2DFF77BF2EB6FE0BC02B2D2E7F90
S1130D90A51450F4B4FE0AC0B2FC08C02B2D2E7E5C
S1130DA005C07A2C2B2D03C07A2C01C0752C24FF8E
S1130DB00DC0FE01EA0DF11D8081803311F4297EFE
S1130DC009C022FF06C07394739404C0822F8678EE
S1130DD009F0739423FD13C020FF06C05A2C73142A
S1130DE018F4530C5718732C731468F4B70180E289
S1130DF090E02C870E94AE0873942C85F5CF731471
S1130E0010F4371801C0312C24FF12C0B70180E35D
S1130E1090E02C870E94AE082C8522FF17C021FF8A
S1130E2003C088E590E002C088E790E0B7010CC0F9
S1130E30822F867859F021FD02C080E201C08BE246
S1130E4027FD8DE2B70190E00E94AE08A51438F4A6
S1130E50B70180E390E00E94AE085A94F7CFAA94B9
S1130E60F401EA0DF11D8081B70190E00E94AE0803
S1130E70A110F5CF332009F451CEB70180E290E000
S1130E800E94AE083A94F6CFF7018681978102C09A
S1130E908FEF9FEF2C96E2E10C945A090F931F9366
S1130EA0CF93DF93869F8001879F100D969F100D2F
S1130EB01124C8010E946A07EC01009729F0A801D7
S1130EC060E070E00E949C08CE01DF91CF911F91F9
S1130ED00F910895CF93DF938230910510F482E04F
S1130EE090E0E0911402F091150220E030E0A0E0DF
S1130EF0B0E0309739F14081518148175907B8F073
S1130F004817590771F482819381109729F0139639
S1130F109C938E9312972CC0909315028093140285
S1130F2027C02115310531F04217530718F0A901E4
S1130F30DB0101C0EF019A01BD01DF010280F381F1
S1130F40E02DD7CF21153105F9F0281B390B2430BA
S1130F50310580F48A819B816115710521F0FB01C3
S1130F609383828304C09093150280931402FE013C
S1130F70329644C0FE01E20FF31F819391932250F5
S1130F803109398328833AC0209112023091130227
S1130F90232B41F420910201309103013093130279
S1130FA02093120220910001309101012115310595
S1130FB041F42DB73EB74091040150910501241B23
S1130FC0350BE0911202F0911302E217F307A0F43B
S1130FD02E1B3F0B2817390778F0AC014E5F5F4F8B
S1130FE02417350748F04E0F5F1F509313024093A8
S1130FF012028193919302C0E0E0F0E0CF01DF910F
S1131000CF910895CF93DF93009709F487C0FC0133
S1131010329713821282C0911402D0911502209744
S113102081F420813181280F391F8091120290911F
S113103013028217930779F5F0931302E0931202D7
S11310406DC0DE0120E030E0AE17BF0750F4129609
S11310504D915C9113979D014115510509F1DA01F8
S1131060F3CFB383A28340815181840F951F8A17E4
S11310709B0771F48D919C911197840F951F029693
S11310809183808312968D919C911397938382838D
S11310902115310529F4F0931502E09314023EC0A2
S11310A0D9011396FC93EE9312974D915D91A40F81
S11310B0B51FEA17FB0779F480819181840F951F8E
S11310C00296D90111969C938E93828193811396F3
S11310D09C938E931297E0E0F0E08A819B810097C5
S11310E019F0FE01EC01F9CFCE0102962881398175
S11310F0820F931F2091120230911302281739078F
S113110069F4309729F4109215021092140202C067
S113111013821282D0931302C0931202DF91CF91F3
S11311200895FC010590615070400110D8F7809536
S113113090958E0F9F1F0895DC0101C06D9341505F
S11311405040E0F70895FC01615070400190011097
S1131150D8F7809590958E0F9F1F08950F931F9336
S1131160CF93DF93182F092FEB018B8181FD03C0EF
S11311708FEF9FEF20C082FF10C04E815F812C81D2
S11311803D81421753077CF4E881F9819F012F5F69
S11311903F4F39832883108306C0E885F985812F62
S11311A00995892B29F72E813F812F5F3F4F3F837C
S11311B02E83812F902FDF91CF911F910F9108954E
S11311C0FA01AA27283051F1203181F1E8946F9374
S11311D06E7F6E5F7F4F8F4F9F4FAF4FB1E03ED01A
S11311E0B4E03CD0670F781F891F9A1FA11D680FB8
S11311F0791F8A1F911DA11D6A0F711D811D911DEB
S1131200A11D20D009F468943F912AE0269F11245F
S11312103019305D3193DEF6CF010895462F4770C3
S1131220405D4193B3E00FD0C9F7F6CF462F4F701E
S1131230405D4A3318F0495D31FD4052419302D07C
S1131240A9F7EACFB4E0A695979587957795679522
S1131250BA95C9F700976105710508959B01AC0122
S11312600A2E06945795479537952795BA95C9F749
S1131270620F731F841F951FA01D08952F923F9224
S11312804F925F926F927F928F929F92AF92BF9292
S1131290CF92DF92EF92FF920F931F93CF93DF933E
S11312A0CDB7DEB7CA1BDB0B0FB6F894DEBF0FBE9B
S11312B0CDBF09942A88398848885F846E847D84E8
S11312C08C849B84AA84B984C884DF80EE80FD80EA
S11312D00C811B81AA81B981CE0FD11D0FB6F89460
S11112E0DEBF0FBECDBFED010895F894FFCF21
S11312EE0000160220004E4F5420696E206C6F6F62
S11312FE706261636B206D6F646521004D656E795C
S113130E31204D656E7932204D656E7933204D65F1
S113131E6E7934204D656E7935004A6F7973746930
S113132E636B0043757272656E742070616765201D
S113133E69733A202578200A2000496E6974206565
S113134E7220676F6F64004E6F7420696E20636F36
S113135E6E66696720616674657220726573657462
S113136E0064617461203D2025782C2064617461D1
S113137E206C657374203D202578200A0A00666966
S113138E727374206D657373616765206964203DA3
S113139E2025782C2000636F7079206D657373613E
S11313AE6765206964203D202578200A00666972ED
S11313BE7374206D65737361676520646174615B1A
S11313CE305D203D2025782C2000636F7079206DD0
S11313DE65737361676520646174615B307D203D64
S10913EE202578200A000E
S9030000FC
