:100000000C94B4010C94E4010C94D1010C94D10132
:100010000C94D1010C94D1010C94D1010C94D10118
:100020000C94D1010C94D1010C94D1010C94D10108
:100030000C94D1010C94D1010C94D1010C94D101F8
:100040000C94D1010C94D1010C94D1010C94D101E8
:100050000C94D1010C94D1010C94D1010C94D101D8
:100060000C94D1010C94D1010C94D1010C94D101C8
:10007000000000000000000000065F5F06000000B6
:100080000007070007070000147F7F147F7F14001C
:10009000242E6B6B3A120000466630180C66620024
:1000A000307A4F5D377A48000407030000000000F3
:1000B000001C3E63410000000041633E1C00000044
:1000C000082A3E1C1C3E2A0808083E3E080800007C
:1000D00000A0E06000000000080808080808000010
:1000E00000006060000000006030180C0603010092
:1000F0003E7F594D7F3E000042427F7F40400000DE
:10010000627359496F660000226349497F360000D7
:10011000181C16137F7F1000276745457D390000A6
:100120003C7E4B4979300000036371190F070000D2
:10013000367F49497F360000064F49693F1E00005F
:1001400000006C6C0000000000A0EC6C00000000DF
:10015000081C366341000000141414141414000029
:10016000004163361C080000020351590F060000CD
:100170003E7F415D5D1F1E007C7E13137E7C000070
:10018000417F7F49497F36001C3E63414163220025
:10019000417F7F41637F1C00417F7F495D41630058
:1001A000417F7F491D0103001C3E63415173720072
:1001B0007F7F08087F7F000000417F7F41000000B3
:1001C000307040417F3F0100417F7F081C77630012
:1001D000417F7F41406070007F7F060C067F7F007B
:1001E0007F7F060C187F7F001C3E6341633E1C002E
:1001F000417F7F49090F06001E3F21717F5E00008D
:10020000417F7F19396F460026674D597B320000C8
:1002100003417F7F410300007F7F40407F7F0000DC
:100220001F3F60603F1F00007F7F3018307F7F00DE
:1002300063771C081C776300074F78784F0700002E
:100240006773594D47637100007F7F414100000093
:100250000103060C183060000041417F7F00000060
:10026000080C0603060C0800808080808080808057
:100270000000030704000000207454543C78400040
:10028000413F7F44447C3800387C44446C28000063
:10029000307848493F7F4000387C54545C18000057
:1002A000487E7F490302000098BCA4A4F87C0400A7
:1002B000417F7F08047C780000447D7D4000000081
:1002C00040C484FD7D000000417F7F10386C4400F5
:1002D00000417F7F400000007C7C0C180C7C780083
:1002E0007C7C04047C780000387C44447C3800002A
:1002F00084FCF8A4243C1800183C24A4F8FC8400D6
:10030000447C78441C180000485C54547424000059
:1003100000043E7F442400003C7C40403C7C400084
:100320001C3C60603C1C00003C7C6030607C3C00FD
:10033000446C3810386C44009CBCA0A0FC7C0000CD
:100340004C64745C4C64000008083E774141000036
:1003500000000077770000004141773E0808000068
:10036000020301030203010011241FBECFEFD4E0FA
:10037000DEBFCDBF11E0A0E0B1E0E6E1F0E102C0F8
:1003800005900D92AE34B107D9F721E0AEE4B1E0AB
:1003900001C01D92AE35B207E1F70E9418020C941D
:1003A00009080C94000085B7806885BF80B780621B
:1003B00080BF3098089540E061E08CE20E947F02A7
:1003C00081E080934E0108951F920F920FB60F9215
:1003D00011242F933F934F935F936F937F938F934A
:1003E0009F93AF93BF93EF93FF9383EC99E00197B3
:1003F000F1F700C000000E94DB01FF91EF91BF9177
:10040000AF919F918F917F916F915F914F913F91AC
:100410002F910F900FBE0F901F90189528E040E08D
:1004200061E083E20E94FC0281E080934F01089525
:1004300017BA0E94D3010E946A038FE190E00E94E4
:1004400079030E94AB020E94E50286E091E00E94DF
:100450001A030E940E020E94A60284E291E00E940A
:10046000E30366E385E50E94540286E30E946B0283
:100470001F928F931F9285E58F9381E391E09F9365
:100480008F930E94CF030F900F900F900F900F90BB
:100490000F9087EA91E60197F1F700C00000F9CFCD
:1004A000C4980895C49A0895CF93DF93C82FD62F88
:1004B0000E94500282E090E00E945F038D2F90E046
:1004C0000E945F038C2F90E00E945F030E94520203
:1004D000DF91CF910895CF93C82F0E94500283E0FF
:1004E00090E00E945F038C2F90E00E945F030E94C7
:1004F0006303C82F0E9452028C2FCF9108951F933F
:10050000CF93DF93182FD62FC42F0E94500285E07F
:1005100090E00E945F03812F90E00E945F038D2F87
:1005200090E00E945F038C2F90E00E945F030E9486
:100530005202DF91CF911F9108950E94500280ECEA
:1005400090E00E945F030E94520208950E945A03A5
:100550000E949D020895E0E0F0E18EEA808381EA46
:1005600080838AED808382E1808388EC808388EABF
:1005700080838FE3808385ED808380E8808381E8BA
:10058000808380E5808389ED808381E2808380E2BF
:10059000808382E080838BED808380E380838DEA9B
:1005A0008083108284EA808386EA80838FEA808356
:1005B000089580558093001080E890E0E0E0F2E13B
:1005C000108201970097E1F70895CF93DF93C0E081
:1005D000D0E0CE010E94D9022196C830D105C9F7DA
:1005E000DF91CF9108958055E0E0F0E1808381E2D2
:1005F0008083608340830895CF93C82F862F642F14
:10060000422F0E94F302EC2FF0E0EE0FFF1FEE0FDF
:10061000FF1FEE0FFF1FE059F04080E090E0A0E0E8
:10062000B2E124912C930196319688309105C9F757
:10063000CF910895BF92CF92DF92EF92FF920F93E6
:100640001F93CF93DF93FC018081882349F1EF0151
:1006500021968F01DD24D3940F2EF1E1EF2EF02DA2
:100660000F2EF9E0FF2EF02D0F2EF1E1BF2EF02D11
:100670000F2EF9E0CF2EF02D2E2D4F2D6D2D0E9437
:10068000FC02F8018081803221F0F9E0FF0EEF0ECC
:1006900003C0D394EB2CFC2C8E0189918111ECCFFB
:1006A000DF91CF911F910F91FF90EF90DF90CF904E
:1006B000BF90089580EA87BB81E58DB908958FB911
:1006C000779BFECF089580E00E945F03779BFECF6B
:1006D0008FB1089585B7806885BF80B7806280BF7D
:1006E00008955D9BFECF8CB908955F9BFECF8CB1C2
:1006F000089590BD89B988E18AB965E773E081E71B
:1007000093E00E94840308950F931F93CF93DF9388
:10071000EC018B01009731F46115710519F480E04B
:1007200090E038C06EE070E081E090E00E94E20569
:10073000FC010097A1F380E883830115110571F096
:100740001387028781E8838380915401909155013A
:10075000892B21F4F0935501E09354012097C9F0BF
:10076000D187C08783818260838380915601909175
:100770005701892B71F4F0935701E0935601809152
:10078000580190915901892B21F4F0935901E0937C
:100790005801CF01DF91CF911F910F910895A0E0F3
:1007A000B0E0E5EDF3E00C94E207FE0135966191CF
:1007B0007191AF0180915601909157010E941004F0
:1007C000E2E00C94FE070F931F93CF93DF93E09129
:1007D0005601F0915701238121FF1BC0EC0100E07D
:1007E00010E089916091560170915701DB011896D4
:1007F000ED91FC911997882331F00995892B89F3A4
:100800000FEF1FEFEECF8AE00995892B11F4C80195
:1008100002C08FEF9FEFDF91CF911F910F9108954D
:10082000ACE0B0E0E6E1F4E00C94D2077C016B01AF
:100830008A01FC0117821682838181FFBDC1CE012E
:1008400001964C01F7019381F60193FD859193FF89
:1008500081916F01882309F4ABC1853239F493FD8E
:10086000859193FF81916F01853229F4B70190E062
:100870000E944207E7CF512C312C20E02032A0F417
:100880008B3269F030F4803259F0833269F42061A0
:100890002CC08D3239F0803339F4216026C02260BB
:1008A000246023C0286021C027FD27C030ED380F09
:1008B0003A3078F426FF06C0FAE05F9E300D11242E
:1008C000532E13C08AE0389E300D1124332E20623F
:1008D0000CC08E3221F426FD6BC1206406C08C361C
:1008E00011F4206802C0883641F4F60193FD859129
:1008F00093FF81916F018111C1CF982F9F7D9554F6
:10090000933028F40C5F1F4FFFE3F9830DC083364B
:1009100031F0833771F0833509F05BC022C0F801F4
:10092000808189830E5F1F4F44244394512C5401CE
:1009300015C03801F2E06F0E711CF801A080B18083
:1009400026FF03C0652D70E002C06FEF7FEFC50189
:100950002C870E9437072C0183012C852F77222EAC
:1009600017C03801F2E06F0E711CF801A080B18051
:1009700026FF03C0652D70E002C06FEF7FEFC50159
:100980002C870E9425072C012C852068222E8301AC
:1009900023FC1BC0832D90E048165906B0F4B70124
:1009A00080E290E00E9442073A94F4CFF50127FCE0
:1009B000859127FE81915F01B70190E00E94420777
:1009C00031103A94F1E04F1A51084114510471F773
:1009D000E5C0843611F0893639F5F80127FF07C0E4
:1009E00060817181828193810C5F1F4F08C060819B
:1009F0007181882777FD8095982F0E5F1F4F2F7686
:100A0000B22E97FF09C090958095709561957F4FA4
:100A10008F4F9F4F2068B22E2AE030E0A4010E9441
:100A20007407A82EA81844C0853729F42F7EB22E4B
:100A30002AE030E025C0F22FF97FBF2E8F36C1F0BB
:100A400018F4883579F0B4C0803719F0883721F070
:100A5000AFC02F2F2061B22EB4FE0DC08B2D84604D
:100A6000B82E09C024FF0AC09F2F9660B92E06C079
:100A700028E030E005C020E130E002C020E132E0B3
:100A8000F801B7FE07C060817181828193810C5F9C
:100A90001F4F06C06081718180E090E00E5F1F4FA4
:100AA000A4010E947407A82EA818FB2DFF77BF2E63
:100AB000B6FE0BC02B2D2E7FA51450F4B4FE0AC039
:100AC000B2FC08C02B2D2E7E05C07A2C2B2D03C026
:100AD0007A2C01C0752C24FF0DC0FE01EA0DF11D1A
:100AE0008081803311F4297E09C022FF06C07394EF
:100AF000739404C0822F867809F0739423FD13C089
:100B000020FF06C05A2C731418F4530C5718732C7A
:100B1000731468F4B70180E290E02C870E944207CA
:100B200073942C85F5CF731410F4371801C0312C51
:100B300024FF12C0B70180E390E02C870E94420797
:100B40002C8522FF17C021FF03C088E590E002C07A
:100B500088E790E0B7010CC0822F867859F021FD1C
:100B600002C080E201C08BE227FD8DE2B70190E078
:100B70000E944207A51438F4B70180E390E00E9478
:100B800042075A94F7CFAA94F401EA0DF11D80812F
:100B9000B70190E00E944207A110F5CF332009F47D
:100BA00051CEB70180E290E00E9442073A94F6CF1E
:100BB000F7018681978102C08FEF9FEF2C96E2E1CB
:100BC0000C94EE070F931F93CF93DF93869F8001C2
:100BD000879F100D969F100D1124C8010E94FE05DD
:100BE000EC01009729F0A80160E070E00E94300756
:100BF000CE01DF91CF911F910F910895CF93DF9395
:100C00008230910510F482E090E0E0915C01F09177
:100C10005D0120E030E0A0E0B0E0309739F14081A4
:100C2000518148175907B8F04817590771F4828164
:100C30009381109729F013969C938E9312972CC052
:100C400090935D0180935C0127C02115310531F03F
:100C50004217530718F0A901DB0101C0EF019A0107
:100C6000BD01DF010280F381E02DD7CF21153105D1
:100C7000F9F0281B390B2430310580F48A819B81DF
:100C80006115710521F0FB019383828304C0909369
:100C90005D0180935C01FE01329644C0FE01E20FCB
:100CA000F31F8193919322503109398328833AC0ED
:100CB00020915A0130915B01232B41F420910201D4
:100CC0003091030130935B0120935A012091000180
:100CD000309101012115310541F42DB73EB7409106
:100CE000040150910501241B350BE0915A01F0914C
:100CF0005B01E217F307A0F42E1B3F0B28173907FF
:100D000078F0AC014E5F5F4F2417350748F04E0F67
:100D10005F1F50935B0140935A018193919302C0EE
:100D2000E0E0F0E0CF01DF91CF910895CF93DF9322
:100D3000009709F487C0FC01329713821282C09198
:100D40005C01D0915D01209781F420813181280FD1
:100D5000391F80915A0190915B018217930779F5B1
:100D6000F0935B01E0935A016DC0DE0120E030E0BA
:100D7000AE17BF0750F412964D915C9113979D01E9
:100D80004115510509F1DA01F3CFB383A283408104
:100D90005181840F951F8A179B0771F48D919C9147
:100DA0001197840F951F02969183808312968D91DF
:100DB0009C911397938382832115310529F4F09335
:100DC0005D01E0935C013EC0D9011396FC93EE9364
:100DD00012974D915D91A40FB51FEA17FB0779F4A7
:100DE00080819181840F951F0296D90111969C9361
:100DF0008E938281938113969C938E931297E0E059
:100E0000F0E08A819B81009719F0FE01EC01F9CF97
:100E1000CE01029628813981820F931F20915A01B9
:100E200030915B012817390769F4309729F4109243
:100E30005D0110925C0102C013821282D0935B01AB
:100E4000C0935A01DF91CF910895FC010590615044
:100E500070400110D8F7809590958E0F9F1F0895D0
:100E6000DC0101C06D9341505040E0F70895FC0152
:100E70006150704001900110D8F7809590958E0FC9
:100E80009F1F08950F931F93CF93DF93182F092F60
:100E9000EB018B8181FD03C08FEF9FEF20C082FFAC
:100EA00010C04E815F812C813D81421753077CF435
:100EB000E881F9819F012F5F3F4F39832883108399
:100EC00006C0E885F985812F0995892B29F72E81A0
:100ED0003F812F5F3F4F3F832E83812F902FDF91E4
:100EE000CF911F910F910895FA01AA27283051F14F
:100EF000203181F1E8946F936E7F6E5F7F4F8F4F4B
:100F00009F4FAF4FB1E03ED0B4E03CD0670F781FA9
:100F1000891F9A1FA11D680F791F8A1F911DA11D8E
:100F20006A0F711D811D911DA11D20D009F46894C7
:100F30003F912AE0269F11243019305D3193DEF66F
:100F4000CF010895462F4770405D4193B3E00FD025
:100F5000C9F7F6CF462F4F70405D4A3318F0495D10
:100F600031FD4052419302D0A9F7EACFB4E0A695F3
:100F70009795879577956795BA95C9F70097610515
:100F8000710508959B01AC010A2E0694579547956B
:100F900037952795BA95C9F7620F731F841F951F60
:100FA000A01D08952F923F924F925F926F927F9271
:100FB0008F929F92AF92BF92CF92DF92EF92FF9269
:100FC0000F931F93CF93DF93CDB7DEB7CA1BDB0B15
:100FD0000FB6F894DEBF0FBECDBF09942A883988BA
:100FE00048885F846E847D848C849B84AA84B984C1
:100FF000C884DF80EE80FD800C811B81AA81B981CD
:10100000CE0FD11D0FB6F894DEBF0FBECDBFED01E0
:061010000895F894FFCFE3
:1010160000005E0120004D656E7931204D656E79C8
:1010260032204D656E7933204D656E7934204D65DD
:101036006E793500496E697420657220676F6F643A
:101046000064617461203D20256420646174612020
:0E1056006C657374203D202564200A0A00009A
:00000001FF
